:1000000037C4000066C4000064C4000062C400007D
:1000100060C400005EC400005CC400005AC400005C
:1000200058C4000056C4000054C4000052C400006C
:1000300050C400004EC400004CC400004AC400007C
:1000400048C4000046C4000044C4000042C400008C
:1000500040C400003EC400003CC400000C94F02EDC
:1000600038C400000C94BA2E0C94902E32C40000B8
:1000700030C400002EC400002CC400002AC40000BC
:1000800028C4000026C4000024C4000022C40000CC
:100090000C945A2E0C94302E1CC400000C943A2F51
:1000A00018C4000016C4000014C4000012C40000EC
:1000B00010C400000EC400000CC400000AC40000FC
:1000C00008C4000006C4000004C4000002C400000C
:1000D00000C40000FEC30000FCC30000FAC300001F
:1000E000F8C3000000000000003E5B4F5B3E3E6B2B
:1000F0004F6B3E1C3E7C3E1C183C7E3C181C577DC2
:10010000571C1C5E7F5E1C00183C1800FFE7C3E70D
:10011000FF0018241800FFE7DBE7FF30483A060E1F
:100120002629792926407F050507407F05253F5A66
:100130003CE73C5A7F3E1C1C08081C1C3E7F1422D6
:100140007F22145F5F005F5F06097F017F00668981
:10015000956A606060606094A2FFA29408047E04C7
:100160000810207E201008082A1C08081C2A0808ED
:100170001E101010100C1E0C1E0C30383E383006AD
:100180000E3E0E06000000000000005F00000007A9
:10019000000700147F147F14242A7F2A12231308D7
:1001A000646236495620500008070300001C2241B3
:1001B000000041221C002A1C7F1C2A08083E080857
:1001C0000080703000080808080800006060002007
:1001D000100804023E5149453E00427F40007249EA
:1001E0004949462141494D331814127F102745458E
:1001F00045393C4A494931412111090736494949A4
:1002000036464949291E0000140000004034000011
:10021000000814224114141414140041221408027A
:10022000015909063E415D594E7C1211127C7F49ED
:100230004949363E414141227F4141413E7F494942
:1002400049417F090909013E414151737F0808086E
:100250007F00417F41002040413F017F081422413F
:100260007F404040407F021C027F7F0408107F3E99
:100270004141413E7F090909063E4151215E7F0906
:10028000192946264949493203017F01033F40406D
:10029000403F1F2040201F3F4038403F6314081458
:1002A0006303047804036159494D43007F41414190
:1002B0000204081020004141417F04020102044071
:1002C00040404040000307080020545478407F28F5
:1002D0004444383844444428384444287F385454EB
:1002E000541800087E090218A4A49C787F0804040E
:1002F0007800447D40002040403D007F10284400AD
:1003000000417F40007C047804787C08040478383D
:1003100044444438FC1824241818242418FC7C086D
:10032000040408485454542404043F44243C4040EA
:10033000207C1C2040201C3C4030403C442810289D
:10034000444C9090907C4464544C440008364100E6
:100350000000770000004136080002010204023C60
:100360002623263C1EA1A161123A4040207A38542F
:1003700054555921555579412254547842215554A8
:10038000784020545579400C1E52721239555555FB
:1003900059395454545939555454580000457C41E6
:1003A0000002457D420001457C407D1211127DF026
:1003B000282528F07C545545002054547C547C0A50
:1003C000097F4932494949323A4444443A324A4819
:1003D00048303A4141217A3A42402078009DA0A01D
:1003E0007D3D4242423D3D4040403D3C24FF24246F
:1003F000487E4943662B2FFC2F2BFF0929F620C08E
:10040000887E090320545479410000447D413048DE
:10041000484A32384040227A007A0A0A727D0D1921
:10042000317D2629292F28262929292630484D4083
:1004300020380808080808080808382F10C8ACBA7F
:100440002F102834FA00007B000008142A142222FE
:10045000142A14085500550055AA55AA55AAFF5547
:10046000FF55FF000000FF00101010FF00141414CF
:10047000FF001010FF00FF1010F010F0141414FC17
:10048000001414F700FF0000FF00FF1414F404FC34
:10049000141417101F10101F101F1414141F001015
:1004A0001010F0000000001F101010101F1010108E
:1004B00010F010000000FF1010101010101010109D
:1004C000FF10000000FF140000FF00FF00001F10DD
:1004D000170000FC04F414141710171414F404F497
:1004E0000000FF00F714141414141414F700F71488
:1004F0001414171410101F101F141414F4141010D7
:10050000F010F000001F101F0000001F140000007A
:10051000FC140000F010F01010FF10FF141414FF72
:10052000141010101F00000000F010FFFFFFFFFF6D
:10053000F0F0F0F0F0FFFFFF0000000000FFFF0F01
:100540000F0F0F0F3844443844FC4A4A4A347E02A5
:10055000020606027E027E02635549416338444426
:100560003C04407E201E2006027E020299A5E7A5DB
:10057000991C2A492A1C4C7201724C304A4D4D304C
:100580003048784830BC625A463D3E494949007E71
:100590000101017E2A2A2A2A2A44445F4444405108
:1005A0004A444040444A51400000FF0103E080FFBC
:1005B000000008086B6B083612362436060F090F48
:1005C00006000018180000001010003040FF010164
:1005D000001F01011E00191D1712003C3C3C3C008D
:1005E00000000000000020002300260029002C004D
:1005F0002F00320000010000030106010901000084
:100600002100240027002A002D00300033000101C2
:100610000000040107010A0100000A0B02090C0D89
:100620000E080703040100000000000000000000A5
:1006300000000000000000000000000000000000BA
:100640000000000012111000000000000000000077
:1006500000000000000000000000000000002E89E3
:10066000298F2B02E200E401E510E601E710E870B3
:10067000F200EA00EB20EC3CEDC8E938F1011B1A6E
:100680001A022461255C183619011F88FF051F8096
:10069000FF051F90FF051FD4FF05170536092838F1
:1006A000FF28283C02000300040005EF06000700B5
:1006B0000801093F0100B903FF8357FFFAB30400A3
:1006C000000606B60125B00168CC0105B10600158B
:1006D0001C1C83AAC0065050013C1E08B4070240EF
:1006E000002A2A0D783A01553601C035010044022E
:1006F00000021100FF962900FF3200000100FF00F8
:100700003200010000010200000703003010040065
:10071000000008000202090000000A0000000C00AE
:1007200000000D0000000F0000001000000011008C
:1007300007001200000013000000FF00C8001000B6
:10074000901611002702FF00320012001A00FF006D
:1007500032001300001829002A00FF003200300088
:1007600000003100000032000000350006023600B3
:1007700008083700070038000102390000003C007B
:1007800000003D000000200000002100000050009B
:1007900000005100EF005200000053003F016000D4
:1007A00000A7610003006A000000900010009200A2
:1007B00000009300030095000011970000009800CE
:1007C000000007003301010210202008081020401B
:1007D0001020408002010201080402010102040805
:1007E0001020408080402010080402018004020193
:1007F00080402010080402010804020101020408DC
:1008000010204080010204081020408000002200D7
:10081000250028002B002E003100340002010000CA
:10082000050108010B01050505050705080808086D
:10083000020202020A0A0808040404040101010178
:100840000101010103030303030303030407070773
:100850000C0C0C0C0C0C0C0C020202020606060618
:10086000060606060B0B0B0B0B0B0B0B9D3067489C
:1008700011241FBECFEFD1E2DEBFCDBF00E00CBF21
:1008800018E0A0E0B2E0E8E7FFE900E00BBF02C03B
:1008900007900D92A837B107D9F721E1A8E7B8E092
:1008A00001C01D92AB36B207E1F714E0C7E3D4E014
:1008B00000E006C021970109802FFE010E947C4BB9
:1008C000C633D10780E00807A9F70E94A5330C942E
:1008D000AB4F96CB3FB7F8948091F4089091F50810
:1008E000A091F608B091F70826B5A89B05C02F3F48
:1008F00019F00196A11DB11D3FBFBA2FA92F982F46
:100900008827BC01CD01620F711D811D911D42E040
:10091000660F771F881F991F4A95D1F708952FB743
:10092000F8946091F0087091F1088091F20890912C
:10093000F3082FBF0895F3DF28EE33E040E050E0E6
:100940000E94AF49CA01B9010895FC01A089B1898B
:1009500082E08C93A485B5851C92A685B7858FEC23
:100960008C93108EA489B58986E08C93A289B38973
:100970008C9180618C93A289B3898C9188608C93CF
:10098000A289B3898C9180688C930288F389E02DC9
:1009900080818F7D80830895CF92DF92EF92FF92C6
:1009A0006B017C01AC019B010E94504B882381F0BC
:1009B0008091DA099091DB0901969093DB0980938D
:1009C000DA098FEF9FEFFF90EF90DF90CF900895BF
:1009D00020E030E04AE754E4C701B6010E940A4B28
:1009E000181634F320E030E040E252E4C701B601CB
:1009F0000E94804887FDDCCFC701B6010E94D94A1A
:100A0000CB01E1CFCF93DF93EC01E885F985199510
:100A1000688379838A839B831C821D821E821F8246
:100A200081E08A87DF91CF910895EBE3F1E1A1A105
:100A3000B2A18C9192A589238C9300C000C000C004
:100A4000000080B1A1A1B2A19C9126A1922B9C9300
:100A50000895CF92DF92EF92FF92CF93DF93CBE393
:100A6000D1E1EB8DFC8D90812FA192239083ED8DB0
:100A7000FE8D908128A59223908382B9EF8DF8A1F5
:100A8000808199A589238083EF8DF8A180819DA124
:100A9000892B808311B8ED8DFE8D80819CA1892BDF
:100AA000808383EC90E00197F1F7BFDF90E0B0E046
:100AB000A0E0CC24D82EE92EFA2EB7DFC82AFE2CCF
:100AC000ED2CDC2CCC24B1DFC82AFE2CED2CDC2C48
:100AD000CC24ABDFEB8DFC8D90812BA1922B9083EE
:100AE0009FEF91B99601282BC701B901DF91CF91F2
:100AF000FF90EF90DF90CF900895DC01ED91FC9195
:100B00000190F081E02D1994AF92BF92CF92DF92C5
:100B1000EF92FF920F931F93CF93DF936C017B01B2
:100B20008B01040F151FEB015E01AE18BF08C01743
:100B3000D10759F06991D601ED91FC910190F081B6
:100B4000E02DC6011995892B79F7C501DF91CF9169
:100B50001F910F91FF90EF90DF90CF90BF90AF90DB
:100B600008950895FC01538D448D252F30E0842F86
:100B700090E0821B930B541710F0CF9608950197C5
:100B80000895FC01918D828D981761F0A28DAE0FB2
:100B9000BF2FB11D5D968C91928D9F5F9F73928F39
:100BA00090E008958FEF9FEF0895FC01918D828D65
:100BB000981731F0828DE80FF11D858D90E0089532
:100BC0008FEF9FEF0895FC01918D228D892F90E08A
:100BD000805C9F4F821B91098F739927089588EF3E
:100BE0009EE0F1DF21E0892B09F420E0822F0895B7
:100BF00085E99FE0E8DF21E0892B09F420E0822FDE
:100C00000895FC01A48DA80FB92FB11DA35ABF4FA1
:100C10002C91848D90E001968F739927848FA689FB
:100C2000B7892C93A089B1898C91837080648C934F
:100C3000938D848D981306C00288F389E02D8081FE
:100C40008F7D80830895EF92FF920F931F93CF9330
:100C5000DF93EC0181E0888F9B8D8C8D98131AC0F7
:100C6000E889F989808185FF15C09FB7F894EE89DE
:100C7000FF896083E889F98980818370806480833B
:100C80009FBF81E090E0DF91CF911F910F91FF9086
:100C9000EF900895F62E0B8D10E00F5F1F4F0F732E
:100CA0001127E02E8C8D8E110BC00FB607FCFACFEA
:100CB000E889F989808185FFF5CFCE01A2DFF2CFE7
:100CC000EB8DEC0FFD2FF11DE35AFF4FF0829FB724
:100CD000F8940B8FEA89FB8980818062D0CFCF9313
:100CE000DF93EC01888D8823B1F0AA89BB89E8895C
:100CF000F9898C9185FD03C0808186FD0CC00FB6FB
:100D000007FCF7CF8C9185FFF2CF808185FFEDCF77
:100D1000CE0177DFEACFDF91CF91089580E090E0B8
:100D2000892B21F065DF81110E94000080E090E0B6
:100D3000892B21F054DF81110E94000080E090E0B7
:100D4000892B49F080E090E0892B29F00E94000077
:100D500081110E94000080E090E0892B49F080E042
:100D600090E0892B29F00E94000081110C94000072
:100D700008958150823108F05AC0E82FF0E08827AA
:100D8000EB53F94F8F4F0C947C4BE506E906D706E1
:100D9000DD06E1061707EC06F206F606FC0600077C
:100DA00004070A070E071707120718071C07809188
:100DB00080008F77809380000895809180008F7DE0
:100DC000F9CF80918000877FF5CF84B58F7784BD80
:100DD000089584B58F7DFBCF8091B0008F7780938D
:100DE000B00008958091B0008F7DF9CF8091900080
:100DF0008F77809390000895809190008F7DF9CF38
:100E000080919000877FF5CF8091A0008F778093AD
:100E1000A00008958091A0008F7DF9CF8091A0005F
:100E2000877FF5CF809120018F77809320010895EF
:100E3000809120018F7DF9CF80912001877FF5CFB0
:100E40001F93CF93DF93282F30E0F901E85EF94F2D
:100E50008491F901EA53F84FD491F901EA5DF74F13
:100E6000C491CC23A1F0162F811183DFEC2FF0E089
:100E7000EE0FFF1FE45FF74FA591B4918FB7F89481
:100E8000EC91111108C0D095DE23DC938FBFDF9168
:100E9000CF911F910895DE2BF8CFCF93DF9390E091
:100EA000FC01EA53F84F24918A5D974FFC0184912D
:100EB0008823C9F090E0880F991FFC01E250FA4F97
:100EC000A591B491FC01E45FF74FC591D4916111F4
:100ED0000DC09FB7F8948C91209582238C938881C4
:100EE000282328839FBFDF91CF910895623051F46A
:100EF0009FB7F8943C91822F809583238C93E8814F
:100F00002E2BEFCF8FB7F894EC912E2B2C938FBF15
:100F1000EACF863308F0865320917B00982F987093
:100F2000277F922B90937B008770806480937C0056
:100F300080917A00806480937A0080917A0086FDA7
:100F4000FCCF809178009091790008958F929F92C4
:100F5000AF92BF92CF92DF92EF92FF926B017C0132
:100F6000B9DC4B015C01C114D104E104F104B1F01E
:100F7000B1DC681979098A099B09683E73408105CB
:100F8000910588F321E0C21AD108E108F10888EE42
:100F9000880E83E0981EA11CB11CE5CFFF90EF9056
:100FA000DF90CF90BF90AF909F908F900895E09189
:100FB0005611F0915711808190915E11892B808399
:100FC000E0915A11F0915B11808190916011892B11
:100FD0008083E0915C11F0915D11808190916111AD
:100FE000892B808380916611882359F060E028DF87
:100FF00062E070E080E090E0A9DF61E0809166113E
:101000001FDFE0915611F09157118081909162118C
:1010100089238083E0915811F0915911808190913A
:1010200063118923808312B8E0915A11F0915B110A
:1010300080819091641189238083E0915A11F0910D
:101040005B11808190916011892B808383E0E09116
:101050005A11F0915B119081209164119223908339
:10106000E0915A11F0915B11908120916011922BC7
:101070009083815061F7E0915611F0915711808172
:1010800090915E11892B8083089585ED8093BC003B
:101090008091BC0084FDFCCF1092C9080895209176
:1010A000A508260F3327331F21323105ECF4209198
:1010B000C908FC0190E080E0243069F082E00895E6
:1010C000A091A5082191AC014B57574FA40FB52F04
:1010D000B11D2C930196861798F38091A508680F8F
:1010E0006093A50880E0089581E008958FEF9FEF59
:1010F00008958FEF9FEF08958091840890E0919577
:10110000819591090895CF93DF93CB01EA01642F74
:10111000C6DFCE01DF91CF910895CF93DF931F9269
:10112000CDB7DEB7698361E0CE010196B8DF81E01B
:1011300090E00F90DF91CF910895CF92DF92EF92E0
:10114000FF92FC01A38DB48D8C9197A189238C9380
:10115000A58DB68D8C9190A589238C9362B9A78DAE
:10116000B0A18C9191A589238C93A78DB0A18C916E
:1011700095A1892B8C93A58DB68D8C9194A1892BEB
:101180008C9383E290E0DC011197F1F7C52EDD240A
:10119000EE24FF24C2B8A78DB0A16C9171A567237E
:1011A0006C93A78DB0A16C9175A1672B6C93DC013A
:1011B0001197F1F76A01EE24FF24C2B8A78DB0A100
:1011C0006C9171A567236C93A78DB0A16C9175A1EB
:1011D000672B6C93DC011197F1F7C32ED42EE52E0B
:1011E000FF24C2B8A78DB0A16C9171A567236C9341
:1011F000A78DB0A16C9175A1672B6C930197F1F746
:1012000022B9A78DB0A18C9191A589238C93A78D2C
:10121000B0A18C9195A1892B8C93A38DB48D8C91C9
:1012200093A1892B8C93FF90EF90DF90CF9008953E
:101230001F93CF93DF93FC01A38DB48D8C9197A165
:1012400089238C93A58DB68D8C9190A589238C9341
:10125000828D823009F0A5C08CE282B9A78DB0A141
:101260008C9191A589238C93A78DB0A18C9195A188
:10127000892B8C93A58DB68D8C9194A1892B8C9301
:1012800072B9A78DB0A18C9191A589238C93A78D5C
:10129000B0A18C9195A1892B8C9362B9A78DB0A137
:1012A0008C9191A589238C93A78DB0A18C9195A148
:1012B000892B8C932150310941095109DA01C90167
:1012C00036E0B695A795979587953A95D1F7761319
:1012D00099C0019708F479C060E1A78DB0A17C9115
:1012E000C1A57C237C93A78DB0A17C91C5A17C2B4B
:1012F0007C93A78DB0A17C91C1A57C237C93A78D05
:10130000B0A17C91C5A17C2B7C93A78DB0A17C91D1
:10131000C1A57C237C93A78DB0A17C91C5A17C2B1A
:101320007C93A78DB0A17C91C1A57C237C93A78DD4
:10133000B0A17C91C5A17C2B7C93A78DB0A17C91A1
:10134000C1A57C237C93A78DB0A17C91C5A17C2BEA
:101350007C93A78DB0A17C91C1A57C237C93A78DA4
:10136000B0A17C91C5A17C2B7C93A78DB0A17C9171
:10137000C1A57C237C93A78DB0A17C91C5A17C2BBA
:101380007C93A78DB0A17C91C1A57C237C93A78D74
:10139000B0A17C91C5A17C2B7C93615009F09DCFBD
:1013A00098CF81110FC012B8A78DB0A18C9191A5D3
:1013B00089238C93A78DB0A18C9195A1892B8C93B7
:1013C00082E24BCF8330E1F747CF2F73215008F4EF
:1013D000A7C0A78DB0A18C9191A589238C93A78DCF
:1013E000B0A18C9195A1892B8C93A78DB0A18C91E4
:1013F00091A589238C93A78DB0A18C9195A1892B60
:101400008C93E4CF019708F46DC0A0E172B9C78D49
:10141000D0A1B88111A5B123B883C78DD0A1B8815F
:1014200015A1B12BB88362B9C78DD0A1B88111A520
:10143000B123B883C78DD0A1B88115A1B12BB883D2
:1014400072B9C78DD0A1B88111A5B123B883C78D5A
:10145000D0A1B88115A1B12BB88362B9C78DD0A135
:10146000B88111A5B123B883C78DD0A1B88115A1CA
:10147000B12BB88372B9C78DD0A1B88111A5B123A2
:10148000B883C78DD0A1B88115A1B12BB88362B93B
:10149000C78DD0A1B88111A5B123B883C78DD0A1C4
:1014A000B88115A1B12BB88372B9C78DD0A1B8810D
:1014B00011A5B123B883C78DD0A1B88115A1B12BD7
:1014C000B88362B9C78DD0A1B88111A5B123B88303
:1014D000C78DD0A1B88115A1B12BB883A15009F057
:1014E00095CF90CF2F732150D8F072B9A78DB0A1AE
:1014F0008C9191A589238C93A78DB0A18C9195A1F6
:10150000892B8C9362B9A78DB0A18C9191A5892369
:101510008C93A78DB0A18C9195A1892B8C93E3CF4F
:10152000A38DB48D8C9193A1892B8C93DF91CF9156
:101530001F910895FC01A38DB48D8C9197A18923EF
:101540008C93808591859C01215031098150A58D16
:10155000B68D9C9120A592239C9394E092B9A78D7F
:10156000B0A19C9121A592239C93A78DB0A19C91A1
:1015700025A1922B9C93A58DB68D9C9124A1922B95
:101580009C9332B9A78DB0A19C9121A592239C93E5
:10159000A78DB0A19C9125A1922B9C93A58DB68D72
:1015A0009C9120A592239C9395E092B9A78DB0A120
:1015B0009C9121A592239C93A78DB0A19C9125A1DC
:1015C000922B9C93A58DB68D9C9124A1922B9C93DC
:1015D00082B9A78DB0A18C9191A589238C93A78DF9
:1015E000B0A18C9195A1892B8C93828593859C01C8
:1015F000215031098150A58DB68D9C9120A5922353
:101600009C9398E092B9A78DB0A19C9121A59223BB
:101610009C93A78DB0A19C9125A1922B9C93A58D05
:10162000B68D9C9124A1922B9C9332B9A78DB0A129
:101630009C9121A592239C93A78DB0A19C9125A15B
:10164000922B9C93A58DB68D9C9120A592239C9363
:1016500099E092B9A78DB0A19C9121A592239C936A
:10166000A78DB0A19C9125A1922B9C93A58DB68DA1
:101670009C9124A1922B9C9382B9A78DB0A18C91AF
:1016800091A589238C93A78DB0A18C9195A1892BCD
:101690008C93A38DB48D8C9193A1892B8C930895F9
:1016A0008F929F92AF92BF92EF92FF920F931F93F0
:1016B000CF93DF93EC017A01C901EB8DFC8D208182
:1016C0003FA1232320832A8D2111D0C12D892230CF
:1016D00009F4A9C1233009F4BAC1213009F0C3C10A
:1016E0004FEE50E0FA01E01BF10B4E195F099B0130
:1016F0008C01CA017B01BF01AD8DBE8DEC91F8A5B7
:10170000EF23EC9312B8AF8DB8A1EC91F9A5EF23BC
:10171000EC93AF8DB8A1EC91FDA1EF2BEC93E0E53C
:10172000E2B9AF8DB8A1EC91F9A5EF23EC93AF8DA1
:10173000B8A1EC91FDA1EF2BEC93AD8DBE8DEC919A
:10174000FCA1EF2BEC9372B9EF8DF8A17081A9A5E4
:101750007A237083EF8DF8A17081ADA17A2B70830D
:1017600062B9EF8DF8A1608179A567236083EF8D61
:10177000F8A160817DA1672B6083ED8DFE8D608176
:1017800078A56723608312B8EF8DF8A1608179A5F1
:1017900067236083EF8DF8A160817DA1672B608353
:1017A00061E562B9EF8DF8A1608179A56723608357
:1017B000EF8DF8A160817DA1672B6083ED8DFE8D9B
:1017C00060817CA1672B608392B9EF8DF8A1908135
:1017D00069A596239083EF8DF8A190816DA1962B3A
:1017E000908382B9EF8DF8A1808199A589238083A8
:1017F000EF8DF8A180819DA1892B8083ED8DFE8DD9
:10180000808198A58923808312B8EF8DF8A180810B
:1018100099A589238083EF8DF8A180819DA1892BD3
:10182000808382E582B9EF8DF8A1808199A5892313
:101830008083EF8DF8A180819DA1892B8083ED8D20
:10184000FE8D80819CA1892B8083F2B8EF8DF8A159
:10185000808199A589238083EF8DF8A180819DA146
:10186000892B8083E2B8EF8DF8A1808199A5892327
:101870008083EF8DF8A180819DA1892B8083ED8DE0
:10188000FE8D808198A58923808312B8EF8DF8A101
:10189000808199A589238083EF8DF8A180819DA106
:1018A000892B808383E582B9EF8DF8A1808199A58A
:1018B00089238083EF8DF8A180819DA1892B80836E
:1018C000ED8DFE8D80819CA1892B808312B9EF8DD7
:1018D000F8A1808199A589238083EF8DF8A180816B
:1018E0009DA1892B808302B9EF8DF8A1808199A5F4
:1018F00089238083EF8DF8A180819DA1892B80832E
:10190000ED8DFE8D808198A58923808312B8EF8D9F
:10191000F8A1808199A589238083EF8DF8A180812A
:101920009DA1892B808380E282B9EF8DF8A180810F
:1019300099A589238083EF8DF8A180819DA1892BB2
:101940008083ED8DFE8D80819CA1892B808352B98F
:10195000EF8DF8A1808199A589238083EF8DF8A16F
:1019600080819DA1892B808342B9EF8DF8A1808170
:1019700099A589238083EF8DF8A180819DA1892B72
:101980008083ED8DFE8D808198A58923808312B898
:10199000EF8DF8A1808199A589238083EF8DF8A12F
:1019A00080819DA1892B808381E282B9EF8DF8A18E
:1019B000808199A589238083EF8DF8A180819DA1E5
:1019C000892B8083ED8DFE8D80819CA1892B808366
:1019D00032B9EF8DF8A1808199A589238083EF8D9D
:1019E000F8A180819DA1892B808322B9EF8DF8A178
:1019F000808199A589238083EF8DF8A180819DA1A5
:101A0000892B8083EB8DFC8D80819BA1892B80832A
:101A1000DF91CF911F910F91FF90EF90BF90AF900A
:101A20009F908F9008952FEE30E0F901E81BF90B9D
:101A3000C901861B970B2FE331E0B901601B710BC5
:101A40008901041B150B9801AC017B0154CE2FE3D7
:101A500031E0F901E81BF90B261B370BC80189019E
:101A6000BA017F0149CE9A01AB0146CE213009F07F
:101A70002DC1ED8DFE8D208138A52323208322E00A
:101A800022B9EF8DF8A1208139A523232083EF8D82
:101A9000F8A120813DA1232B2083ED8DFE8D208197
:101AA0003CA1232B208372B9EF8DF8A1208139A5A9
:101AB00023232083EF8DF8A120813DA1232B2083B8
:101AC000ED8DFE8D208138A52323208323E022B9CC
:101AD000EF8DF8A1208139A523232083EF8DF8A174
:101AE00020813DA1232B2083ED8DFE8D20813CA103
:101AF000232B208362B9EF8DF8A1208139A5232300
:101B00002083EF8DF8A120813DA1232B2083ED8D33
:101B1000FE8D208138A52323208326E022B9EF8D76
:101B2000F8A1208139A523232083EF8DF8A12081FE
:101B30003DA1232B2083ED8DFE8D20813CA1232B05
:101B40002083F2B8EF8DF8A1208139A523232083CB
:101B5000EF8DF8A120813DA1232B2083ED8DFE8DFB
:101B6000208138A52323208327E022B9EF8DF8A117
:101B7000208139A523232083EF8DF8A120813DA169
:101B8000232B2083ED8DFE8D20813CA1232B2083F0
:101B900042B9EF8DF8A1208139A523232083EF8D51
:101BA000F8A120813DA1232B2083ED8DFE8D208186
:101BB00038A52323208324E022B9EF8DF8A12081CA
:101BC00039A523232083EF8DF8A120813DA1232B6C
:101BD0002083ED8DFE8D20813CA1232B208392B9A3
:101BE000EF8DF8A1908129A592239083EF8DF8A124
:101BF00090812DA1922B9083ED8DFE8D908128A553
:101C00009223908395E092B9EF8DF8A1908129A558
:101C100092239083EF8DF8A190812DA1922B908338
:101C2000ED8DFE8D90812CA1922B908382B9EF8D4A
:101C3000F8A1808199A589238083EF8DF8A1808107
:101C40009DA1892B8083ED8DFE8D808198A58923B0
:101C5000808388E082B9EF8DF8A1808199A58923DE
:101C60008083EF8DF8A180819DA1892B8083ED8DEC
:101C7000FE8D80819CA1892B808312B9EF8DF8A104
:101C8000808199A589238083EF8DF8A180819DA112
:101C9000892B8083ED8DFE8D808198A5892380839B
:101CA00089E082B9EF8DF8A1808199A5892380838D
:101CB000EF8DF8A180819DA1892B8083ED8DFE8D14
:101CC00080819CA1892B808302B990CE2250223042
:101CD00008F098CE4B01770FAA08BB08540199244D
:101CE0008824092E000CAA0BBB0B9C01AD012829EE
:101CF00039294A295B296AE2CE011FDAC701FF0CA4
:101D0000AA0BBB0BDC0199278827012E000C220BA4
:101D1000330BA9019801282B392B4A2B5B2B6BE243
:101D2000CE010BDA6FCE0F931F93CF93DF938370A7
:101D30008093501120913F113091401140914111F9
:101D400050914211813009F4A3C1833009F4A0C13C
:101D50003093441120934311509346114093451101
:101D6000E0915611F0915711808190916211892371
:101D700080838091551181117FC0E0915011E15015
:101D800090E3E33030F4F0E0EE0FFF1FE357FD4F38
:101D90009081E0915811F091591180812091631147
:101DA0008223808312B8E0915A11F0915B118081F7
:101DB0002091641182238083E0915A11F0915B118C
:101DC000808120916011822B808383E082B9E09131
:101DD0005A11F0915B1180812091641182238083DC
:101DE000E0915A11F0915B11808120916011822B5A
:101DF0008083E0915811F0915911808120915F11F9
:101E0000822B808380E182B9E0915A11F0915B11BD
:101E100080812091641182238083E0915A11F09196
:101E20005B11808120916011822B808392B9E091B7
:101E30005A11F0915B118081909164118923808304
:101E4000E0915A11F0915B11808190916011892B82
:101E50008083009145111091461101501109209184
:101E60004311309144112150310950E040E070E0BD
:101E700060E08BE391E114DC80915511813009F031
:101E800046C0E0915011E15090E0E33020F4F0E0E2
:101E9000EE58FD4F9081E0915811F09159118081D9
:101EA000209163118223808386E182B9E0915A11E7
:101EB000F0915B1180812091641182238083E091F5
:101EC0005A11F0915B11808120916011822B8083E7
:101ED000E0915811F0915911808120915F11822B6E
:101EE000808392B9E0915A11F0915B1180819091B9
:101EF000641189238083E0915A11F0915B118081F4
:101F000090916011892B80838BE391E113DB8091A9
:101F10005511823009F059C080915011813009F477
:101F2000C2C008F4BEC0823009F4BFC0833009F4D7
:101F3000D8E2E0915811F09159118081909163118C
:101F40008923808386E382B9E0915A11F0915B1175
:101F500080819091641189238083E0915A11F091DE
:101F60005B11808190916011892B8083E0915811E1
:101F7000F0915911808190915F11892B8083D2B9A2
:101F8000E0915A11F0915B11808190916411892345
:101F90008083E0915A11F0915B11808190916011E2
:101FA000892B808300914511109146110150110930
:101FB00020914311309144112150310950E040E00B
:101FC00070E060E08BE391E16BDB80915511833031
:101FD00009F059C080915011813009F46AC008F4A9
:101FE00066C0823009F467C0833009F4C0E6E0912E
:101FF0005811F09159118081909163118923808348
:1020000086E382B9E0915A11F0915B118081909141
:10201000641189238083E0915A11F0915B118081D2
:1020200090916011892B8083E0915811F0915911A2
:10203000808190915F11892B8083C2B9E0915A1100
:10204000F0915B1180819091641189238083E091EC
:102050005A11F0915B11808190916011892B8083DE
:102060000091451110914611015011092091431121
:10207000309144112150310950E040E070E060E0BF
:102080008BE391E10DDBDF91CF911F910F910895CB
:1020900050934411409343113093461120934511BE
:1020A0005FCED8E846CFD8EE44CFD8E442CFC0ECDC
:1020B0009ECFC0EA9CCFC0E09ACFEF92FF920F93E1
:1020C0001F93CF93DF93EC01F22EE32E77FDEFC049
:1020D00057FDEDC088859985681779070CF0E7C032
:1020E0008A859B85481759070CF0E1C0EB8DFC8D64
:1020F00080819FA1892380838A8D8111F3C08D897E
:10210000823009F4DBC0833009F4E5C0813031F45A
:102110008FEE90E0841B950BAB01BC01ED8DFE8D25
:10212000808198A58923808312B8EF8DF8A18081E2
:1021300099A589238083EF8DF8A180819DA1892BAA
:10214000808380E282B9EF8DF8A1808199A58923EF
:102150008083EF8DF8A180819DA1892B8083ED8DF7
:10216000FE8D80819CA1892B808372B9EF8DF8A1AF
:10217000808199A589238083EF8DF8A180819DA11D
:10218000892B808362B9EF8DF8A1808199A589237D
:102190008083EF8DF8A180819DA1892B8083ED8DB7
:1021A000FE8D808198A58923808312B8EF8DF8A1D8
:1021B000808199A589238083EF8DF8A180819DA1DD
:1021C000892B808381E282B9EF8DF8A1808199A566
:1021D00089238083EF8DF8A180819DA1892B808345
:1021E000ED8DFE8D80819CA1892B808352B9EF8D6E
:1021F000F8A1808199A589238083EF8DF8A1808142
:102200009DA1892B808342B9EF8DF8A1808199A58A
:1022100089238083EF8DF8A180819DA1892B808304
:10222000ED8DFE8D808198A58923808312B8EF8D76
:10223000F8A1808199A589238083EF8DF8A1808101
:102240009DA1892B808382E282B9EF8DF8A18081E4
:1022500099A589238083EF8DF8A180819DA1892B89
:102260008083ED8DFE8D80819CA1892B8083E2B8D7
:10227000EF8DF8A1808199A589238083EF8DF8A146
:1022800080819DA1892B8083F2B8EF8DF8A1808198
:1022900099A589238083EF8DF8A180819DA1892B49
:1022A0008083EB8DFC8D80819BA1892B8083DF91C6
:1022B000CF911F910F91FF90EF9008958FEE90E0D6
:1022C0009C01261B370BB9018FE391E09C01241B75
:1022D000350BA90123CF8FE391E0861B970BBA0141
:1022E000AC011CCF813009F0D2C0ED89E15090E003
:1022F000E33020F4F0E0EE58FD4F9081ED8DFE8D3F
:10230000808128A58223808386E182B9EF8DF8A1A0
:10231000808129A582238083EF8DF8A180812DA162
:10232000822B8083ED8DFE8D80812CA1822B80837A
:1023300092B9EF8DF8A1808199A589238083EF8DD3
:10234000F8A180819DA1892B8083ED8DFE8D8081F8
:1023500098A58923808382E082B9EF8DF8A18081DE
:1023600099A589238083EF8DF8A180819DA1892B78
:102370008083ED8DFE8D80819CA1892B808372B935
:10238000EF8DF8A1808199A589238083EF8DF8A135
:1023900080819DA1892B8083ED8DFE8D808198A504
:1023A0008923808383E082B9EF8DF8A1808199A58C
:1023B00089238083EF8DF8A180819DA1892B808363
:1023C000ED8DFE8D80819CA1892B808362B9EF8D7C
:1023D000F8A1808199A589238083EF8DF8A1808160
:1023E0009DA1892B8083ED8DFE8D808198A5892309
:1023F000808386E082B9EF8DF8A1808199A5892339
:102400008083EF8DF8A180819DA1892B8083ED8D44
:10241000FE8D80819CA1892B808352B9EF8DF8A11C
:10242000808199A589238083EF8DF8A180819DA16A
:10243000892B8083ED8DFE8D808198A589238083F3
:1024400087E082B9EF8DF8A1808199A589238083E7
:10245000EF8DF8A180819DA1892B8083ED8DFE8D6C
:1024600080819CA1892B808342B9EF8DF8A1808166
:1024700099A589238083EF8DF8A180819DA1892B67
:102480008083ED8DFE8D808198A58923DBCE8250DF
:10249000823008F006CF0A851B8501501109288576
:1024A000398521503109CE01FBD8EB8DFC8D80811F
:1024B0009FA189238083ED8DFE8D808198A589233E
:1024C00080838CE2C1CEEF92FF920F931F93CF9344
:1024D000DF93EC017B018A8D8111A8C0ED89E15069
:1024E00020E030E080E0E33058F4F0E0DF01A15973
:1024F000BD4F8C91EE0FFF1FE759FD4F20813181B9
:10250000EB8DFC8D90814FA194239083ED8DFE8DFA
:10251000908148A59423908312B8EF8DF8A1908103
:1025200049A594239083EF8DF8A190814DA1942B20
:10253000908390E292B9EF8DF8A1908149A5942300
:102540009083EF8DF8A190814DA1942B9083ED8D18
:10255000FE8D90814CA1942B908312B8EF8DF8A141
:10256000908149A594239083EF8DF8A190814DA18E
:10257000942B908382B9EF8DF8A1808199A589234E
:102580008083EF8DF8A180819DA1892B8083ED8DC3
:10259000FE8D808198A58923808312B8EF8DF8A1E4
:1025A000808199A589238083EF8DF8A180819DA1E9
:1025B000892B808381E282B9EF8DF8A1808199A572
:1025C00089238083EF8DF8A180819DA1892B808351
:1025D000ED8DFE8D80819CA1892B808332B9EF8D9A
:1025E000F8A1808199A589238083EF8DF8A180814E
:1025F0009DA1892B808322B9EF8DF8A1808199A5B7
:1026000089238083EF8DF8A180819DA1892B808310
:1026100020E03CE241E050E0B701CE01DF91CF91F4
:102620001F910F91FF90EF900C9418098150833007
:1026300078F70A851B8501501109288539852150B5
:10264000310950E040E070E060E0CE0129D8E0CFF1
:102650008F929F92AF92BF92CF92DF92EF92FF92B2
:102660000F931F93CF93DF93EC01F901D80147013A
:102670001E161F06ECF41A161B06D4F4A884B9849F
:102680006A157B05ACF48A859B854817590784F445
:102690007901E60EF71E97012150310937FD08C078
:1026A0006801C40ED51E86010150110917FF56C0DE
:1026B000DF91CF911F910F91FF90EF90DF90CF901E
:1026C000BF90AF909F908F90089570E060E057FDAD
:1026D00033C06D012A153B0534F0950121503109B5
:1026E0007501E61AF70A0817190734F08C01015032
:1026F00011096C01C41AD50ACE010E94500B970132
:10270000D6010E94844B9B01AC01B401CE010E9412
:1027100018098A8D811113C00A851B850150110982
:10272000288539852150310950E040E070E060E0B3
:10273000CE010E94500BBCCF50E040E0CBCFCE0189
:10274000DF91CF911F910F91FF90EF90DF90CF908D
:10275000BF90AF909F908F900C949A0A77FDB5CF61
:102760007F01B5CFCF92DF92EF92FF920F931F932D
:10277000CF93DF93EC0169017801121613060CF078
:102780003FC077FD3DC08885998568177907C4F5F6
:102790008A859B85481759079CF5240F351F8901A9
:1027A0000150110917FD2CC057FF03C0690150E00B
:1027B00040E00817190734F08C01015011096C0131
:1027C000C41AD50A9B01CE010E94500B9601DD0C64
:1027D000440B550BB701CE010E9418098A8D811157
:1027E00018C00A851B85015011092885398521509B
:1027F000310950E040E070E060E0CE010E94500BF3
:10280000DF91CF911F910F91FF90EF90DF90CF90CC
:102810000895CE01DF91CF911F910F91FF90EF901E
:10282000DF90CF900C949A0ACF92DF92EF92FF92B2
:102830000F931F93CF93DF93EC0169017801121678
:1028400013060CF040C057FD3EC08A859B85481793
:102850005907CCF58885998568177907A4F5F9019A
:10286000E60FF71F9F012150310937FD2CC077FF7C
:1028700003C06F0170E060E02817390734F09C0155
:10288000215031096C01C61AD70A8A01CE010E9473
:10289000500B9601DD0C440B550BB701CE010E9485
:1028A00018098A8D811118C00A851B8501501109EC
:1028B000288539852150310950E040E070E060E022
:1028C000CE010E94500BDF91CF911F910F91FF908D
:1028D000EF90DF90CF900895CE01DF91CF911F91BF
:1028E0000F91FF90EF90DF90CF900C949A0A08958B
:1028F0002F923F924F925F926F927F928F929F9210
:10290000AF92BF92CF92DF92EF92FF920F931F93FD
:10291000CF93DF93CDB7DEB769970FB6F894DEBFDC
:102920000FBECDBF998F888F5A8349831C830B8339
:10293000F886EF82FC01408D518D4115510509F05B
:10294000B9C080859185681779070CF074C08285BD
:10295000938549815A81481759070CF06CC0AC2CFB
:10296000B12CCB0156E0C59E800D911D1124181687
:1029700019060CF060C0C50133E0880F991F3A9525
:10298000E1F7A981BA818A0F9B1F181619060CF06E
:1029900052C08789811103C0203B08F02F5F3B01A3
:1029A0004B01D12C84EE90E0861B970BFC0135E0A7
:1029B000239FE00DF11D1124FC87EB8745E0E0E04B
:1029C000D41629F0EB85FC85E80DF91DE4912980EA
:1029D0003A80512C412C6E2F70E07E836D83E0FF96
:1029E00050C0A88DB98DED91FC91B1E0CB123CC0E7
:1029F0000084F185E02D2B813C8149815A81440D71
:102A0000551DB401888D998D1995ED81FE81F5953F
:102A1000E795FFEF4F1A5F0A2A0C3B1C28E042168D
:102A20005104C9F63FEF831A930A6A0C7B1CD394B6
:102A300046E0D412C3CF69960FB6F894DEBF0FBE3E
:102A4000CDBFDF91CF911F910F91FF90EF90DF905D
:102A5000CF90BF90AF909F908F907F906F905F903E
:102A60004F903F902F9008950288F389E02DEB80DE
:102A7000FC8085019501A101B301888D998D19957F
:102A8000C4CFEB81FC812F813885E217F30709F46D
:102A9000BCCFA88DB98DED91FC91B1E0CB1204C0F3
:102AA0000084F185E02DA9CF0288F389E02DEF8025
:102AB000F884DFCFFA01349634913297859194915E
:102AC000231BE7E02E9F800D911D1124FA01259113
:102AD00034913F872E87FC0125903490FC0132967B
:102AE0009490319634913D873196E491FC0135966E
:102AF00024910696FC018491F1E0FC1550F4A22F7C
:102B0000022E000CBB0B482F082E000C550B5A87C9
:102B10004987AC2CB12CAA9DA001AB9D500DBA9D4C
:102B2000500D1124DA01A60FB71FB887AF83812C8F
:102B3000D12CBB8AAA8AE981FA81E80FF11D87FDB1
:102B4000FA95FD8BEC8BAB01420F511D27FD5A9579
:102B50005F8B4E8B5D85D51608F06DCF8D2D90E087
:102B600049855A85480F591F6A897B89469F90017C
:102B7000479F300D569F300D1124A981BA81A20FB5
:102B8000B31FBC87AB874F805884712C612CEC89B4
:102B9000FD89E80FF91FF98BE88B882D860D6914E4
:102BA000D0F5877049F4C1010196EE85FF85E20DED
:102BB000F31D24912D831C013D8137FF15C0A88D85
:102BC000B98DED91FC91B1E0CB1217C00084F18575
:102BD000E02D2B813C81488959896E897F89660D5A
:102BE000771D888D998D1995ED81EE0FED83FFEF9F
:102BF0006F1A7F0A4A0C5B1CD0CF0288F389E02D44
:102C0000EB80FC80850195014B855C85B201888D48
:102C1000998D1995E9CF890CD3949CCFAF92BF922F
:102C2000CF92EF92FF920F931F93CF93DF93EC011C
:102C3000262F888D998D009709F04EC06A30C9F40F
:102C40008C8948E0849F900111248E859F85820F96
:102C5000931F9F878E871D861C8681E090E0DF9101
:102C6000CF911F910F91FF90EF90CF90BF90AF90B9
:102C700008956D3091F3CC888E898823C1F08C85BE
:102C80009D85E6E0CE9E800D911D112448855985D5
:102C90008417950764F04E855F851D861C86F8E0D5
:102CA000CF9EC0011124840F951F9F878E87EA88CD
:102CB000FB88088919894E855F856C857D85CE01E5
:102CC00017DE2C898C859D8536E0239F800D911D14
:102CD00011249D878C87C1CF6A3079F41D861C86AC
:102CE000FC013696E4912C898E859F85E29F800DAC
:102CF000911D11249F878E87B0CF6D3009F4ADCF21
:102D0000AC014C5F5F4FFA013491631708F4A5CF13
:102D10003196E491E61708F4A0CFFA014491329776
:102D2000A590B490362F341BF7E03F9FA00CB11C48
:102D30001124F501329634913196E491332399F1BF
:102D4000EE2389F1CC88F5013596E4914E89442330
:102D500001F10E2E000CFF0BE30FF11DCE9EA00122
:102D6000CF9E500D11246C857D85460F571F6885B9
:102D70007985461757076CF04E855F851D861C8642
:102D80000696FC018491C89E400D511D11245F8759
:102D90004E87EA88FB88088919894E855F856C858E
:102DA0007D85CE01A5DDF5013496E4912C898C85D5
:102DB0009D85E29F800D911D11248BCFEF92FF9294
:102DC0000F931F93DC011A960D911C911B97189677
:102DD0002D913C911997ED91FC910288F389E02D9A
:102DE0007B0150E040E070E060E019951F910F9189
:102DF000FF90EF9008956F927F928F929F92AF9283
:102E0000BF92CF92DF92EF92FF920F931F93CF93D7
:102E1000DF936C015A014801EB013B01620E731E06
:102E2000C615D70574F4D601ED91FC910484F5859F
:102E3000E02D87019401A501BE01C60119952196D7
:102E4000EFCFDF91CF911F910F91FF90EF90DF9027
:102E5000CF90BF90AF909F908F907F906F9008958C
:102E6000EF92FF920F931F93260F371F21503109C6
:102E7000DC01ED91FC910284F385E02D78018A015B
:102E800019951F910F91FF90EF900895EF92FF9287
:102E90000F931F93240F351F21503109DC01ED9151
:102EA000FC910284F385E02D780189019B0119953D
:102EB0001F910F91FF90EF9008956F927F928F92E4
:102EC0009F92AF92BF92CF92DF92EF92FF920F93B9
:102ED0001F93CF93DF93EC016B015A013901480135
:102EE000E881F9810684F785E02D87011995A50110
:102EF000480D591D41505109E881F9810684F78533
:102F0000E02D9301B601CE011995E881F981048481
:102F1000F585E02D9401A501B601CE011995C60CE9
:102F2000D71CB60161507109E881F9810484F585E7
:102F3000E02D9401A501CE011995DF91CF911F914C
:102F40000F91FF90EF90DF90CF90BF90AF909F9048
:102F50008F907F906F9008952F923F924F925F9243
:102F60006F927F928F929F92AF92BF92CF92DF9299
:102F7000EF92FF920F931F93CF93DF9300D000D077
:102F8000CDB7DEB73C016A013E832D83FC82EB8224
:102F90005801A41AB50AB7FE03C0B194A194B108B0
:102FA0008D809E80861A970A97FE03C09194819423
:102FB00091088A149B045CF0902F812F0D811E8153
:102FC0009D838E839C2D8D2D6B01692F782F0C1581
:102FD0001D055CF09D818E817E836D83692F782F26
:102FE000902F812F8601C92ED82E1601201A310A62
:102FF0002B012D813E81421A530A57FE03C0519482
:1030000041945108710137FE03C03FEFE31AF30A00
:10301000F594E7948D819E81861797075CF5A1E072
:10302000B0E0BA83A983C016D1064CF1D301ED916B
:10303000FC910084F185E02D2B813C81A8016D81FC
:103040007E818A149B041CF04D815E81B801C3010E
:103050001995E418F508F7FE0AC02D813E81898193
:103060009A81280F391F3E832D83E20CF31C0F5FDA
:103070001F4FD9CF2FEF3FEF3A832983D4CF269626
:103080000FB6F894DEBF0FBECDBFDF91CF911F9179
:103090000F91FF90EF90DF90CF90BF90AF909F90F7
:1030A0008F907F906F905F904F903F902F900895FA
:1030B000CF92DF92EF92FF920F931F93CF93DF9304
:1030C000EC01CC80DD80EE80FF802A8560E070E03E
:1030D000CB01222359F0E885F985199508811981DA
:1030E0002A813B81601B710B820B930B6C0D7D1D44
:1030F0008E1D9F1DDF91CF911F910F91FF90EF903B
:10310000DF90CF900895CF93DF93EC01D1DF6C83F4
:103110007D838E839F831A86DF91CF9108950895D2
:1031200090E080E008958F929F92AF92BF92CF92ED
:10313000DF92EF92FF92FC01C084D184E284F38499
:1031400060E070E0CB01C114D104E104F104A1F00E
:1031500062817381072E000C880B990B0E948648B0
:103160004B015C01C701B6010E9484489B01AC0180
:10317000C501B4010E94714AFF90EF90DF90CF909B
:10318000BF90AF909F908F900895CF92DF92EF9273
:10319000FF920F931F93CF93DF93FC019B01408518
:1031A000518562857385C484D584E684F7848481DF
:1031B0009581A681B781EC01CC0FDD1F00811181C3
:1031C000C00FD11F4C155D056E057F0528F54F5FBB
:1031D0005F4F6F4F7F4F4087518762877387398377
:1031E000288362817381260F371F338322830196E0
:1031F000A11DB11D8C159D05AE05BF05B0F48483DE
:103200009583A683B783DF91CF911F910F91FF9094
:10321000EF90DF90CF90089542815381688179814A
:10322000461B570B53834283DACF148215821682D2
:103230001782E9CF4F925F926F927F928F929F9207
:10324000AF92BF92CF92DF92EF92FF920F931F93B4
:10325000CF93DF93EC012A013B014A855B856C85A6
:103260007D858E849F84A888B988CE80DF80E8849D
:10327000F9848601000F111F000F111F88819981A9
:10328000080F191F481559056A057B05C0F54F5FE2
:103290005F4F6F4F7F4F4A875B876C877D87F80151
:1032A0004082518262827382A30192016A817B8192
:1032B0008C819D810E940D4A6A837B838C839D83D0
:1032C000FFEFCF1ADF0AEF0AFF0AC814D904EA0495
:1032D000FB0428F5CE82DF82E886F986DF91CF9164
:1032E0001F910F91FF90EF90DF90CF90BF90AF9024
:1032F0009F908F907F906F905F904F900895F8010E
:1033000020813181428153816A817B818C819D81C1
:103310000E940C4A6A837B838C839D83C0CF1E826C
:103320001F8218861986DACFFA01DC018D919C91F3
:1033300020813181281739079CF424813581821737
:10334000930774F4DB012D913C9182819381821764
:10335000930734F481E046815781241735070CF038
:1033600080E00895FC0190E080E050E040E022859C
:103370003385421753070CF077C0A085B185A80F9D
:10338000B91F2D913C91119755963C932E935497CC
:10339000A085B185A80FB91F12962D913C91139766
:1033A00057963C932E935697A085B185A80FB91FC9
:1033B0002D913C91119716966D917C911797260F40
:1033C000371F59963C932E935897A085B185A80F27
:1033D000B91F12962D913C91139714966D917C9183
:1033E0001597260F371F5B963C932E935A97A0850F
:1033F000B185A80FB91F2D913C91119716966D912B
:103400007C911797260F371F6481758162177307A8
:1034100014F43583248312962D913C9113971496BE
:103420006D917C911597260F371F66817781621702
:10343000730714F4378326832D913C911197608193
:1034400071812617370714F43183208312962D914A
:103450003C91628173812617370714F433832283EA
:103460004F5F5F4F4C9683CF08958091B60990913E
:10347000B7099C012B7F2230310539F481E090E0BF
:103480009093B5098093B40908958730910519F098
:103490000397029798F708954F925F926F927F92E9
:1034A0008F929F92AF92BF92CF92DF92EF92FF9254
:1034B00097FF02C090E080E0BC01990F880B990B48
:1034C0000E9486486B017C0140905F025090600230
:1034D0006090610270906202A30192010E94804894
:1034E000181644F120912311309124114091251197
:1034F00050912611C701B6010E94714A9B01AC018F
:1035000060E070E080E793E40E940C4A0E94D94A90
:1035100077FF02C061E070E0CB01FF90EF90DF9099
:10352000CF90BF90AF909F908F907F906F905F9063
:103530004F9008958090570290905802A0905902A1
:10354000B0905A02A5019401C701B6010E948048BB
:1035500018162CF120915B0230915C0240915D02C3
:1035600050915E0260E070E080E793E40E940C4AB4
:103570004B015C01A3019201C701B6010E940C4AF4
:1035800020911F1130912011409121115091221151
:103590000E94714A9B01AC01C501B401B5CF2091D5
:1035A000530230915402409155025091560260E00E
:1035B00070E080E793E40E940C4A2B013C01A501D6
:1035C0009401C701B6010E940C4A20911B11309151
:1035D0001C1140911D1150911E110E94714A9B01B6
:1035E000AC01C301B20190CFAF92BF92CF92DF92F4
:1035F000EF92FF920F931F93CF93DF936C018B0198
:103600005A01EB01CC0FDD1FCE018451914F7C019B
:103610006091F40E7091F50E8091F60E9091F70E78
:103620000E94864820E030E0A9010E94E5480E94FF
:10363000DE4AF70171836083CE018C51914F7C018A
:1036400080EF90E01C141D0414F4C60125DFF7017F
:1036500091838083C452D14FB982A8820130110571
:1036600071F4ECE5FCE0ACEDB9E08FEF9FEF8193F6
:1036700091938D939D932EE0EC3DF207C1F7DF917E
:10368000CF911F910F91FF90EF90DF90CF90BF905F
:10369000AF9008952F923F924F925F926F927F92D8
:1036A0008F929F92AF92BF92CF92DF92EF92FF9252
:1036B0000F931F93CF93DF93EC011B016A01290144
:1036C00039018FEF681A780A4B018FEF881A980A30
:1036D000780183019A01A401BE018BE391E13CDCF6
:1036E0008FEFC81AD80A21969601A401BE018BE378
:1036F00091E132DC82019601A101BE018BE391E1EF
:103700002BDCDF91CF911F910F91FF90EF90DF9015
:10371000CF90BF90AF909F908F907F906F905F9071
:103720004F903F902F9008952F923F924F925F922B
:103730006F927F928F929F92AF92BF92CF92DF92C1
:10374000EF92FF920F931F93CF93DF93CDB7DEB726
:1037500060970FB6F894DEBF0FBECDBF4B015C0182
:103760007A013E872D87188B0F876091F40E709138
:10377000F50E8091F60E9091F70E0E948648A501F5
:1037800094010E94E5480E94DE4A2B017A876987EE
:10379000C70182DE9C838B83ED85FE85EE0FFF1FC4
:1037A000E452F14FC080D18058864F829801220F99
:1037B000331F2F5F3F4FAC01401B510B8601B201FD
:1037C0008BE391E10E94B21381E090E01C01EF8550
:1037D000F8892E1A3F0ACF019195819591099C0194
:1037E000220F331F3E832D8388248394912CF12C48
:1037F000E12C37FC0DC04F85588941505109588B39
:103800004F878D819E8102969E838D83280E391E5F
:103810009FEFE91AF90AE2E08E0E911C280C391C80
:10382000AF84B888AA0CBB1CFFEFAF1ABF0A69852A
:103830007A856E0D7F1D860195014B815C818F8598
:103840009889481B590B5A8349838BE391E10E9465
:10385000B213EB81FC81EE19FF09FC87EB87940121
:10386000AF016F8178858F859889680F791F8BE309
:1038700091E10E94B21369857A856E197F099501DD
:1038800049815A818BE391E10E94B21394014B85E7
:103890005C856F817885EF85F8896E1B7F0B8BE3E4
:1038A00091E10E94B2132F853889E216F3060CF4D9
:1038B000A0CF8D859E85880F991FFC01E451F14FA3
:1038C000518240828C51914F2B813C81FC0131838C
:1038D000208360960FB6F894DEBF0FBECDBFDF9198
:1038E000CF911F910F91FF90EF90DF90CF90BF90FD
:1038F000AF909F908F907F906F905F904F903F9090
:103900002F9008952F923F924F925F926F927F92E5
:103910008F929F92AF92BF92CF92DF92EF92FF92DF
:103920000F931F93CF93DF936B017C015A014901E1
:103930006091F40E7091F50E8091F60E9091F70E55
:103940000E948648A70196010E94E5480E94DE4A2F
:103950002B01C501A1DD6C01E401CC0FDD1FFE01CF
:10396000E452F14FE080F180CE018C51914F1C0167
:10397000FC0140815181C451D14F68817981860118
:1039800092018BE391E1E8DA59824882F101D18218
:10399000C0828A948928C1F4B6016F5F7F4F00917D
:1039A000DE0E1091DF0E9B01A201C20173DEC20187
:1039B000880F991FFC01E45AF34FD182C082FC01A9
:1039C000E452F64FB182A082DF91CF911F910F9107
:1039D000FF90EF90DF90CF90BF90AF909F908F902F
:1039E0007F906F905F904F903F902F9008954F92EF
:1039F0005F926F927F928F929F92AF92BF92CF927F
:103A0000DF92EF92FF920F931F93CF93DF934FEFCD
:103A10005FEF70E060E08091140290911502E4DDA8
:103A200010921109109212091092130910921409A0
:103A3000C4E1D2E0F12CE12C6E817F8188819981F3
:103A4000681B790B072E000C880B990B0E94864887
:103A50004B015C016A857B85072E000C880B990B56
:103A60000E9486489B01AC01C501B4010E94714AC5
:103A70002B013C016701CC0CDD1CCC0CDD1C01E0F2
:103A800010E08A859B8580179107E4F18FEFE81A93
:103A9000F80A68817981072E000C880B990B0E9427
:103AA00086484B015C01B801012E000C880B990B74
:103AB0000E948648A30192010E94E5489B01AC0147
:103AC000C501B4010E940D4AF801EE0FFF1FEE0F71
:103AD000FF1FEC0DFD1DEF5EF64F60837183828347
:103AE00093830E94D94A4B01B7010F2C000C880B1D
:103AF000990B0E94864830E020E0A40103DF0F5FAD
:103B00001F4FBFCFCE80DF80B7010F2C000C880B7A
:103B1000990B0E94864805E010E030E020E0A60105
:103B200003DE269682E0C233D80709F085CFDF9105
:103B3000CF911F910F91FF90EF90DF90CF90BF90AA
:103B4000AF909F908F907F906F905F904F9008956F
:103B5000FB0101900020E9F73197AF01461B570B9D
:103B6000DC01ED91FC910280F381E02D19948F929C
:103B70009F92AF92BF92EF92FF920F931F93CF93BA
:103B8000DF93CDB7DEB7A1970FB6F894DEBF0FBEB7
:103B9000CDBF7C01FA01CB0119A2223008F42AE042
:103BA0008E010F5D1F4F822E912CB12CA12CBF01D5
:103BB000A50194010E94AF49F901CA016A3004F5D8
:103BC000605DD8016E938D01232B242B252B79F773
:103BD00090E080E0109719F0BD01C701B9DFA19610
:103BE0000FB6F894DEBF0FBECDBFDF91CF911F910E
:103BF0000F91FF90EF90BF90AF909F908F9008959E
:103C0000695CDFCFCF92DF92EF92FF920F931F9309
:103C1000CF93DF936B01770FEE08FF08F7FE1AC012
:103C2000EC016DE20E947D058C0144275527BA0105
:103C30004C195D096E097F092AE0CE0198DF800FDB
:103C4000911FDF91CF911F910F91FF90EF90DF9027
:103C5000CF9008952AE0B701A601DF91CF911F917F
:103C60000F91FF90EF90DF90CF9081CF0F931F9334
:103C7000CF93DF93EC01C6DF8C0161EC72E0CE01E3
:103C800067DF800F911FDF91CF911F910F910895F2
:103C90002F923F924F925F926F927F928F929F925C
:103CA000AF92BF92CF92DF92EF92FF921F93CF938A
:103CB000DF93EC016A017B01722EAB019601CB010F
:103CC000B6010E94504B64EC72E0811126C046019F
:103CD0005701E894B7F82FEF3FEF4FE75FE7C501D3
:103CE000B4010E94504B81110CC02FEF3FEF4FE702
:103CF0005FE7C501B4010E94804868EC72E01816C5
:103D000064F02FEF3FEF4FE75FE4C701B6010E9479
:103D10000A4B1816ACF46CEC72E0CE01DF91CF9137
:103D20001F91FF90EF90DF90CF90BF90AF909F904A
:103D30008F907F906F905F904F903F902F9008CF23
:103D40002FEF3FEF4FE75FECC701B6010E948048BD
:103D500087FDE1CF20E030E0A901C701B6010E9454
:103D60008048312C212C87FF09C06DE2CE010E94D2
:103D70007D051C01F7FAF094F7F8F09410E060E08C
:103D800070E080E09FE3711641F020E030E040E217
:103D900051E40E94714A1F5FF6CFA70196010E946D
:103DA0000D4A2B013C010E94DE4A4B015C012AE0D6
:103DB000BC01A401CE01DBDE7C01E20CF31C11236B
:103DC000B9F1C501B4010E9484489B01AC01C30153
:103DD000B2010E940C4A4B015C016EE2CE010E94CE
:103DE0007D05E80EF91E115018F120E030E040E2A8
:103DF00051E4C501B4010E94E5482B013C010E9439
:103E0000DE4A4B01B12CA12C2AE0B501A401CE0160
:103E1000AEDEE80EF91EC501B4010E9484489B0184
:103E2000AC01C301B2010E940C4A4B015C01DBCF23
:103E3000C701DF91CF911F91FF90EF90DF90CF905E
:103E4000BF90AF909F908F907F906F905F904F90BA
:103E50003F902F9008950F931F93CF93DF93EC0122
:103E600022E016DF8C0161EC72E0CE0171DE800F82
:103E7000911FDF91CF911F910F9108950F931F9381
:103E8000CF93DF93EC010E947D058C0161EC72E021
:103E9000CE015EDE800F911FDF91CF911F910F91B8
:103EA00008950F931F93CF93DF938C01D0E0C0E070
:103EB0006115710511F04CDEEC0161EC72E0C80196
:103EC00047DE8C0F9D1FDF91CF911F910F910895B9
:103ED00060ED72E085E99FE0E4DF8091B6099091A2
:103EE000B709029731F486E090E09093B50980938A
:103EF000B40908952DCECF92DF92EF92FF920F93E7
:103F00001F93CF93DF936C018CE1869FE001879F25
:103F1000D00D1124D6011896ED91FC91EC0FFD1FE8
:103F2000E084F184048115812681378142815381A7
:103F3000608171818BE391E10E942813D60118966C
:103F4000ED91FC91EC0FFD1F0481158126813781D5
:103F50004281538160817181F12CE12C8BE391E1ED
:103F60000E945D17D6011896ED91FC91EC0FFD1F94
:103F70008085918510924C1110924B1190934E11A7
:103F800080934D11BF01665F7F4FDB010D900020D4
:103F9000E9F71197A61BB70B2289338946EF420335
:103FA000C001439F900D112444815581840F951FBA
:103FB00097FD01969595879542815381840F951FB2
:103FC000029653E0220F331F5A95E1F72A9FA00172
:103FD0002B9F500D3A9F500D112426813781241BB1
:103FE000350B3695279540815181240F351F2E5F63
:103FF0003F4F309348112093471190934A1180937B
:1040000049118BE391E1DF91CF911F910F91FF90C7
:10401000EF90DF90CF9045CFEF92FF920F931F93D9
:10402000CF93DF93EC012CE12C9FC0012D9F900DCD
:104030001124E0914B02F0914C02E80FF91F04812A
:1040400015812681378142815381608171818FE1A1
:10405000E82E88EFF82E8BE391E10E9428136AEF97
:1040600070E080E090E00E94A607BE0183E492E049
:10407000DF91CF911F910F91FF90EF903CCF0E9465
:10408000C94CBF92CF92DF92EF92FF920F931F9392
:10409000CF93DF938C01C12CC7E0D0E0EE24E394F2
:1040A000F12C60E0F80180810E9420078FE99FE0F9
:1040B0000197F1F700C00000F801218130E0F9011B
:1040C000E85EF94F8491F901EA53F84FD490F90171
:1040D000EA5DF74FB490BB20A9F081110E94B906A8
:1040E000EB2DF0E0EE0FFF1FEC51FA4FA591B491CC
:1040F000EC91DE2239F0C7010C2E01C0880F0A9422
:10410000EAF7C82A61E0F80180810E9420078FE960
:104110009FE00197F1F700C00000219708F0C1CFA0
:104120008C2DDF91CF911F910F91FF90EF90DF9039
:10413000CF90BF9008950F931F93CF93DF938C017F
:1041400060E0FC0182810E9420078FE99FE00197D7
:10415000F1F700C00000C80194DFC82FD0E0DC2FC9
:10416000CC27C8018EDFC82B61E0F80182810E9454
:10417000200760E070E080EC9FE7C2FD10C083E0A4
:10418000D695C7958A95E1F7BE0190E080E00E9440
:10419000844820E030E040E85EE30E94E54820E00B
:1041A00030E040E151E40E94E54820E030E040EAA0
:1041B00050E40E94714A20E030E040E052E40E9466
:1041C0000D4ADF91CF911F910F9108952EE130E0BC
:1041D000309348112093471110924A1110924911BF
:1041E00022E020934F112FEF3FEF30934C1120939B
:1041F0004B1110924E1110924D118330910509F41C
:1042000047C084F48130910519F10297A9F148E083
:1042100050E066E273E08AE392E00E94D44C6DE2E3
:1042200073E027C08630910509F450C087309105AE
:1042300009F440C0049759F789E0E6EFF2E0AAE3F9
:10424000B2E001900D928A95E1F760E073E011C051
:1042500080E098EF90934E1180934D1188E0EBED44
:10426000F2E0AAE3B2E001900D928A95E1F76BEDDE
:1042700072E08BE391E115CE88E0E4EEF2E0AAE390
:10428000B2E001900D928A95E1F764EE72E0F1CF11
:104290008FE190E090934E1180934D1188E0EDEE08
:1042A000F2E0AAE3B2E001900D928A95E1F76DEE9B
:1042B00072E0DFCF88E0E9E0F3E0AAE3B2E001904A
:1042C0000D928A95E1F765E173E0D3CF88E0EDE1E7
:1042D000F3E0AAE3B2E001900D928A95E1F76DE177
:1042E00073E0C7CF9F938F9386E393E09F938F9361
:1042F0008FE798E09F938F930E94E34C0F900F906D
:104300000F900F900F900F906FE778E08BE391E1A3
:10431000C8CDCF92DF92EF92FF920F931F93CF936E
:10432000DF936B017C0120E030E048EC52E40E9416
:10433000E5480E94D94ACB0164E670E00E94694BCF
:10434000182F092FC701B6010E94D94AEB0120E0BE
:1043500030E0A901C701B6010E94804887FF2AC04A
:10436000812F902F97FF03C09195819591099F937D
:104370008F93DF93CF938CE393E09F938F9388E7A2
:1043800098E09F938F930E94E34C8DB79EB7089659
:104390000FB6F8949EBF0FBE8DBF68E778E08BE341
:1043A00091E1DF91CF911F910F91FF90EF90DF90FE
:1043B000CF9077CD0F931F93DF93CF938BE393E051
:1043C0009F938F9388E798E09F938F930E94E34C8D
:1043D0008DB79EB708960FB6F8949EBF0FBE8DBFDF
:1043E000DCCFCF92DF92EF92FF920F931F93CF9388
:1043F000DF936B017C0120E030E048EC52E40E9446
:10440000E5480E94D94ACB0164E670E00E94694BFE
:10441000182F092FC701B6010E94D94AEB0120E0ED
:1044200030E0A901C701B6010E94804887FF2AC079
:10443000812F902F97FF03C09195819591099F93AC
:104440008F93DF93CF9385E493E09F938F938FE7D0
:1044500098E09F938F930E94E34C8DB79EB7089688
:104460000FB6F8949EBF0FBE8DBF6FE778E08BE369
:1044700091E1DF91CF911F910F91FF90EF90DF902D
:10448000CF900FCD0F931F93DF93CF9384E493E0EE
:104490009F938F938FE798E09F938F930E94E34CB5
:1044A0008DB79EB708960FB6F8949EBF0FBE8DBF0E
:1044B000DCCF2F923F924F925F926F927F928F92BA
:1044C0009F92AF92BF92CF92DF92EF92FF920F93A3
:1044D0001F93CF93DF9383E00E94930E80E090E0E0
:1044E000AFE2B4E480934F0290935002A093510244
:1044F000B09352026091320270913302072E000C89
:10450000880B990B0E9486486B017C01C092570270
:10451000D0925802E0925902F0925A0280E090E064
:10452000A4E3B3E48093530290935402A093550202
:10453000B093560260911A0270911B02072E000C74
:10454000880B990B0E9486484B015C0180925F02A8
:1045500090926002A0926102B092620280E090E0CC
:10456000A4EBB2E480935B0290935C02A0935D02A3
:10457000B0935E029C01AD01C501B4010E94714A75
:104580006093231170932411809325119093261129
:10459000A5019401C701B6010E940C4A20E030E059
:1045A00044EB52E40E94714A60931F1170932011F2
:1045B0008093211190932211A701960160E070E091
:1045C0008FE294E40E940C4A20E030E040E752E49D
:1045D0000E94714A60931B1170931C1180931D11EE
:1045E00090931E1160913402709135026F5F7F4F7E
:1045F000709301026093000280E491E00E94694B95
:104600008B01CB01770FAA0BBB0B8093F40E909319
:10461000F50EA093F60EB093F70E70E060E08BE31A
:1046200091E10E9463128FEF9FEF90934C11809362
:104630004B1110924E1110924D1181E080934F1149
:10464000E801CC0FDD1FC00FD11F20914511309123
:1046500046110FEE1BE750E040E0BE018BE391E115
:104660000E94B2132C97D0934811C0934711C6EE05
:10467000D0E0D0934A11C09349116CE473E08BE30E
:1046800091E10FDC8091F40E9091F50E26E0289FC9
:104690007001299FF00C1124209145113091461191
:1046A00050E040E0B7018BE391E10E94B2138CE04F
:1046B000E81AF108F0924811E0924711D0934A119C
:1046C000C093491161E573E08BE391E1EADB8091EE
:1046D000F40E9091F50E29E0289F7001299FF00CAF
:1046E0001124209145113091461150E040E0B7016E
:1046F0008BE391E10E94B213ECE0EE1AF108F09224
:104700004811E0924711D0934A11C093491166E5D0
:1047100073E08BE391E1C5DBC090F40ED090F50E11
:10472000E090F60EF090F70E209145113091461171
:10473000BCE0BB2EBC9CB001BD9C700D112450E0B0
:1047400040E08BE391E10E94B213F1E0CF1AD1086F
:10475000E108F108BC9CC001BD9C900D1124909310
:10476000481180934711D0934A11C09349116BE5CA
:1047700073E08BE391E195DBE090F40EF090F50EA1
:104780002091451130914611BE9CB001BF9C700D27
:10479000112450E040E08BE391E10E94B2132FE03E
:1047A0002E9DC0012F9D900D11240C9790934811C0
:1047B00080934711D0934A11C093491161E673E089
:1047C0008BE391E16EDB40915F025091600260915A
:1047D00061027091620285E99FE03DDBC4E6D0E0B2
:1047E00012E0A12EB12CC0905F02D0906002E09048
:1047F0006102F0906202BE010D2E000C880B990B35
:104800000E9486482B013C0120E030E040EA51E460
:10481000C701B6010E940C4A9B01AC01C301B20161
:104820000E94804887FF28C0BE0185E99FE01EDA0C
:10483000E0904311F0904411CE010E944C1A0FEE0B
:104840001BE79701AC0170E060E08BE391E10E940F
:104850001414CE010E944C1AB0924811A092471134
:10486000049790934A1180934911BE018BE391E123
:10487000FDD9CC59DF4FB7CFC701B6010E94D94A45
:10488000EB01F2E0AF2EB12CC0905702D09058024D
:10489000E0905902F0905A02BE010D2E000C880BD8
:1048A000990B0E948648A70196010E94804887FFC5
:1048B00023C0E0904311F0904411CE010E944C1AA5
:1048C0000FEE1BE79701AC0170E060E08BE391E134
:1048D0000E941414CE010E944C1AB0924811A0926A
:1048E0004711049790934A1180934911BE018BE3BD
:1048F00091E1BCD96496C8CF20E030E040E251E4B9
:10490000C701B6010E940D4A0E94D94AEB01E2E0BC
:10491000EE2EF12CBE010D2E000C880B990B0E947F
:10492000864820914F02309150024091510250919F
:1049300052020E94804887FF24C0C0904311D0904B
:104940004411CE010E944C1A0FEE1BE79601AC01F8
:1049500070E060E08BE391E10E941414CE010E94AC
:104960004C1AF0924811E0924711049790934A1123
:1049700080934911BE018BE391E178D9CC59DF4F87
:10498000C9CF4FEF5FEF70E060E08091140290912B
:1049900015020E94F41A1092110910921209109235
:1049A000130910921409C4E1D2E072E3272E72E0D9
:1049B000372EF12CE12C6E817F8188819981681BD3
:1049C000790B072E000C880B990B0E9486484B012F
:1049D0005C016A857B85072E000C880B990B0E9471
:1049E00086489B01AC01C501B4010E94714A2B01AC
:1049F0003C016701CC0CDD1CCC0CDD1C01E010E09F
:104A00008A859B8580179107ECF18FEFE81AF80AE9
:104A100068817981072E000C880B990B0E948648CB
:104A20004B015C01B801012E000C880B990B0E9410
:104A30008648A30192010E94E5489B01AC01C50193
:104A4000B4010E940D4AF801EE0FFF1FEE0FFF1F89
:104A5000EC0DFD1DEF5EF64F6083718382839383BF
:104A60000E94D94A4B01B7010F2C000C880B990BFF
:104A70000E94864830E020E0A4010E94821C0F5F63
:104A80001F4FBECFCE80DF80B7010F2C000C880BEC
:104A9000990B0E94864805E010E030E020E0A60176
:104AA0000E94941B26962C163D0609F084CF809117
:104AB00038029091390226E0289FF001299FF00DDD
:104AC0001124EC5EFD4F808191810E944C1A20914F
:104AD00043113091441137FF02C02F5F3F4F35958E
:104AE000279530934811209347110A9790934A11C4
:104AF0008093491164E673E08BE391E1D2D9809110
:104B000038029091390226E0289FF001299FF00D8C
:104B10001124EC5EFD4FC081D181CE010E944C1A60
:104B2000209143113091441137FF02C02F5F3F4F56
:104B300035952795285E3F4F3093481120934711B4
:104B40000A9790934A1180934911BE018BE391E13A
:104B50008DD8C0914311D0914411E0903802F0906B
:104B6000390286E08E9DF0018F9DF00D1124EC5EE0
:104B7000FD4FC080D180C6010E944C1ABE01D7FFF4
:104B800002C06F5F7F4F759567956C5E7F4F0FE139
:104B900010E09E01AC018BE391E10E941414C091DE
:104BA000F40ED091F50E209145113091461137FF4A
:104BB00002C02F5F3F4F35952795CC9EB001CD9E0B
:104BC000700DDC9E700D11240FE110E050E040E00C
:104BD0008BE391E10E94B21320914511309146116F
:104BE00037FF02C02F5F3F4F3595279586E08E9D9A
:104BF000F0018F9DF00D1124EC5EFD4F82819381B9
:104C0000C89FB001C99F700DD89F700D11240FE18E
:104C100010E050E040E08BE391E10E94B21310926B
:104C2000EF0E1092EE0E80EF90E09093E70E8093DF
:104C3000E60EACE5CA2EACE0DA2ED0E0C0E0F6011C
:104C4000008111811016110664F54091E60E509115
:104C5000E70E6091EE0E7091EF0EE0E2EE2EEDEFBA
:104C6000FE2E9E018BE391E10E94AC17F60120819C
:104C700031816091E60E7091E70E00E21DEFAE010A
:104C80008091EE0E9091EF0E0E944A1BD093EF0E92
:104C9000C093EE0EF601808191819093E70E809390
:104CA000E60E2196F2E0CF0ED11CC03481E0D80789
:104CB00031F685E090E090934E0280934D02809112
:104CC0004B0290914C02892B09F091C08CE890E046
:104CD0000E94A44BEC0190934C0280934B0282E81B
:104CE00090E0998388831B821A8249E1C42ED12CDB
:104CF000DD82CC8253E2E52EF12CFF82EE8280EE43
:104D000097E09987888769E673E0CE010A960E944A
:104D1000CD4C01E010E01B8B0A8B85EA90E09D8F63
:104D20008C8F1F8E1E8ED9A2C8A2FBA2EAA280E0A1
:104D300098EF9DA38CA36EE673E0CE0186960E9449
:104D4000CD4C1FA70EA788EC90E099AF88AF1BAEA3
:104D50001AAEDDAECCAEFFAEEEAEFE01E05CFF4FB4
:104D60008FE190E09183808368E173E0CE018E5BF8
:104D70009F4F0E94CD4CFE01E65BFF4F11830083E5
:104D80004E01E4E58E0E911C8BEE90E0F4019183D0
:104D9000808313821282D582C482F782E682AA249B
:104DA000AA94BA2CB186A08663E773E0C4010A9680
:104DB0000E94CD4CF401138B028BC059DF4F8EE063
:104DC00091E0998388831B821A82DD82CC82FF82E4
:104DD000EE82B986A88668E773E0CE010A960E9443
:104DE000CD4C1B8B0A8B83E492E00E94B219D0E079
:104DF000C0E080914D0290914E02C817D90734F45B
:104E0000BE0183E492E077D82196F3CF84E090E06E
:104E100090930D0280930C0280910A0290910B02F4
:104E2000892B09F079C080E790E00E94A44BEC0147
:104E300090930B0280930A0287E2A82EBB24B394BE
:104E4000B982A88288EC90E09B838A839EE1C92E78
:104E5000D12CDD82CC8229E1E22EF12CFF82EE8280
:104E600000EE17E0198708876CE773E0CE010A9619
:104E70000E94CD4C66246394712C7B8A6A8ABD8E15
:104E8000AC8E8AEA90E09F8F8E8FD9A2C8A2FBA237
:104E9000EAA21DA30CA36FE773E0CE0186960E94E1
:104EA000CD4C7FA66EA6B9AEA8AE8CE890E09BAFC5
:104EB0008AAFDDAECCAEFFAEEEAEFE01E05CFF4FE2
:104EC0001183008362E873E0CE018E5B9F4F0E94E6
:104ED000CD4CFE01E65BFF4F718260824E01F4E52E
:104EE0008F0E911CF401B182A0828EE690E0938334
:104EF0008283D582C482F782E6821187008765E8C3
:104F000073E0C4010A960E94CD4CF401738A628A50
:104F100082E092E00E94B219D0E0C0E080910C02E1
:104F200090910D02C817D9073CF4BE0182E092E0CF
:104F30000E947B1F2196F2CFDF91CF911F910F919D
:104F4000FF90EF90DF90CF90BF90AF909F908F90A9
:104F50007F906F905F904F903F902F900895FF92B9
:104F60000F931F93CF93DF93EC01F62E08811981E5
:104F7000C8010E949949F81621F06F2DC8010E94BE
:104F8000A149CE01DF91CF911F910F91FF9008951C
:104F9000CF93DF931F921F92CDB7DEB79A83898399
:104FA0006E3F71054CF06E5FCE010196D8DF0F9019
:104FB0000F90DF91CF91089560E0F6CF8F929F928E
:104FC000AF92BF92CF92DF92EF92FF920F931F9317
:104FD000CF93DF938C0168E873E085E99FE00E943E
:104FE0007A1FB80185E99FE00E94361EB801012EA4
:104FF000000C880B990B0E9486486B017C01C4E170
:10500000D2E06C857D85072E000C880B990B0E94E1
:1050100086484B015C0120E030E040E05FE3C701DF
:10502000B6010E94E5489B01AC01C501B4010E9494
:105030000D4A0E94D94A7D876C8785E090E0A8DF01
:105040006A897B89072E000C880B990B0E94864881
:105050004B015C0120E030E040E45FE3C701B601B2
:105060000E94E5489B01AC01C501B4010E940D4AB4
:105070000E94D94A7B8B6A8B86E090E089DF688D3D
:10508000798D600F711F798F688F87E090E080DFE6
:105090006E8D7F8D600F711F7F8F6E8F88E090E027
:1050A00077DF64E670E080E090E0DF91CF911F91C0
:1050B0000F91FF90EF90DF90CF90BF90AF909F90B7
:1050C0008F900C94A6074F925F926F927F928F926F
:1050D0009F92AF92BF92CF92DF92EF92FF920F9387
:1050E0001F93CF93DF931F921F92CDB7DEB78C0132
:1050F0007B01C8010E94E305892B41F1C8010E9490
:10510000D5058B97B9F0C8010E94C105B82E68E992
:1051100073E0C8010E947A1F4B2D50E070E060E000
:105120002AE0C8010E94B71D6AEA73E0C8010E9424
:10513000511FDFCFC8010E94E3050497F4F5F70182
:105140008285811116C0C7010E9402050F900F9041
:10515000DF91CF911F910F91FF90EF90DF90CF9053
:10516000BF90AF909F908F907F906F905F904F9087
:105170000895C7010E945818603D77408105910548
:1051800028F3C7010E94831860EC73E0C8010E94F5
:10519000511FC8010E94C105C8010E94E3051816ED
:1051A0001906A4F6C8010E94D5058B9791F76DEEFC
:1051B00073E0C8010E947A1FC9CFC7010E948318FB
:1051C000C8010E94C105B82EC8010E94C105E82E81
:1051D000C8010E94C105F82EC8010E94C105782EA1
:1051E0002AE0F21639F03DE0F31621F0821711F0B3
:1051F000831303C06FEF73E0DCCF6BE274E085E9EB
:105200009FE00E94511F6B2D85E99FE00E947D0564
:105210006E2D85E99FE00E947D056F2D85E99FE059
:105220000E947D05672D85E99FE00E943E1F89E46D
:10523000E81609F4C0C28E151CF1E4E4EE1609F478
:10524000BAC2F7E4EF1671F121E4E2127FCF34E540
:10525000F31609F496C23F150CF44AC286E4F81618
:1052600009F47BC28F150CF438C2E3E4FE1609F48E
:1052700066C2F5E4FF1609F475C268E076E0AAC0DC
:1052800034E6E31661F03E1524F081E6E816F9F203
:105290005DCFE7E6EE1631F0F9E6EF1257CF66E2A2
:1052A00076E098C024E4F21609F4DCC12F1574F0FE
:1052B00032E4F31609F4C7C13F150CF467C181E469
:1052C000F81609F49AC063E775E084C0E2E6FE16BA
:1052D00009F4B1C1EF150CF481C0F1E6FF12F3CF70
:1052E00062E374E0C8010E947A1F6AE378E0C801B3
:1052F0000E947A1F6AE374E0C8010E947A1F6AE381
:1053000078E0C8010E947A1F68E474E0C8010E9436
:105310007A1F6AE378E0C8010E947A1F67E574E0AB
:10532000C8010E947A1F6AE378E0C8010E947A1FD0
:105330006DE674E0C8010E947A1F6AE378E0C80154
:105340000E947A1F67E774E0C8010E947A1F6AE32F
:1053500078E0C8010E947A1F60E874E0C8010E94EA
:105360007A1F6AE378E0C8010E947A1F68E874E057
:10537000C8010E947A1F6AE378E0C8010E947A1F80
:1053800065E974E0C8010E947A1F6AE378E0C80109
:105390000E947A1F64EA74E0C8010E947A1F6AE3DF
:1053A00078E0C8010E947A1F63EB74E0C8010E9494
:1053B0007A1F6AE378E0C8010E947A1F6AEB74E002
:1053C000C8010E947A1F6AE378E0C8010E947A1F30
:1053D00062EC74E0C8010E94511FB8CE23E6F216B9
:1053E00009F4C7C034E6F3126ECF64E275E0C80179
:1053F0000E947A1F67E275E0EDCF6AEC74E085E900
:105400009FE00E94511F60ED74E0C8010E947A1F66
:105410006AE372E0C8010E947A1F6AE378E0C8017B
:105420000E947A1F6091380270913902C8010E946F
:10543000021E6AE378E0C8010E947A1F4091D609F3
:105440005091D7096091D8097091D90922E0C8011B
:105450000E94481E6AE378E0C8010E947A1F88E82B
:1054600090E10E949318AB01BC0122E0C8010E94A8
:10547000481E6AE378E0C8010E947A1F6091D4094F
:105480007091D509C8010E94021E6AE378E0C80144
:105490000E947A1F6091D2097091D309C8010E94BD
:1054A000021E6AE378E0C8010E947A1F6091D00969
:1054B0007091D109C8010E94021E6AE378E0C80118
:1054C0000E947A1F4091CC095091CD096091CE097C
:1054D0007091CF0922E0C8010E94481E6AE378E07B
:1054E000C8010E947A1F4091C8095091C909609172
:1054F000CA097091CB0922E0C8010E94481E6AE3E4
:1055000078E0C8010E947A1F4091C4095091C509F2
:105510006091C6097091C70922E0C8010E94481E27
:105520006AE378E0C8010E947A1F6091C209709115
:10553000C309C8010E94021E6AE378E0C8010E9404
:105540007A1F6091C0097091C109C8010E94021EB2
:105550006AE378E0C8010E947A1F4091BC0950912B
:10556000BD096091BE097091BF09C8010E942B1F3F
:10557000EDCD63ED74E0C8010E947A1F66ED74E022
:10558000C8010E947A1F69EE74E013CE6EE775E0E1
:10559000C8010E947A1F6CEDA62E69E0B62EF12C90
:1055A000E12CF5018081918118161906ACF51C14C7
:1055B0001D042CF465EF74E0C8010E947A1FFFEF10
:1055C000CF1ADF0AB7010F2C000C880B990B0E9431
:1055D00086482B013C016091F40E7091F50E80918C
:1055E000F60E9091F70E0E9486489B01AC01C30114
:1055F000B2010E94714AAB01BC0122E0C8010E94C5
:10560000481E6AE378E0C8010E947A1FF5016081B4
:105610007181C8010E94021EF3E0EF0EF11C26E02A
:10562000A20EB11C31E4E31631E0F30609F0B9CF64
:1056300063EC72E0CFCE67EF74E0C8010E947A1F7E
:105640006AEF74E0C7CE6CE175E085E99FE00E94E7
:105650007A1F61E275E0C8010E947A1FC8010E94AA
:10566000274874CD60E775E0C8010E947A1F54E1B5
:10567000C52E52E0D52EF12CE12CB701C8010E94B5
:10568000021E6AE378E0C8010E947A1FF601628177
:105690007381C8010E94021E6AE378E0C8010E947B
:1056A0007A1FF60160817181C8010E94021E63ECBD
:1056B00072E0C8010E94511FFFEFEF1AFF0A26E0B7
:1056C000E216F10409F442CD65EF74E0C8010E94CE
:1056D0007A1F86E0C80ED11CD0CF22E5F216C1F1A8
:1056E00033E5F312CACD0E94351A64EC75E072CE30
:1056F00086E665EA75E0F81609F46CCE8F156CF055
:10570000E3E661E875E0FE1609F464CEF5E669ECBF
:1057100075E0FF1609F45ECEB0CD23E766EB75E0C9
:10572000F21609F457CE34E76AED75E0F31609F482
:1057300051CE82E7F812A1CD62E975E04BCE10920E
:10574000B8091092B9091092BA091092BB09FECC9F
:105750000E94592260EA75E03DCE0E94681F61EB0D
:1057600075E038CE8091B6099091B709029731F073
:1057700082E090E09093B5098093B40965ED75E0FF
:1057800029CE61EF75E085E99FE00E94511F80916D
:10579000380290913902049759F485E090E0909393
:1057A0003902809338020E94592263E076E012CEDB
:1057B00084E090E0F4CF872D072C000C990B6C014E
:1057C000E0E3CE1AD108FAE0CF16D10450F061E63A
:1057D00076E0C8010E947A1F672DC8010E943E1F13
:1057E000B5CC24E4E21205C060E370E06B01C81A96
:1057F000D90A6F2D85E99FE00E943E1F33E5F3161D
:1058000009F40AC13F150CF4BEC081E4F81609F48E
:10581000EFC08F150CF46CC08FEC8F0D853008F045
:1058200095CCAF2C0F2C000CBB0830E3A31AB108A9
:10583000B50185E99FE00E94021E63E373E085E9FC
:105840009FE00E947A1F26E02A9DC0012B9D900DAB
:105850001124FC01EC5EFD4F4F016081718185E9EF
:105860009FE00E94021E67E077E085E99FE00E94CA
:105870007A1FF401608171816C0D7D1D71836083DD
:1058800085E99FE00E94361EF401808191818E3F60
:10589000910524F48FEF90E09183808386E08A9DC8
:1058A000F0018B9DF00D1124EC5EFD4F6081718144
:1058B000F501EE0FFF1FEB58FD4F8081918168DBF2
:1058C00064E670E080E090E00E94A6076E2DC801BB
:1058D0000E947D056F2DC8010E947D05672DC801BE
:1058E0000E947D05C8010E9427480E94F71C2ECC0B
:1058F000E7E4FE1609F4B1C0F9E4FF1227CCB601C3
:10590000DD0C880B990B0E94864820E030E040EACD
:1059100051E40E94714A209110023091110240918D
:105920001202509113020E940D4A4B015C018092B9
:10593000100290921102A0921202B092130264E639
:1059400070E080E090E00E94A6071A82198220E0B1
:1059500030E048EC52E4C501B4010E94E5480E94E1
:10596000D94ACE010196FBDA6E2DC8010E947D0551
:1059700069E4C8010E947D05672DC8010E947D056C
:1059800067ED75E016CC27E6F21609F463C02F1513
:105990008CF034E5F31609F49AC081E668E976E004
:1059A000F812D4CBC8010E947A1FB601C8010E9428
:1059B000361ECCCBE3E7FE1661F1F4E7FF1609F4DF
:1059C00069C029E6F212C2CB6CEA76E0C8010E94F7
:1059D0007A1FB601DD0C880B990B0E94864820E0E7
:1059E00030E040E251E40E94714AAB01BC01BDCD00
:1059F000C601E4DA0E94F71C6E2DC8010E947D05E5
:105A000061E4C8010E947D05672DC8010E947D05E3
:105A100025CE6DEB76E0DACF4601DD0CAA08BB0897
:105A20008091B8099091B909A091BA09B091BB09C8
:105A3000880E991EAA1EBB1E8092B8099092B909C1
:105A4000A092BA09B092BB096E2DC8010E947D05D3
:105A500063E58FCF61ED76E0A5CF60910E02709186
:105A60000F026C0D7D1D70930F0260930E0282E099
:105A700090E09A838983CE01019671DA64E670E042
:105A800080E090E00E94A6076E2DC8010E947D056F
:105A900067E46FCF6EED76E0C8010E947A1FB60111
:105AA000D7FE04C0662777276C197D09C8010E94BC
:105AB000021E68EB76E0C8010E947A1F64EF76E070
:105AC0001C141D040CF486CC67EF76E083CC5601E1
:105AD000D7FE04C0AA24BB24AC18BD08C501019799
