:020000040000FA
:100000000C94A0400C94D1400C94D1400C94D1405D
:100010000C94D1400C94D1400C94D1400C94D1401C
:100020000C94D1400C94D1400C94D1400C94D1400C
:100030000C94D1400C94D1400C94D1400C94D140FC
:100040000C94D1400C94D1400C94D1400C94D140EC
:100050000C94D1400C94D1400C94D1400C94A78EB8
:100060000C94D1400C941B8F0C94F18E0C94D140C5
:100070000C94D1400C94D1400C94D1400C94D140BC
:100080000C94D1400C94D1400C94D1400C94D140AC
:100090000C94D1400C94D1400C94D1400C94518FCD
:1000A0000C94D1400C94D1400C94D1400C94D1408C
:1000B0000C94D1400C94D1400C94D1400C94D1407C
:1000C0000C94D1400C94D1400C94D1400C94D1406C
:1000D0000C94D1400C94D1400C94D1400C94D1405C
:1000E0000C94D14005A84CCDB2D44EB93836A902F3
:1000F0000C50B9918688083CA6AAAA2ABE00000026
:10010000803F0C94DEA80C94AB4E0C94AB4D0C9439
:1001100093A90C94B34E0C944E510C949EA20C9443
:10012000E6430C94BD4E0C9470510C94F59D0C94C8
:100130007FA40C94D3990C9456A10C94E04E0C948B
:10014000854E0C9417810C942CA10C94F0A80C945F
:1001500086990C94ABA10C9407A80C94EC990C9480
:10016000F8970C94D3510C942D8B0C9428500C942C
:100170002B440C94C1A40C94804E0C94BD9D0C9403
:10018000D59D0C94864D0C94E1A80C94824D0C9452
:100190001BA20C944D510C94F6890C948D4F0C9429
:1001A000AF4D0C94849D0C94F8400C94994D0C9494
:1001B0008F4D0C94B04F0C947BA20C94F04F0C9488
:1001C0001D9D0C94F8A10C94934D0C943C440C94FC
:1001D000EA4E0C94C5A10C94994E0C949C4F0C942F
:1001E0005C9D0C948D8C0C94A34E0C944B510C94F0
:1001F0007E4D0C946A440C94A14D0C94D5430C9400
:1002000075900C94B54D0C94124F0C94FE4E0C94BA
:10021000604F0C94059A0C9494500C94B94D0C9426
:10022000784E0C945C990C94744D0C9416890C9433
:100230005D510C94A8990C94084F0C944C510C945B
:1002400004410C9448A20C940E9E0C941E9A0C949B
:100250007A4D0C940CA80C9450440C94A4510C941A
:10026000A74D0C9484A80C9499A80C949C8A0C9487
:10027000F44E0C94C74E0C94D14E0C94F88B0C9405
:1002800083860C9477510C9468870C948AA10C9403
:100290007DA80C9406440C94B44D0C948F4E0C9491
:1002A000894D0C949D4D00407A10F35A00A0724E77
:1002B00018090010A5D4E80000E87648170000E40B
:1002C0000B54020000CA9A3B000000E1F505000053
:1002D00080969800000040420F000000A0860100B8
:1002E0000000102700000000E80300000000640088
:1002F000000000000A0000000000010000000000F3
:100300002C76D888DC674F0823DFC1DFAE59E1B116
:10031000B796E5E3E453C63AE651997696E8E6C225
:100320008426EB898C9B62ED407C6FFCEFBC9C9F2C
:1003300040F2BAA56FA5F490055A2AF75C936B6C4E
:10034000F9676DC11BFCE0E40D47FEF520E6B50042
:10035000D0ED902E0300943577050080841E0800B0
:1003600000204E0A000000C80C333333330F986E60
:1003700012831141EF8D2114893BE65516CFFEE61D
:10038000DB18D1844B381BF77C1D901DA4BBE424E3
:10039000203284725E228100C9F124ECA1E53D2760
:1003A0005265736574696E672076616C756573203C
:1003B00066726F6D2044656661756C7456616C750C
:1003C00065732E680031386D696E0031356D696E68
:1003D0000031326D696E00396D696E00366D696E7F
:1003E00000336D696E004D656D3A00436F6F6C426E
:1003F000757273743A00436F6F6C64776E54203A71
:1004000000546F6F486F7454656D703A0046204415
:1004100065723A004620496E74657267616C3A00F5
:1004200046204761696E2020203A004673702031D3
:10043000346D3A004673702031316D3A0046737066
:100440002020376D3A004673702020306D3A0054FA
:1004500020496E74657267616C3A00542047616987
:100460006E2020203A00436F6E6669677572617472
:10047000696F6E7300466C6F773A00462053503AAE
:100480000046616E253A00416363546B3A00457241
:1004900072203A0073703A00507772253A00546522
:1004A0006D703A0054696D653A001010205F0000CD
:1004B000000000000000000000000000000000003C
:1004C000000000000000000000000000000000002C
:1004D000000002000200020002000200020002000E
:1004E0000200020002000000020000000000000004
:1004F00000000240024002400240000000000000F4
:1005000000000000000000000000000000000000EB
:10051000000002400240048004803FE004800900A3
:1005200009003FE009001200120000000000000076
:10053000010003C00520092009000900070001C0CF
:100540000120012009200540038001000000000077
:1005500000001C102220222022402240229C1CA2AB
:100560000122022202220422041C000000000000DA
:10057000000001C00220022002200140038004800C
:10058000084808500820043003C80000000000009C
:10059000000000800080008000800000000000005B
:1005A000000000000000000000000000000000004B
:1005B0000100020002000400040004000400040022
:1005C000040004000200020001000000000000001E
:1005D0000200010001000080008000800080008097
:1005E0000080008001000100020000000000000007
:1005F0000000000000000180018009901FF803E066
:1006000003C006600620000000000000000000009B
:10061000000000000000000000800080008007F063
:10062000008000800080000000000000000000004A
:1006300000000000000000000000000000000000BA
:10064000000000000080008000800000000000002A
:10065000000000000000000000000000000007C0D3
:10066000000000000000000000000000000000008A
:10067000000000000000000000000000000000007A
:1006800000000000000000800000000000000000EA
:1006900000000020004000400040008000800080FA
:1006A0000100010001000200020000000000000043
:1006B00000000380044008200820082008200820AB
:1006C00008200820082004400380000000000000EB
:1006D0000000004000C001400240004000400040D7
:1006E00000400040004000400040000000000000CA
:1006F000000003C00440082000200020004000400B
:1007000000800100020004000FE000000000000073
:100710000000038004400840004000800380004047
:100720000020002008200C40038000000000000092
:100730000000004000C0014001400240024004406F
:1007400008400FF0004000400040000000000000A2
:10075000000001F801000100020003E0021000089F
:10076000000800080208011000E00000000000007E
:10077000000003800460082008000B800C40082063
:10078000082008200820044003800000000000002A
:10079000000003F80010001000200020004000407E
:1007A0000040004000800080008000000000000049
:1007B000000000E0011002080208011000E0011032
:1007C000020802080208011000E00000000000001A
:1007D000000003800440082008200820082004604E
:1007E00003A0002008200440078000000000000053
:1007F0000000000000800000000000000000000079
:100800000000000000800000000000000000000068
:100810000000000000800000000000000000000058
:100820000000000000800080008000000000000048
:1008300000000000001000600180060008000600B3
:1008400001800060001000000000000000000000B7
:1008500000000000000000000FF000000000000099
:100860000FF0000000000000000000000000000089
:10087000000000000400030000C000300008003049
:1008800000C00300040000000000000000000000A1
:100890000000038004400820082000200040008061
:1008A0000100010001000000010000000000000044
:1008B00003C00C301010134824C8288828882890BA
:1008C00027E01008083007C000000000000000000A
:1008D000000001000280028004400440044008201F
:1008E0000FE0101010102008200800000000000089
:1008F00000000FE008100808080808100FF00810A2
:1009000008080808080808100FE0000000000000B0
:10091000000003E004100808100010001000100090
:10092000100010000808041003E0000000000000A0
:1009300000001FC010201010100810081008100828
:1009400010081008101010201FC000000000000048
:1009500000000FF808000800080008000FF0080069
:1009600008000800080008000FF800000000000060
:1009700000000FF008000800080008000FE0080061
:10098000080008000800080008000000000000003F
:10099000000001E002100408080008000800087CBC
:1009A000080408040408021001E000000000000030
:1009B0000000080808080808080808080FF80808D0
:1009C00008080808080808080808000000000000D7
:1009D0000000008000800080008000800080008097
:1009E0000080008000800080008000000000000087
:1009F0000000002000200020002000200020002017
:100A000000200820082004400780000000000000AB
:100A100000000808081008200840088009800A40E3
:100A20000C20082008100810080800000000000032
:100A3000000008000800080008000800080008007E
:100A400008000800080008000FE000000000000097
:100A50000000200830183018282828282448244866
:100A60002488228822882108210800000000000034
:100A7000000008080C080A080A08090808880888FD
:100A80000848082808280818080800000000000086
:100A9000000003C0042008101008100810081008F7
:100AA000100810080810042003C000000000000017
:100AB00000000FE0081008080808080808100FE0F8
:100AC00008000800080008000800000000000000FE
:100AD000000003C0042008101008100810081008B7
:100AE0001008100808D8043003D8000000000000E7
:100AF00000000FE0081008080808080808100FE0B8
:100B00000840082008200810080800000000000025
:100B1000000003E0041008080800040003800070CF
:100B2000000808080808041003E0000000000000A6
:100B300000000FF8008000800080008000800080AE
:100B40000080008000800080008000000000000025
:100B50000000080808080808080808080808080825
:100B6000080808080808041003E00000000000005E
:100B700000000808080804100410041002200220D5
:100B800002200140014000800080000000000000C1
:100B900000002082218211441144114411440A288A
:100BA0000A280A280A280410041000000000000087
:100BB0000000101008200440044002800100028060
:100BC000044004400820101020080000000000002D
:100BD00000000808041004100220014001400080B9
:100BE0000080008000800080008000000000000085
:100BF000000007F800100020002000400080008066
:100C000001000200020004000FF8000000000000D4
:100C10000380020002000200020002000200020043
:100C20000200020002000200020003800000000037
:100C3000000002000100010001000080008000802F
:100C400000400040004000200020000000000000A4
:100C50000380008000800080008000800080008091
:100C60000080008000800080008003800000000081
:100C7000010002800280044004400440082000007B
:100C80000000000000000000000000000000000064
:100C90000000000000000000000000000000000054
:100CA00000000000000000000000FFFF0000000046
:100CB00000000100008000000000000000000000B3
:100CC0000000000000000000000000000000000024
:100CD00000000000000003C00420082000E00720FE
:100CE00008200820086007A00000000000000000A5
:100CF0000800080008000B800C400820082008208D
:100D0000082008200C400B800000000000000000BC
:100D100000000000000003800440082008000800D4
:100D200008000820044003800000000000000000CC
:100D300000200020002003A00460082008200820D4
:100D400008200820046003A000000000000000004C
:100D500000000000000003800440082008200FE08D
:100D6000080008200440038000000000000000008C
:100D700000C00100010003C00100010001000100EA
:100D8000010001000100010000000000000000005F
:100D90000000000003A004600820082008200820AC
:100DA0000820046003A00020084007800000000025
:100DB0000800080008000BC00C20082008200820AC
:100DC0000820082008200820000000000000000083
:100DD000000001000000000001000100010001000E
:100DE00001000100010001000000000000000000FF
:100DF0000000008000000000008000800080008073
:100E000000800080008000800080008003000000DF
:100E10000400040004000410042004400480058041
:100E20000640042004200410000000000000000020
:100E300000800080008000800080008000800080B2
:100E400000800080008000800000000000000000A2
:100E50000000000000002E703188210821082108C0
:100E600021082108210821080000000000000000DE
:100E70000000000000000BC00C2008200820082003
:100E800008200820082008200000000000000000C2
:100E90000000000000000380044008200820082013
:100EA000082008200440038000000000000000002B
:100EB0000000000000000B800C40082008200820E3
:100EC000082008200C400B800800080008000000E3
:100ED00000000000000003A0046008200820082093
:100EE00008200820046003A000200020002000004B
:100EF00000000000000002E0030002000200020007
:100F000002000200020002000000000000000000D9
:100F100000000000000003C004200400040003C01F
:100F200000200020042003C000000000000000009A
:100F300001000100010003C00100010001000100E7
:100F400001000100010001C00000000000000000DD
:100F500000000000000008200820082008200820C9
:100F600008200820086007A0000000000000000022
:100F70000000000000000820082004400440044055
:100F8000028002800100010000000000000000005B
:100F90000000000000002108210812901290145057
:100FA0001450145008200820000000000000000029
:100FB00000000000000008200440028002800100C0
:100FC00002800280044008200000000000000000B1
:100FD0000000000000000820082008200440044011
:100FE00004C0028002800100010002000C00000029
:100FF00000000000000007F00020004000400080DA
:1010000001000100020007F000000000000000C025
:1010100001000100010001000100010006000100C3
:101020000100010001000100010000C0000000807B
:1010300000800080008000800080008000800080B0
:10104000008000800080008000800080008003001D
:1010500000800080008000800080008000600080B0
:1010600000800080008000800080030000000000FD
:101070000000078808F000000000000000000000E9
:101080000000000000000000000000000000183018
:10109000205F0000000000000000000000000000D1
:1010A0000000000000000000000000000000000040
:1010B0000000000000000000000000000000000030
:1010C0000000000000000000000000000000000020
:1010D0000000000000000000000000000000000010
:1010E0000000000000000000000000000000000000
:1010F00000000000000000000000000000000000F0
:1011000000000000000000000000000000000000DF
:1011100000000000000000000000000000000000CF
:101120000000000000000000000000000000001EA1
:1011300000001E00001E00001E00001E00001E0019
:10114000001E00001E00001E00001E00001E000009
:101150001E00001E00001E00001E00001E00001EDB
:1011600000001E00001E00001E00001E00001E00E9
:10117000001C00001C00001C00000000000000001B
:101180000000000000000000000000000000003E21
:1011900000003E00003E00003E00003E00003E0019
:1011A000000000000000000000000000000000003F
:1011B000000000000000000000000000E07001E0FE
:1011C000F001E0F001C0E003C1E003C1E007C3E0CB
:1011D00007C3E007C3E00F87C00F87C00F87C00FAA
:1011E00087C00F87C00F87C000000000000000000C
:1011F00000000000000000000000000000000000EF
:1012000000000000000000000000000000000000DE
:1012100000000000000000000000000000000000CE
:1012200000000000000000000000000000000000BE
:1012300000000000000000000000000000000000AE
:10124000000000000000000000000000000000009E
:10125000000038380038380038380078780078785E
:1012600000707000707000707000F0F01FFFFF1FC2
:10127000FFFF1FFFFF1FFFFF00E0E001E1E001E1D2
:10128000C001C1C001C1C001C1C003C3C003C3804C
:101290000383807FFFF8FFFFFCFFFFFCFFFFFCFFE5
:1012A000FFF80707000707000F0F000F0F000E0ED3
:1012B000000E0E000E0E001E1E001E1E001C1C0046
:1012C000000000000000000000000000000000001E
:1012D0000000000C00000C00000C00000C00000CD2
:1012E00000000C00003F0001FFF003FFF007FFF0DB
:1012F00007CC700F8C100F0C000F0C000E0C000EA2
:101300000C000F0C000F0C000F8C000FCC0007FC22
:101310000003FF8001FFC000FFF0001FF0000DF888
:10132000000C78000C3C000C3C000C3C000C3C0019
:101330000C3C000C3C080C3C0C0C780F8CF80FFF9C
:10134000F00FFFE003FFC000FF00000C00000C00E6
:10135000000C00000C00000C00000C00000C000051
:101360000C00000000000000000000000000000071
:10137000000000000FC0001FE0003FF0003CF00044
:10138000787800703800703800E03800E03800707D
:1013900038007038007878063FF01E3FF07E1FE17D
:1013A000FC0F87F0001FC0007F0001FC0007F00069
:1013B0000FC1F07F07F87E0FFC780F3C601E0E0017
:1013C0001C0E001C06001C07001C07001C07001C4C
:1013D0000E001E0E000F3E000FFC0007F80003F089
:1013E00000000000000000000000000000000000FD
:1013F0000000000000000000000000003C0000FFB2
:101400008001FF8003FF8007FF8007C08007800006
:101410000780000780000780000780000780000722
:10142000800003C00003C00001E00003E00007F0FB
:10143000000FF0000F78001E7C0F3E3C0F3C1E0F8B
:101440003C1E0F780F0E780F0E78078E78078E7877
:1014500003CE7803FC7C01FC7C01FC3C00F83E00E0
:10146000F81F01F81FC7FC0FFFFE07FF9E03FF1FB9
:1014700000FC000000000000000000000000000070
:101480000000000000000000000000000F00000F3E
:1014900000000E00001E00001E00003E00003E0086
:1014A000003C00007C00007C00007C00007C000010
:1014B0007C00007C00007C000000000000000000B8
:1014C000000000000000000000000000000000001C
:1014D000000000000000000000000000000000000C
:1014E00000000000000000000000000000000000FC
:1014F00000000000000000000000000000000000EC
:1015000000000000000000000000000000000000DB
:101510000000000380000780000700000F00000E9D
:1015200000001E00001E00001C00003C00003C00EB
:101530000038000078000078000078000078000093
:10154000700000F00000F00000F00000F00000F07B
:101550000000F00000F00000F00000F00000F000DB
:1015600000F00000F00000F00000F00000F00000CB
:1015700070000078000078000078000078000038E3
:1015800000003C00003C00001C00001E00001E008B
:10159000000E00000F00000700000780000300009D
:1015A000000001C00001E00000E00000F000007059
:1015B00000007800007800003800003C00003C008B
:1015C000003C00001E00001E00001E00001E000067
:1015D0000E00000F00000F00000F00000F00000FB2
:1015E00000000F00000F00000F00000F00000F00B0
:1015F000000F00000F00000F00000F00000F0000A0
:101600000E00001E00001E00001E00001E00003C18
:1016100000003C00003C000038000078000078002A
:1016200000700000F00000E00001E00001C00000D8
:1016300000000000000000000000000000000000AA
:1016400000000000000000000000000000001C007E
:10165000001C00001C00001C00001C00001C0438C2
:101660001C0E3C1C1E7E1C7E1F1CFC0FDDF003FFAD
:10167000E001FFC0007F00003E0000FF0001FFC04E
:1016800007FFE00F9DF81F1CFC7E1C3E3C1C1E301B
:101690001C0E001C00001C00001C00001C00001C94
:1016A00000001C000000000000000000000000001E
:1016B000000000000000000000000000000000002A
:1016C000000000000000000000000000000000001A
:1016D00000000000000000000000000000000C00FE
:1016E000001C00001C00001C00001C00001C00006E
:1016F0001C00001C00001C00001C00001C00001E40
:10170000003FFFFE3FFFFE3FFFFE3FFFFE001E00CB
:10171000001C00001C00001C00001C00001C00003D
:101720001C00001C00001C00001C00001C0000002D
:1017300000000000000000000000000000000000A9
:101740000000000000000000000000000000000099
:101750000000000000000000000000000000000089
:101760000000000000000000000000000000000079
:101770000000000000000000000000000000000069
:101780000000000000000000000000000000000059
:101790000000000000000000000000000000000049
:1017A000000000000000000000000000007E0000BB
:1017B0007E00007E00007E00007E00007E00007E35
:1017C00000007E0000FC0000FC0000FC0000F800AF
:1017D00000F80001F00001F00001F00001E000015C
:1017E000E000000000000000000000000000000019
:1017F00000000000000000000000000000000000E9
:1018000000000000000000000000000000000000D8
:1018100000000000000000000000000000000000C8
:10182000003FFFFE3FFFFE3FFFFE3FFFFE1FFFFCAE
:1018300000000000000000000000000000000000A8
:101840000000000000000000000000000000000098
:101850000000000000000000000000000000000088
:101860000000000000000000000000000000000078
:101870000000000000000000000000000000000068
:101880000000000000000000000000000000000058
:101890000000000000000000000000000000000048
:1018A0000000000000000000000000000000000038
:1018B0000000000000000000000000000000000028
:1018C0000000000000000000000000000000000018
:1018D000000000FE0000FE0000FE0000FE0000FE12
:1018E0000000FE0000FE0000FE0000FE0000FE0002
:1018F00000000000000000000000000000000000E8
:1019000000000000000000000000000000000000D7
:101910000000000000003C0000780000780000F0AB
:101920000000F00001F00001E00003E00003C0004F
:1019300003C0000780000780000F00000F00001F99
:1019400000001E00001E00003C00003C00007C0067
:1019500000780000780000F00000F00001E00001D5
:10196000E00003E00003C00003C000078000078020
:10197000000F00000F00001F00001E00003E0000CE
:101980000000000000000000000000000000000057
:101990000000000000000000000000001800007FB0
:1019A0000001FF8003FFC003FFE007C3E00781F0F1
:1019B0000F80F00F00F00F01F80F01F81F01F81E63
:1019C00003F81E03F81E073C1E077C1E0E3C1E0E6D
:1019D0003C1E1C3C1E1C3C1E3C3C1E383C1E783CE5
:1019E0001E703C1EF07C1EE07C1FE0781FC0781F3C
:1019F000C0781F80780F80780F00F80F00F0078103
:101A0000F007C1F007F7E003FFC001FFC000FF804F
:101A1000003E000000000000000000000000000088
:101A20000000000000000000000000000000001F97
:101A300000003F0000FF0003FF0007FF000FFF0052
:101A40000FCF000F0F000E0F00080F00000F000057
:101A50000F00000F00000F00000F00000F00000F2C
:101A600000000F00000F00000F00000F00000F002B
:101A7000000F00000F00000F00000F00000F00001B
:101A80000F00000F00000F00000F00000F00000FFC
:101A900000001F0007FFFC07FFFC07FFFC07FFFC1F
:101AA0000000000000000000000000000000000036
:101AB0000000000000000000000000007C0003FFA8
:101AC000800FFFE01FFFF01FFFF01F81F81C00F8E0
:101AD00018007C00003C00003C00003C00003C0082
:101AE000003C00003C00003C00007C00007800004E
:101AF000F80000F00001F00003E00003C00007C0A0
:101B0000000F80001F00001E00003E00007C00004F
:101B1000F80001F00001E00003E00007C0000F80C2
:101B2000001F80001FFFFE1FFFFE1FFFFE1FFFFCA8
:101B300000000000000000000000000000000000A5
:101B40000000000000000000000000007C0007FF13
:101B5000000FFFC00FFFE00FFFF00E03F00800F8CA
:101B60000000F8000078000078000078000078009D
:101B700000780000780000F80001F0000FE000FF9E
:101B8000C000FF8000FF8000FFE00003F00001F0D4
:101B90000000F800007800007C00003C00003C00E1
:101BA000003C00003C00003C00007C00007810007D
:101BB000F81C01F81FFFF01FFFE01FFFC00FFF80A0
:101BC00001FE000000000000000000000000000016
:101BD0000000000000000000000000000000000302
:101BE000C00007E00007E0000FE0000FE0001FE08A
:101BF000001FE00039E0003BE00073E00073E0000C
:101C0000F3E000E3E001E3E001C3E003C3E00383AA
:101C1000E00783E00703E00F03E00F03E00E03E0BB
:101C20001E03E01C03E03C03E03FFFFC3FFFFE3FE0
:101C3000FFFE3FFFFC0003E00003E00003E00003C1
:101C4000E00003E00003E00003E00003E00003E045
:101C50000000000000000000000000000000000084
:101C600000000000000000000000000000000FFF66
:101C7000F00FFFF00FFFF00FFFF00FFFF00F00006D
:101C80000F00000F00000F00000F00000F00000FFA
:101C900000000F00000FFF000FFF800FFFE00FFF9D
:101CA000E00F8FF00C01F80000F800007800007CD5
:101CB00000003C00003C00003C00003C00003C00F8
:101CC000003C00003C00003C00007C00007810005C
:101CD000F81C01F01FFFF01FFFE01FFFC00FFF8087
:101CE00003FC0000000000000000000000000000F5
:101CF0000000000000000000000000000F00007F56
:101D0000E000FFF001FFF003FFF003E07007C00008
:101D10000780000F00000F00000F00001E00001ED3
:101D200000001E00001E3F001E7FC01CFFE01DFFC4
:101D3000F01FE1F01F80F81F80781F00781F007CE3
:101D40001F003C1E003C1E003C1E003C1E003C1EB2
:101D5000003C1E003C0F003C0F007C0F00780F8001
:101D6000F807C0F807E3F003FFE001FFE000FFC061
:101D7000003F000000000000000000000000000024
:101D800000000000000000000000000000001FFF35
:101D9000FC1FFFFC1FFFFC1FFFFC1FFFF80000786B
:101DA0000000F80000F00000F00000F00001E0008A
:101DB00001E00001E00003E00003C00003C00007F1
:101DC000C0000780000780000F80000F00000F0098
:101DD000001F00001F00001E00003E00003E00002B
:101DE0003C00003C00007C0000780000780000F817
:101DF0000000F00000F00001F00001E00001E00050
:101E000000000000000000000000000000000000D2
:101E10000000000000000000000000003C0000FF87
:101E20008003FFC003FFE007FFF00FC1F00F80F851
:101E30000F00780F00781F00781F00781F00780FC0
:101E400000780F00780F00F00780F007C1E003FF73
:101E5000C000FF8000FF8003FFE007E7F00F80F085
:101E60000F00781F00781E007C1E003C1E003C1EE8
:101E7000003C1E003C1E003C1E007C1F007C1F001E
:101E8000780F80F80FE3F007FFF003FFE001FFC0D9
:101E9000007F0000000000000000000000000000C3
:101EA0000000000000000000000000003C0001FFF6
:101EB0000003FF8007FFC007FFE00F81E00F00F085
:101EC0001F00F01E00781E00781E00781E00781E8D
:101ED00000781E00781E007C1E007C1E007C1E0008
:101EE0007C1E00FC1F00FC0F01FC0F83FC07FFFCA5
:101EF00007FFBC03FF3C00FE3C00003800007800F8
:101F000000780000780000780000F00000F0000188
:101F1000F00603E007FFC007FFC007FF8007FF00D0
:101F200001FC0000000000000000000000000000B4
:101F300000000000000000000000000000000000A1
:101F40000000000000000000000000000000000091
:101F5000000000007E00007E00007E00007E000089
:101F60007E00007E00007E00007E00007E000000FB
:101F70000000000000000000000000000000000061
:101F8000000000000000000000000000007E0000D3
:101F90007E00007E00007E00007E00007E00007E4D
:101FA00000007E00007E00007E00000000000000B7
:101FB0000000000000000000000000000000000021
:101FC0000000000000000000000000000000000011
:101FD0000000000000000000000000000000000001
:101FE000000000007E00007E00007E00007E0000F9
:101FF0007E00007E00007E00007E00007E0000006B
:1020000000000000000000000000000000000000D0
:10201000000000000000000000000000007E000042
:102020007E00007E00007E00007E00007E00007EBC
:1020300000007E00007E00007C0000FC0000F80034
:1020400000F80000F80001F00001F00001E00000DD
:102050000000000000000000000000000000000080
:102060000000000000000000000000000000000070
:1020700000000200000E00003E0000FE0003FE0013
:1020800007FC001FF0007FC001FF0007FC001FF0ED
:10209000003FC0003E00003E00003F80003FE000E7
:1020A0000FF80003FE0000FF80003FE0000FFC007F
:1020B00003FE0000FE00003E00000E0000020000D3
:1020C0000000000000000000000000000000000010
:1020D0000000000000000000000000000000000000
:1020E00000000000000000000000000000000000F0
:1020F00000000000000000000000000000000000E0
:102100000000000000000000000000000000003F90
:10211000FFFE3FFFFE3FFFFE3FFFFE00000000000E
:1021200000000000000000000000000000000000AF
:102130000000003FFFFE3FFFFE3FFFFE3FFFFE00AF
:10214000000000000000000000000000000000008F
:10215000000000000000000000000000000000007F
:10216000000000000000000000000000000000006F
:10217000000000000000000000000000000000005F
:10218000000000000000000000000000000000004F
:102190002000003800003C00003F00003FC0001F4E
:1021A000F00007FC0001FF00007FC0001FF00007E7
:1021B000FC0001FE00007E00003E0000FE0003FC6B
:1021C000000FF8007FE001FF8007FE001FF8003FCE
:1021D000E0003F80003E00003800002000000000CA
:1021E00000000000000000000000000000000000EF
:1021F00000000000000000000000000000000000DF
:102200000000000000000000000000001E0000FFB1
:102210008003FFC007FFE007FFF00781F00600F82A
:102220000400F800007800007800007800007800D2
:1022300000F80000F00001F00003E00007C0000714
:10224000C0000F80001F00001E00003E00003C0088
:10225000003C00003C00003C00003C00003C000052
:102260003C00000000000000000000000000003CF6
:1022700000003C00003C00003C00003C00003C0032
:10228000000000000000000000000000000000004E
:102290000000000000000000000000000000001F1F
:1022A0008000FFC001FFF003FFF007C0F80F803887
:1022B0000F003C1E001C1C001E3C000E38000E7857
:1022C0000FCE781FEE703FFE707FFE70783EF0F00C
:1022D0003EF0F01EF0E01EE0E00EE0E00EE0E00E6A
:1022E000E0E00EE0E00EF0E00EF0E01EF0F01EF098
:1022F000703E707C7E703FFE703FEE781FEE3807B8
:10230000803C00003C00001E00000F00000F800019
:1023100007C00003F80001FFFC00FFFC003FFC00C9
:1023200007FC000000000000000000000000007C2E
:1023300000007E00007E00007E0000FE0000FF0026
:1023400000EF0001EF0001E70001E78001E78001F5
:10235000C78003C78003C78003C3C003C3C007830C
:10236000C00783C00781E00781E00F01E00F01E0B3
:102370000F00F00F00F00FFFF01FFFF01FFFF01F26
:10238000FFF81E00783C00783C007C3C003C3C00A0
:102390003C7C003C78003C78003E78001EF8001E33
:1023A000000000000000000000000000000000002D
:1023B00000000000000000000000000000001FFE00
:1023C000001FFF801FFFC01FFFE01E07F01E01F06F
:1023D0001E00F81E00781E00781E00781E00781E71
:1023E00000781E00F81E01F01E07F01FFFE01FFF1F
:1023F000801FFFC01FFFE01E03F01E00F81E0078C4
:102400001E00781E007C1E003C1E003C1E003C1E70
:10241000003C1E003C1E003C1E007C1E007C1E007A
:10242000F81E03F81FFFF01FFFE01FFFC01FFF0093
:10243000000000000000000000000000000000009C
:102440000000000000000000000000000F00007FFE
:10245000E000FFF001FFF803FFF807E07807C0187D
:102460000F80000F00000F00001F00001E00001E64
:1024700000001E00001E00003E00003E00003E0066
:10248000003E00003E00003E00003E00003E000016
:102490003E00003E00001E00001E00001E00001E48
:1024A00000001F00000F00000F00000F800007C099
:1024B0001807E03803F9F801FFF800FFF8007FF093
:1024C000001F80000000000000000000000000006D
:1024D00000000000000000000000000000001FF0ED
:1024E000003FFE003FFF003FFF803E3FC03E07E051
:1024F0003E03E03E01F03E00F03E00F03E00F83EBC
:1025000000783E00783E00783E00783E00783E003D
:102510007C3E007C3E007C3E007C3E007C3E007C9D
:102520003E00783E00783E00783E00783E00783EDF
:1025300000F83E00F83E00F03E01F03E01E03E07AC
:10254000E03E1FC03FFFC03FFF803FFE003FF8005E
:10255000000000000000000000000000000000007B
:1025600000000000000000000000000000000FFF5D
:10257000F81FFFF81FFFF81FFFF81FFFF81F0000EC
:102580001F00001F00001F00001F00001F00001F91
:1025900000001F00001F00001FFFF01FFFF01FFFC3
:1025A000F01FFFF01FFFF01F00001F00001F0000C2
:1025B0001F00001F00001F00001F00001F00001F61
:1025C00000001F00001F00001F00001F00001F0070
:1025D000001F00001FFFF81FFFF81FFFF80FFFF894
:1025E00000000000000000000000000000000000EB
:1025F00000000000000000000000000000000FFFCD
:10260000F80FFFFC0FFFFC0FFFFC0FFFF80F00009F
:102610000F00000F00000F00000F00000F00000F60
:1026200000000F00000F00000FFFF00FFFF00FFF82
:10263000F00FFFF00FFFF00F00000F00000F000081
:102640000F00000F00000F00000F00000F00000F30
:1026500000000F00000F00000F00000F00000F002F
:10266000000F00000F00000F00000F00000F00001F
:10267000000000000000000000000000000000005A
:102680000000000000000000000000000F00007FBC
:10269000C000FFF003FFF803FFF807E07807801899
:1026A0000F80180F00001F00001E00001E00001EFB
:1026B00000003E00003E00003C00003C00003C00EA
:1026C000003C00003C00003C07FC3C07FC3C07FCD5
:1026D0003C07FC3C007C3C007C3E007C3E007C1EB9
:1026E000007C1E007C1E007C1F007C0F007C0F8085
:1026F0007C07C07C07F9FC03FFF801FFF000FFE056
:10270000001F80000000000000000000000000002A
:1027100000000000000000000000000000001C009D
:10272000783E00783E00783E00783E00783E0078A3
:102730003E00783E00783E00783E00783E00783ECD
:1027400000783E00783E00783FFFF83FFFF83FFFFB
:10275000F83FFFF83FFFF83E00783E00783E0078F3
:102760003E00783E00783E00783E00783E00783E9D
:1027700000783E00783E00783E00783E00783E00CB
:10278000783E00783E00783E00783E00783E007843
:102790000000000000000000000000000000000039
:1027A00000000000000000000000000000000FFF1B
:1027B000F01FFFF01FFFF01FFFF00FFFF0003C00C5
:1027C000003C00003C00003C00003C00003C0000DD
:1027D0003C00003C00003C00003C00003C00003C91
:1027E00000003C00003C00003C00003C00003C00BD
:1027F000003C00003C00003C00003C00003C0000AD
:102800003C00003C00003C00003C00003C00003C60
:1028100000007C001FFFF01FFFF01FFFF00FFFF014
:1028200000000000000000000000000000000000A8
:10283000000000000000000000000000000001FF98
:10284000C001FFE001FFE001FFE001FFE00003E065
:102850000003E00003E00003E00003E00003E00009
:1028600003E00003E00003E00003E00003E00003F6
:10287000E00003E00003E00003E00003E00003E009
:102880000003E00003E00003E00003E00003E000D9
:1028900003E00003E00003C00003C02003C03007D2
:1028A000C03C07C03F1F803FFF803FFF000FFE007E
:1028B00003F800000000000000000000000000001D
:1028C00000000000000000000000000000001C00EC
:1028D0003E3E003E3E007C3E00F83E01F03E01F0F0
:1028E0003E03E03E07C03E07803E0F803E1F003E95
:1028F0003E003E3C003E7C003EF8003CF0003FF0D5
:10290000003FF8003FFC003FFC003F3E003F1E0040
:102910003E1F003E0F003E0F803E07803E07C03E38
:1029200003C03E03E03E01E03E01F03E00F03E0009
:10293000F83E00783E007C3E003C3E003E3E001FDC
:102940000000000000000000000000000000000087
:1029500000000000000000000000000000000F0068
:10296000000F00000F00000F00000F00000F00001C
:102970000F00000F00000F00000F00000F00000FFD
:1029800000000F00000F00000F00000F00000F00FC
:10299000000F00000F00000F00000F00000F0000EC
:1029A0000F00000F00000F00000F00000F00000FCD
:1029B00000000F00000F00000F00000F00000F00CC
:1029C000000F00000FFFFC0FFFFC0FFFFC0FFFFCD0
:1029D00000000000000000000000000000000000F7
:1029E00000000000000000000000000000007C006B
:1029F000F8FC00F8FE01F8FE01F8FE01F8FE01F80F
:102A0000FF03F8F703B8F703B8F70738F38738F38D
:102A10008738F38738F38F38F1CE38F1CE38F1CEDE
:102A200038F1CC38F0FC38F0FC38F0FC38F078386D
:102A3000F07838F07838F03038F00038F00038F0BE
:102A40000038F00038F00038F00038F00038F000BE
:102A500038F00038F00038F00038F00038700038F6
:102A60000000000000000000000000000000000066
:102A70000000000000000000000000000000FC005A
:102A800078FC0078FE0078FE0078FE0078FF007881
:102A9000FF0078FF0078FF8078F78078F3C078F344
:102AA000C078FBC078F9E078F9E078F9E078F8F0E0
:102AB00078F8F078F87878F87878F87878F83C78DA
:102AC000F83C78F83C78F81E78F81E78F81E78F80C
:102AD0000F78F80F78F80778F807F8F807F8F80390
:102AE000F8F803F8F803F8F801F8F801F8F000F83E
:102AF00000000000000000000000000000000000D6
:102B00000000000000000000000000003C0000FF8A
:102B10000003FF8003FFC007FFE00F83E00F81F099
:102B20000F00F01F00F01E00F81E00781E00783E17
:102B300000783E00783E007C3E007C3C007C3C00FF
:102B40007C3C007C3C007C3C007C3C007C3C007C71
:102B50003C007C3E007C3E007C3E00783E00781EBF
:102B600000781E00781E00F81E00F81F00F00F010C
:102B7000F00F81F007E7E007FFC003FFC001FF800F
:102B8000007E0000000000000000000000000000C7
:102B900000000000000000000000000000000FFF27
:102BA000000FFFC00FFFE00FFFF00F07F80F00F856
:102BB0000F007C0F007C0F003C0F003C0F003C0F0F
:102BC000003C0F003C0F003C0F003C0F007C0F004E
:102BD0007C0F00F80F07F80FFFF00FFFE00FFFC0AA
:102BE0000FFF000F00000F00000F00000F00000F8C
:102BF00000000F00000F00000F00000F00000F008A
:102C0000000F00000F00000F00000F00000F000079
:102C100000000000000000000000000000000000B4
:102C20000000000000000000000000007C0001FF28
:102C30000003FFC007FFC007FFE00F81F00F01F0A6
:102C40001F00F01E00F81E00F81E00781E00783EDF
:102C500000783E007C3E007C3E007C3C007C3C00DA
:102C60007C3C007C3C007C3C007C3C007C3C007C50
:102C70003C007C3E007C3E007C3E00781E00781EBE
:102C800000781E00781E00F81F00F00F01F00F8181
:102C9000F007E7E007FFC003FFC001FF80007F806F
:102CA0000007C00003E00001F00001F00000E000B8
:102CB00000400000000000000000000000001FFCB9
:102CC000001FFF801FFFC01FFFE01E0FE01E03F06C
:102CD0001E01F01E00F01E00F81E00F81E00F81E77
:102CE00000F81E00F81E00F81E00F01E00F01E0185
:102CF000F01E07E01FFFC01FFF801FFF001FFF80A7
:102D00001E0FC01E03C01E03E01E01E01E01F01EC8
:102D100000F01E00F01E00F81E00781E007C1E0051
:102D20003C1E003C1E003E1E001E1E001E1E001FFC
:102D30000000000000000000000000000000000093
:102D40000000000000000000000000003C0001FF47
:102D5000C003FFE007FFF00FFFF00F80F01F00300F
:102D60001E00001E00001E00003C00003C00003E53
:102D700000001E00001E00001F00001FC0000FF812
:102D8000000FFF0007FFC001FFE0007FE0000FF031
:102D90000001F80000F800007800007800007800DA
:102DA00000780000780000780000781000781800A3
:102DB000F81E01F01FCFF01FFFE01FFFC007FF80CC
:102DC00001FE000000000000000000000000000004
:102DD00000000000000000000000000000007FFF75
:102DE000FE7FFFFE7FFFFE7FFFFE7FFFFE003C00B9
:102DF000003C00003C00003C00003C00003C0000A7
:102E00003C00003C00003C00003C00003C00003C5A
:102E100000003C00003C00003C00003C00003C0086
:102E2000003C00003C00003C00003C00003C000076
:102E30003C00003C00003C00003C00003C00003C2A
:102E400000003C00003C00003C00003C00003C0056
:102E50000000000000000000000000000000000072
:102E600000000000000000000000000000001E0044
:102E7000781E00781E00781E00781E00781E0078EC
:102E80001E00781E00781E00781E00781E00781E36
:102E900000781E00781E00781E00781E00781E0044
:102EA000781E00781E00781E00781E00781E0078BC
:102EB0001E00781E00781E00781E00781E00781E06
:102EC00000781E00781E00781E00781E00780F0023
:102ED000F80F81F00FE7F007FFE003FFC001FF806C
:102EE000007E000000000000000000000000000064
:102EF000000000000000000000000000000078005A
:102F00001E7C003E3C003E3C003C3C003C3C003C07
:102F10001E003C1E00781E00781E00781F00780FEF
:102F200000F80F00F00F00F00F00F00F00F0078125
:102F3000E00781E00781E00781E003C1E003C3C04F
:102F400003C3C003C3C003C3C001E38001E7800122
:102F5000E78001E78000E70000E70000F70000FFDE
:102F600000007F00007E00007E00007E00003E002A
:102F70000000000000000000000000000000000051
:102F80000000000000000000000000000000F00051
:102F90000FF0000FF0000FF0000FF0000F78000F9F
:102FA00078001E78001E78001E78001E783C1E787F
:102FB0003C1E783E1E787E1E387E1E387E1C387E73
:102FC0001C3C7E3C3C773C3CE73C3CE73C3CE73CE3
:102FD0001CE73C1CE73C1CE7381CC3B81DC3B81DEC
:102FE000C3B81FC3B81FC3F81FC1F80F81F80F8102
:102FF000F00F81F00F81F00F81F00F00F00F00F063
:1030000000000000000000000000000000000000C0
:1030100000000000000000000000000000003C0074
:103020001E3E003E1E003C1F007C0F00780F00F883
:103030000780F00781F003C1E003C1E001E3C001B4
:10304000E3C001F78000F78000FF00007F00007EF2
:1030500000003E00003E00007E00007F0000FF00F8
:1030600000F78001F78001E7C003E3C003C3C00796
:10307000C1E00781E00780F00F00F00F00781E002C
:10308000781E007C3C003C3C003E7C001E78001F0B
:103090000000000000000000000000000000000030
:1030A00000000000000000000000000000007800A8
:1030B0001E7C003E3C003C3C003C3E00781E0078FC
:1030C0001F00F80F00F00F81F00781E00781E00397
:1030D000C3C003C3C003E78001E78001E78000FFAE
:1030E0000000FF00007E00007E00003C00003C006D
:1030F000003C00003C00003C00003C00003C0000A4
:103100003C00003C00003C00003C00003C00003C57
:1031100000003C00003C00003C00003C00003C0083
:10312000000000000000000000000000000000009F
:1031300000000000000000000000000000000FFF81
:10314000FC1FFFFE1FFFFE1FFFFE0FFFFC00007CA9
:103150000000780000F80000F00001F00001E0003D
:1031600003E00003C00007C0000780000F80000FCD
:1031700000001F00001E00003E00003C00007C001C
:1031800000780000F80000F00001F00001E000030A
:10319000C00003C0000780000780000F00000F0080
:1031A000001F00001FFFFE1FFFFE1FFFFE1FFFFE90
:1031B000000000000000000000000000000000000F
:1031C0000000001FE0001FF0001FF0001FE0001EC5
:1031D00000001E00001E00001E00001E00001E0059
:1031E000001E00001E00001E00001E00001E000049
:1031F0001E00001E00001E00001E00001E00001E1B
:1032000000001E00001E00001E00001E00001E0028
:10321000001E00001E00001E00001E00001E000018
:103220001E00001E00001E00001E00001E00001EEA
:1032300000001E00001E00001FF0001FF0001FE035
:10324000000000000000000000000000000000007E
:10325000000000000000000000000000000000006E
:10326000000000003C00003E00001E00001F0000A7
:103270000F00000F000007800007800003C000035C
:10328000C00003E00001E00001E00000F00000F0F9
:1032900000007800007800007C00003C00003C004A
:1032A000001E00001E00000F00000F00000F800035
:1032B00007800007800003C00003C00001E0000198
:1032C000E00001F00000F00000F00000780000785D
:1032D00000000000000000000000000000000000EE
:1032E000000003FC0003FC0003FC0003FC00003CA6
:1032F00000003C00003C00003C00003C00003C00A2
:10330000003C00003C00003C00003C00003C000091
:103310003C00003C00003C00003C00003C00003C45
:1033200000003C00003C00003C00003C00003C0071
:10333000003C00003C00003C00003C00003C000061
:103340003C00003C00003C00003C00003C00003C15
:1033500000003C00003C0003FC0003FC0003FC00F8
:10336000000000000000000000000000000000005D
:10337000000000000000000000000000000000004D
:10338000000000000000000000000000000000003D
:10339000000000000000003C00007E00007E0000F5
:1033A000FF0001FF8001FF8003E7C007C3E007C300
:1033B000E00F81F00F00F81F00783E007C3C003EDB
:1033C00078001E0000000000000000000000000067
:1033D00000000000000000000000000000000000ED
:1033E00000000000000000000000000000000000DD
:1033F00000000000000000000000000000000000CD
:1034000000000000000000000000000000000000BC
:1034100000000000000000000000000000000000AC
:10342000000000000000000000000000000000009C
:10343000000000000000000000000000000000008C
:10344000000000000000000000000000000000007C
:10345000000000000000000000000000000000006C
:10346000000000000000000000000000000000005C
:1034700000000000FFFFFFFFFFFFFFFFFFFFFFFF58
:10348000000000000000000000000000000000003C
:103490000000000000000000000000000F00000E0F
:1034A00000001E00001E00003E00003C00003C002A
:1034B000007C00007C00007C00007C00007C0000A0
:1034C0007C00007C0000780000000000000000008C
:1034D00000000000000000000000000000000000EC
:1034E00000000000000000000000000000000000DC
:1034F00000000000000000000000000000000000CC
:1035000000000000000000000000000000000000BB
:1035100000000000000000000000000000000000AB
:10352000000000000000000000000000000000009B
:10353000000000000000000000000000000000008B
:1035400000000000000000000001FE0007FF800FE7
:10355000FFC00FFFE00F03E00C01F00000F00000DF
:10356000F00000F000007000007000FFF003FFF0BA
:1035700007FFF00FFFF01F80701E00701E00703CF0
:1035800000F03C00F03C00F03C00F03C01F03E015B
:10359000F01E03F01F8FF00FFF700FFE7007FC701E
:1035A00001F000000000000000000000000000002A
:1035B00000000000000000000000001E00001E00CF
:1035C000001E00001E00001E00001E00001E000065
:1035D0001E00001E00001E00001E3F001E7F801EF9
:1035E000FFC01FFFE01FE3F01F81F01F80F01F00EE
:1035F000781F00781F00781E00781E00781E003C9F
:103600001E003C1E003C1E003C1E003C1E003C1EDA
:1036100000781E00781F00781F00781F00F81F80B8
:10362000F01F81F01FE3E01FFFE01EFFC01E7F8040
:10363000001E00000000000000000000000000006C
:10364000000000000000000000000000000000007A
:10365000000000000000000000000000000000006A
:10366000000000000000000000003FC0007FE001FB
:10367000FFF001FFF003F07007C0380780000F80F3
:10368000000F00000F00000F00000F00001E0000E0
:103690001E00001E00001E00001E00001E00001F75
:1036A00000000F00000F00000F00000F80000780D7
:1036B0000007C03003F0F001FFF000FFF0007FE0F2
:1036C000001F80000000000000000000000000005B
:1036D000000000000000000000000000007000007A
:1036E000700000700000700000700000700000703A
:1036F00000007000007000007000FC7003FE700796
:10370000FF7007FFF00F87F00F03F01F01F01E009E
:10371000F01E00F01E00F03C00F03C00F03C007099
:103720003C00703C00703C00703C00703C00703C01
:1037300000F01E00F01E00F01E00F01E01F01F0140
:10374000F00F83F00FC7F007FFF003FE7001FE706B
:1037500000F8000000000000000000000000000071
:103760000000000000000000000000000000000059
:103770000000000000000000000000000000000049
:10378000000000000000000000007F0001FF800337
:10379000FFC007FFE007C1F00F80F00F00781F00A7
:1037A000781E00381E003C1E003C3FFFFC3FFFFC23
:1037B0003FFFFC3FFFFC3C00003C00003C00003EA3
:1037C00000001E00001E00001E00001F00000F0071
:1037D000080F803807E1F803FFF801FFF800FFE069
:1037E000003F80000000000000000000000000001A
:1037F0000000000000000000000000000FF8001FA3
:10380000F8001FF8003FF0003C000038000078008E
:103810000078000078000078000078001FFFF81F93
:10382000FFF81FFFF80078000078000078000078AB
:103830000000780000780000780000780000780030
:103840000078000078000078000078000078000020
:103850007800007800007800007800007800007898
:103860000000780000780000780000780000780000
:103870000000000000000000000000000000000048
:103880000000000000000000000000000000000038
:103890000000000000000000000000000000000028
:1038A00000000000000000000000FC0003FE7007A4
:1038B000FF7007FFF00F83F01F01F01E00F01E00E5
:1038C000F01E00F03C00F03C00703C00703C0070CA
:1038D0003C00703C00703C00F03E00F01E00F01E0A
:1038E00000F01E01F00F01F00F83F007FFF003FF5F
:1038F0007001FE700078700000700000F00000F0B1
:103900000000F00601E007CFE007FFC007FF8001DD
:10391000FE000000000000000000001E00001E006D
:10392000001E00001E00001E00001E00001E000001
:103930001E00001E00001E00001E1F001E7FC01E75
:103940007FE01EFFE01FE3F01F81F01F80F01F00EB
:10395000F01F00F01F00701E00701E00701E00702F
:103960001E00701E00701E00701E00701E00701E73
:1039700000701E00701E00701E00701E00701E0081
:10398000701E00701E00701E00701E00700E007011
:103990000000000000000000000000000000000027
:1039A0000000000000000000000000000E00000EFB
:1039B00000000E00000E00000E00000E00000000CF
:1039C00000000000000000000000000003FE0003F3
:1039D000FE0003FE00001E00000E00000E00000EA0
:1039E00000000E00000E00000E00000E00000E0091
:1039F000000E00000E00000E00000E00000E000081
:103A00000E00000E00000E00000E00000E00000E62
:103A100000000E0007FFFC0FFFFE0FFFFE0FFFFC74
:103A20000000000000000000000000000000000096
:103A30000000000000000000000000000000001E68
:103A400000001E00001E00001E00001E00000000FE
:103A500000000000000000000000000007FE00075A
:103A6000FE0007FE00001E00001E00001E00001EDB
:103A700000001E00001E00001E00001E00001E00B0
:103A8000001E00001E00001E00001E00001E0000A0
:103A90001E00001E00001E00001E00001E00001E72
:103AA00000001E00001E00001E00001E00001E0080
:103AB000001E00003C000FFC001FF8001FF8001F54
:103AC000E0000000000000000000000F00000F00F8
:103AD000000F00000F00000F00000F00000F00009B
:103AE0000F00000F00000F00000F00000F007C0F00
:103AF00000F80F01F00F03E00F03C00F07800F0F56
:103B0000800F1F000F3E000F3C000F7C000FFC00D9
:103B10000FFE000FFE000FDF000F8F000F0F800F52
:103B200007800F03C00F03E00F01E00F01F00F004B
:103B3000F00F00F80F00780F007C0F003E0F003EE2
:103B40000000000000000000000000000000000075
:103B5000000000000000000007FC000FFC000FFC4C
:103B6000000FFC00003C00003C00003C00003C005A
:103B7000003C00003C00003C00003C00003C000019
:103B80003C00003C00003C00003C00003C00003CCD
:103B900000003C00003C00003C00003C00003C00F9
:103BA000003C00003C00003C00003C00003C0000E9
:103BB0003C00003C00003C00003C00001C00001EDB
:103BC00000001F00000FFC000FFC0007FC0003FCBE
:103BD00000000000000000000000000000000000E5
:103BE00000000000000000000000000000000000D5
:103BF00000000000000000000000000000000000C5
:103C000000000000000000000001E1E03BF3F03F95
:103C1000FBF83FFFF83E7E3C3C3C3C3C3C3C383CA7
:103C20003C383C1C383C1C383C1C383C1C383C1C88
:103C3000383C1C383C1C383C1C383C1C383C1C387C
:103C40003C1C383C1C383C1C383C1C383C1C383C68
:103C50001C383C1C383C1C383C1C383C1C383C1C78
:103C60000000000000000000000000000000000054
:103C70000000000000000000000000000000000044
:103C80000000000000000000000000000000000034
:103C9000000000000000000000001F001E7FC01E8A
:103CA0007FE01EFFE01FE3F01F81F01F80F01F0088
:103CB000F01F00F01F00701E00701E00701E0070CC
:103CC0001E00701E00701E00701E00701E00701E10
:103CD00000701E00701E00701E00701E00701E001E
:103CE000701E00701E00701E00701E00700E0070AE
:103CF00000000000000000000000000000000000C4
:103D000000000000000000000000000000000000B3
:103D100000000000000000000000000000000000A3
:103D2000000000000000000000007E0001FF800392
:103D3000FFC007FFE00FC3E00F81F00F00F01E008F
:103D4000F01E00781E00781E00781E00783C007877
:103D50003C00783C00783C00783C00783E00781EBF
:103D600000781E00781E00781E00781F00F00F00FB
:103D7000F00F81F007C7E007FFE003FFC001FF80FD
:103D8000007E0000000000000000000000000000B5
:103D90000000000000000000000000000000000023
:103DA0000000000000000000000000000000000013
:103DB000000000000000000000003F001E7FC01F48
:103DC000FFE01FFFE01FC1F01F80F01F00781F0001
:103DD000781F00781F00781E00781E003C1E003CF3
:103DE0001E003C1E003C1E007C1F00781F00781F38
:103DF00000781F00781F80F01FC1F01FF7E01FFF41
:103E0000E01E7FC01E3F001E00001E00001E0000BE
:103E10001E00001E00001E00001E00001E00000EFE
:103E20000000000000000000000000000000000092
:103E30000000000000000000000000000000000082
:103E400000000000000000000000FC0003FE7007FE
:103E5000FF7007FFF00F83F00F01F01E00F01E004F
:103E6000F01E00F01E00F01E00F03C00703C0070E0
:103E70003C00703C00703E00F01E00F01E00F01E82
:103E800000F01E00F00F01F00F83F007EFF007FFC6
:103E90007003FE7000FC7000007000007000007085
:103EA00000007000007000007000007000007000E2
:103EB0000070000000000000000000000000000092
:103EC00000000000000000000000000000000000F2
:103ED0000000000000000000000001F801E7FC0104
:103EE000EFFE01CFFE01FF1E01FC0601F80001F00C
:103EF0000001F00001E00001E00001E00001E0004D
:103F000001E00001E00001E00001E00001E000014B
:103F1000E00001E00001E00001E00001E00001E05C
:103F20000001E00001E00001E00001E00001E0002C
:103F30000000000000000000000000000000000081
:103F40000000000000000000000000000000000071
:103F50000000000000000000000000000000000061
:103F6000000000000000000000007F8001FFE0036F
:103F7000FFE007FFE007C0E00F80200F00000F0008
:103F8000000F00000F00000F80000FC00007F800B6
:103F900007FF0003FFC000FFE0001FE00003F00088
:103FA00001F00000F00000F00000F00000F0080058
:103FB000F00E01F00F87E00FFFE00FFFC007FF805A
:103FC00000FE0000000000000000000000000000F3
:103FD00000000000000000000000000000000000E1
:103FE0000000000000F00000F00000F00000F00011
:103FF00000F00000F00000F00000F0003FFFF03F94
:10400000FFF03FFFF000F00000F00000F00000F0D3
:104010000000F00000F00000F00000F00000F000F0
:1040200000F00000F00000F00000F00000F00000E0
:10403000F00000F00000F00000F00000F00000F8D8
:1040400000007800007FF0003FF0003FF0000FF02C
:104050000000000000000000000000000000000060
:104060000000000000000000000000000000000050
:104070000000000000000000000000000000000040
:104080000000000000000000000000000F00780F9A
:1040900000780F00780F00780F00780F00780F007D
:1040A000780F00780F00780F00780F00780F0078F5
:1040B0000F00780F00780F00780F00780F00780F4E
:1040C00000780E00780F00F80F00F80F00F80F01CD
:1040D000F80F83F807E7F807FF7803FE7801FE780A
:1040E00000F80000000000000000000000000000D8
:1040F00000000000000000000000000000000000C0
:1041000000000000000000000000000000000000AF
:104110000000000000000000000000003C003C3CEB
:10412000003C1E00781E00781E00781E00700F00F4
:10413000F00F00F00F00F00F00E00781E00781E0D2
:104140000781E00381C003C3C003C3C003C3C00130
:10415000C78001E78001E78001E70000E70000FF7A
:104160000000FF00007E00007E00007E00007C005A
:10417000000000000000000000000000000000003F
:10418000000000000000000000000000000000002F
:10419000000000000000000000000000000000001F
:1041A000000000000000000000000000F0000FF020
:1041B000000FF0000F70000E78000E78001E7800DF
:1041C0001E78001E783C1E383C1C383C1C3C3C3C95
:1041D0003C7E3C3C7E3C1C763C1C66381E67381E90
:1041E000E7781EE7781EE7780EC3700FC3F00FC3A1
:1041F000F00FC3F00FC1F00781F00781E00781E005
:1042000000000000000000000000000000000000AE
:10421000000000000000000000000000000000009E
:10422000000000000000000000000000000000008E
:104230000000000000000000000000001E007C1EC6
:1042400000780F00F00F00F00781E003C3E003C324
:10425000C001E78001E78000FF0000FF00007E0052
:10426000003E00003C00007E00007E0000FF0000D9
:10427000F78001E78003E3C003C3C00781E0078143
:10428000E00F00F00F00F81E00783E007C3C003C80
:10429000000000000000000000000000000000001E
:1042A000000000000000000000000000000000000E
:1042B00000000000000000000000000000000000FE
:1042C0000000000000000000000000003C003E1E56
:1042D000003C1E003C1E00780F00780F00780F0095
:1042E000F00780F00780F00781E003C1E003C1E040
:1042F00003C3C001E3C001E3C001E78000F7800011
:10430000F78000FF00007F00007F00003E00003EBD
:1043100000003E00003C00003C00003C0000780033
:1043200000780000F0000FF0001FE0001FE0000F19
:1043300080000000000000000000000000000000FD
:10434000000000000000000000000000000000006D
:1043500000000000000000000007FFF00FFFF00F5A
:10436000FFF00FFFF00000F00000F00001E000039C
:10437000E00003C00007C0000780000F00001F001E
:10438000001E00003E00003C0000780000F8000025
:10439000F00001F00001E00003C00007C00007804A
:1043A000000F00000FFFF00FFFF00FFFF00FFFF006
:1043B00000000000000000000000000000000000FD
:1043C00000000001F00007F0000FF0001FF0001ED9
:1043D00000001E00001E00001E00001E00001E0047
:1043E000001E00001E00001E00001E00001E000037
:1043F0001E00003C00003C00003C0000F8001FF0E4
:10440000001FC0001FE00001F800007C00003C001D
:10441000003C00003C00001E00001E00001E0000CA
:104420001E00001E00001E00001E00001E00001ED8
:1044300000001E00001F00000FF0000FF00003F04E
:10444000000000000000000000000000000000006C
:104450000000001C00001E00001E00001E00001EC8
:1044600000001E00001E00001E00001E00001E00B6
:10447000001E00001E00001E00001E00001E0000A6
:104480001E00001E00001E00001E00001E00001E78
:1044900000001E00001E00001E00001E00001E0086
:1044A000001E00001E00001E00001E00001E000076
:1044B0001E00001E00001E00001E00001E00001E48
:1044C00000001E00001E00001E00001E00001E0056
:1044D00000000000000000000000000000000000DC
:1044E00000000F80000FF0000FF80007F800007CBC
:1044F00000003C00003C00003C00003C00003C0090
:10450000003C00003C00003C00003C00003C00007F
:104510003C00003C00003C00001E00001F00000F9B
:10452000F80001F80007F8000FC0001F00003E006F
:10453000003C00003C00003C00003C00003C00004F
:104540003C00003C00003C00003C00003C00003C03
:1045500000007C0000F8000FF8000FF0000FC00012
:10456000000000000000000000000000000000004B
:10457000000000000000000000000000000000003B
:10458000000000000000000000000000000000002B
:104590000000000000000000000000000780000F85
:1045A000C0001FE0003FF0003FF004787806787C00
:1045B0000F703C0EF01E1E701F1E200FFC000FFC23
:1045C0000007F80003F00000E00000000000000019
:1045D00000000000000000000000000000000000DB
:1045E00000000000000000000000000000000000CB
:1045F00000000000000000000000000000000000BB
:10460000000050726573732033207365636F6E64AE
:1046100073206F6E20627574746F6E7320666F7294
:10462000206D6F726520696E666F2E2E2E00101041
:10463000205F0000000000000000000000000000FB
:10464000000000000000000000000000000000006A
:10465000000000000000030003000300030003004B
:104660000300030003000300000003000300000038
:1046700000000000000006600660066006600000A2
:10468000000000000000000000000000000000002A
:104690000000000000000360036006C03FF03FF030
:1046A00006C00D803FF03FF00D801B001B00000096
:1046B000000000000100038007C00D600D000F0026
:1046C000078003C001E00D600D6007C0038001009A
:1046D0000000000000003C1866306630666066C06E
:1046E0003CC0019E01B30333033306330C1E0000AC
:1046F00000000000000007C00FE00C600C6007C065
:1047000007800D9019D818F018780FFC0788000062
:104710000000000000000180018001800180000095
:104720000000000000000000000000000000000089
:1047300000000000018003000300060006000600E0
:1047400006000600060006000300030001800000CA
:1047500000000000060003000300018001800180CA
:104760000180018001800180030003000600000039
:104770000000000000000000000003800380339868
:104780003FF807C007C00EE01C70044000000000A6
:1047900000000000000000000000000000C000C099
:1047A00000C007F807F800C000C000C0000000000B
:1047B00000000000000000000000000000000000F9
:1047C00000000000000003000300010001000200DF
:1047D00000000000000000000000000000000000D9
:1047E000000003E003E00000000000000000000003
:1047F00000000000000000000000000000000000B9
:1048000000000000000000000300030000000000A2
:104810000000000000000060006000C000C000C098
:1048200000C00180018001800180030003000000BE
:1048300000000000000003C007E00E700C300C30D8
:104840000C300C300C300C300E7007E003C0000050
:104850000000000000000180038007800D800980B7
:1048600001800180018001800180018001800000C1
:1048700000000000000003C007E00E300C300030E4
:10488000006000E001C0038006000FF00FF00000A0
:1048900000000000000003E007F00E30003001E0EF
:1048A00001E0007000300C300E7007E003C0000023
:1048B000000000000000006000E000E001E0036094
:1048C000036006600C600FF00FF0006000600000F5
:1048D00000000000000007E007E006000C000FC029
:1048E0000FE00C7000300C300E7007E003C00000C9
:1048F00000000000000003E007F006300C000DC0CF
:104900000FE00E700C300C30063007E003C00000E2
:104910000000000000000FF00FF0006000C000C0B9
:104920000180018001800380030003000300000078
:1049300000000000000003C007E00C300C300C3019
:1049400007E007E00C300C300C3007E003C000003B
:1049500000000000000003C007E00C600C300C30C9
:104960000E7007F003B000300C600FE007C00000CD
:104970000000000000000000018001800000000035
:104980000000000000000180018000000000000025
:104990000000000000000000018001800000000015
:1049A0000000000000000180018000800080010004
:1049B00000000000000000000000002000E003C034
:1049C0000F001C000F0003C000E0002000000000EA
:1049D000000000000000000000001FF01FF00000B9
:1049E00000001FF01FF000000000000000000000A9
:1049F0000000000000000000000008000E0007801A
:104A000001E0007001E007800E00080000000000D7
:104A100000000000000003C007E00E300C30007002
:104A200000E001C0018001800000018001800000E1
:104A30000000000007C00C30137817E82CC82CC801
:104A40002CC82FD026E01008081007E00000000056
:104A50000000000000000380038006C006C006C0FE
:104A60000C600C600FE01FF0183018303018000098
:104A70000000000000001FE01FF018301830183050
:104A80001FE01FF01818181818181FF01FE000007A
:104A900000000000000003E00FF00C381C101800AC
:104AA0001800180018001C100C380FF003E000006C
:104AB0000000000000001FC01FF018301818181860
:104AC000181818181818181818301FF01FC00000F0
:104AD0000000000000000FF80FF80C000C000C00A4
:104AE0000FF80FF80C000C000C000FF80FF8000086
:104AF0000000000000000FF00FF00C000C000C0094
:104B00000FE00FE00C000C000C000C000C0000008B
:104B100000000000000007E01FF0183838103000D7
:104B2000300030F830F8381818381FF807E0000067
:104B30000000000000001818181818181818181885
:104B40001FF81FF818181818181818181818000047
:104B500000000000000001800180018001800180D0
:104B600001800180018001800180018001800000BE
:104B70000000000000000030003000300030003045
:104B80000030003000300C300E7007E003C0000031
:104B900000000000000018181830186018C01980B4
:104BA0001BC01EC01C6018701830181818180000A0
:104BB0000000000000000C000C000C000C000C00B9
:104BC0000C000C000C000C000C000FF00FF00000AB
:104BD000000000000000383838383C783C78345801
:104BE00036D836D836D833983398339831180000F1
:104BF00000000000000018181C181E181E181B18B2
:104C00001998199818D818781878183818180000B2
:104C100000000000000007C01FF0183030183018E6
:104C2000301830183018301818301FF007C0000046
:104C30000000000000000FE00FF00C380C180C38DA
:104C40000FF00FE00C000C000C000C000C0000003A
:104C500000000000000007C01FF0183030183018A6
:104C600030183018301831B818F01FF007B000189D
:104C70000000000000001FE01FF018381818183856
:104C80001FF01FC018E0187018301838181C0000EA
:104C900000000000000003E007F00E380C180F00C1
:104CA00007E001F000380C180E3807F003E00000B0
:104CB0000000000000001FF81FF801800180018043
:104CC000018001800180018001800180018000005D
:104CD00000000000000018181818181818181818E4
:104CE00018181818181818181C380FF007E00000CA
:104CF00000000000000030181830183018300C6028
:104D00000C600EE006C006C0038003800380000034
:104D100000000000000031C631C631C61B6C1B6CA0
:104D20001B6C1B6C1B6C0E380E380E380E380000D6
:104D300000000000000018301C700C6006C007C0A6
:104D40000380038007C006C00C601C701830000090
:104D500000000000000018181C380C3006600660C7
:104D600003C001800180018001800180018000007A
:104D700000000000000007F807F80030006000E0C5
:104D800000C001800380030006000FF80FF8000048
:104D90000000000003C003C0030003000300030081
:104DA00003000300030003000300030003C003C06B
:104DB000000000000000030003000180018001806A
:104DC000018000C000C000C000C0006000600000A2
:104DD0000000000003C003C000C000C000C000C04D
:104DE00000C000C000C000C000C000C003C003C0BD
:104DF00000000000018003C003C00660066006607A
:104E00000C30000000000000000000000000000066
:104E10000000000000000000000000000000000092
:104E2000000000000000000000000000FFFFFFFF86
:104E3000000000000000018000C000000000000031
:104E40000000000000000000000000000000000062
:104E50000000000000000000000007C00FE00C6030
:104E600001E007E00E600C600FE007B000000000FA
:104E7000000000000C000C000C000DC00FE00E70D4
:104E80000C300C300C300E700FE00DC00000000034
:104E90000000000000000000000003C007E00E60FA
:104EA0000C000C000C000E6007E003C000000000C6
:104EB0000000000000300030003003B007F00E703A
:104EC0000C300C300C300E7007F003B00000000006
:104ED00000000000000000000000038007C00C601C
:104EE0000FE00FE00C000E6007C003800000000020
:104EF0000000000003C007C006000F800F800600FE
:104F0000060006000600060006000600000000007D
:104F1000000000000000000007600FE01CE01860C7
:104F2000186018601CE00FE0076018601FE00FC0F9
:104F3000000000000C000C000C000DE00FF00E3023
:104F40000C300C300C300C300C300C3000000000F9
:104F5000000000000000018001800000018001804D
:104F6000018001800180018001800180000000003B
:104F7000000000000000018001800000018001802D
:104F80000180018001800180018001800180078013
:104F9000070000000C000C000C000C600CC00D8021
:104FA0000F800FC00EC00CC00C600C600000000031
:104FB00000000000018001800180018001800180EB
:104FC00001800180018001800180018000000000DB
:104FD0000000000000000000000037383FFC39CC22
:104FE000318C318C318C318C318C318C0000000053
:104FF000000000000000000000000DE00FF00E3087
:105000000C300C300C300C300C300C300000000038
:105010000000000000000000000003C007E00E7068
:105020000C300C300C300E7007E003C000000000A4
:10503000000000000000000000000DC00FE00E7036
:105040000C300C300C300E700FE00DC00C000C005A
:105050000C00000000000000000003B007F00E701C
:105060000C300C300C300E7007F003B00030003004
:1050700000300000000000000000037003F0038017
:10508000030003000300030003000300000000000E
:105090000000000000000000000007C00FE00C60EE
:1050A0000F0007C000E00C600FE007C00000000028
:1050B0000000000001000300030007C007C0030058
:1050C000030003000300030003C001C00000000050
:1050D000000000000000000000000C300C300C301C
:1050E0000C300C300C300C700FF007B000000000DA
:1050F000000000000000000000000630063006300E
:1051000003600360036001C001C001C00000000033
:105110000000000000000000000031C631C619CCBC
:105120001B6C1B6C1B6C0E380E380E380000000018
:10513000000000000000000000000630077003605F
:1051400001C001C001C0036007700630000000000C
:10515000000000000000000000000C180C180630D1
:1051600006300360036003E001C001C001800780D6
:105170000700000000000000000003F803F8003002
:10518000007000E001C0018003F803F80000000097
:10519000000001C003C003000300030003000E0071
:1051A0000E000300030003000300030003C001C05E
:1051B0000000018001800180018001800180018068
:1051C00001800180018001800180018001800180D7
:1051D0000180038003C000C000C000C000C0007098
:1051E000007000C000C000C000C000C003C0038049
:1051F00000000000000007880FF808F00000000021
:10520000000000000000000000000000000000009E
:105210000000535352730043265426462F733A001E
:105220006C702F7365633A00436F696C416D7073E6
:105230003A0046616E416D70733A00466C6F77318B
:1052400041766700466C6F773041766700466C6F39
:10525000776176670054657272733A00436F696CC8
:105260002F4176005420312F3200546176673A0086
:105270004F7065722044657461696C004552524FED
:10528000523A4C61737454656D7020617272617929
:105290002073697A65206578636565646564206656
:1052A0006F72204C696E6549443A0053746F7020E8
:1052B00043616C6C656421000810205F00000000F1
:1052C000000000000000000000000000101010109E
:1052D00010101010101000001010000024242424BE
:1052E00024240000000000000000000024242424E6
:1052F0007E7E24247E7E24242424000010103C3C46
:105300005050383814147878101000000000626291
:1053100064640808101026264646000030304848CD
:10532000484830304A4A44443A3A000010101010BD
:1053300010100000000000000000000010102020ED
:10534000404040404040202010100000101008084D
:10535000040404040404080810100000101054543D
:105360003838101038385454101000000000101055
:1053700010107C7C101010100000000000000000D5
:1053800000000000080808081010000000000000DD
:1053900000007E7E00000000000000000000000011
:1053A00000000000000000001010000000000202D9
:1053B0000404080810102020404000003C3C4242F9
:1053C00046465A5A626242423C3C0000080818189D
:1053D00008080808080808081C1C00003C3C424259
:1053E00002021C1C202040407E7E00007E7E0202C5
:1053F00004041C1C020242423C3C000004040C0C4D
:10540000141424247E7E0404040400007E7E4040A4
:105410007C7C0202020242423C3C00001E1E202014
:1054200040407C7C424242423C3C00007E7E020284
:105430000404080810101010101000003C3C4242F8
:1054400042423C3C424242423C3C00003C3C4242E4
:1054500042423E3E02020404787800000000000050
:1054600010100000101000000000000000000000FC
:1054700008080000080808081000000004040808D4
:105480001010202010100808040400000000000084
:105490007E7E00007E7E00000000000020201010B4
:1054A00008080404080810102020000020204040B4
:1054B0000000000000000000000000003C3C4242F0
:1054C0004A4A56564C4C40403E3E00001818242490
:1054D000424242427E7E4242424200007C7C424244
:1054E00042427C7C424242427C7C00003C3C424244
:1054F00040404040404042423C3C00007C7C4242B4
:1055000042424242424242427C7C00007E7E404017
:1055100040407C7C404040407E7E00007E7E40409B
:1055200040407C7C40404040404000003E3E404087
:105530004040404E4E4242423E3E000042424242C5
:1055400042427E7E424242424242000038381010BF
:105550001010101010101010383800000202020253
:1055600002020202020242423C3C00004242444427
:10557000484870704848444442420000404040401F
:1055800040404040404040407E7E000042426666CF
:105590005A5A5A5A424242424242000042426262CF
:1055A00052525A5A4A4A4646424200003C3C424203
:1055B00042424242424242423C3C00007C7C4242E7
:1055C00042427C7C40404040404000003C3C4242E3
:1055D000424242424A4A44443A3A00007C7C4242B7
:1055E00042427C7C48484444424200003C3C4242A7
:1055F00040403C3C020242423C3C00007C7C10109B
:1056000010101010101010101010000042424242F2
:1056100042424242424242423C3C000042424242FA
:10562000424242424242242418180000424242426E
:1056300042425A5A5A5A6666424200004242424226
:105640002424181824244242424200004444444482
:105650002828101010101010101000007E7E02027A
:1056600004041818202040407E7E00007E7E60608A
:1056700060606060606060607E7E000000004040AE
:105680002020101008080404020200007E7E060696
:1056900006060606060606067E7E000000000000DE
:1056A0001010282844440000000000000000000002
:1056B00000000000000000007E7E0000202010108E
:1056C00008080000000000000000000000000000CA
:1056D0003C3C02023E3E42423E3E000040404040D2
:1056E0007C7C4242424242427C7C0000000000003E
:1056F0003E3E4040404040403E3E0000020202022A
:105700003E3E4242424242423E3E00000000000015
:105710003C3C42427E7E40403E3E00001C1C222219
:1057200020207C7C20202020202000000000000081
:105730003C3C424242423E3E02023C3C40404040F1
:105740007C7C424242424242424200001010000031
:105750003030101010101010383800000404000011
:105760003C3C0404040404044444383840404040B1
:1057700042424444787844444242000030301010A1
:105780001010101010101010383800000000000029
:1057900066665A5A5A5A5A5A42420000000000009D
:1057A0007C7C4242424242424242000000000000F1
:1057B0003C3C4242424242423C3C0000000000006D
:1057C0007C7C424242427C7C4040404000000000E1
:1057D0003E3E424242423E3E0202020200000000C1
:1057E0005E5E6060404040404040000000000000BD
:1057F0003E3E40403C3C02027C7C000010101010F9
:105800007C7C1010101012120C0C00000000000024
:1058100042424242424246463A3A000000000000FC
:105820004242424242422424181800000000000074
:10583000424242425A5A5A5A66660000000000002C
:105840004242242418182424424200000000000090
:105850004242424242423E3E02023C3C00000000C4
:105860007E7E0404181820207E7E00000E0E18187C
:1058700018187070181818180E0E0000101010105C
:105880001010101010101010101000007070181868
:1058900018180E0E1818181870700000000000007C
:1058A0002424545448480000000000001010205FD9
:1058B00000000000000000000000000000000000E8
:1058C00000000000000000000000000000000000D8
:1058D0000000000007000F800F800F800F800F80F6
:1058E0000700070000000000070007000700000095
:1058F00000000E380E380E380E380630000000005A
:105900000000000000000000000000000000000097
:1059100000000C300C300C307FFE7FFE0C300C3061
:105920000C300C307FFE7FFE0C300C300C30000051
:105930000000024002400FF81FF81A401A401FF002
:105940000FF8025802581FF81FF0024002400000F2
:105950000000000000000E100E300E7000E001C0CC
:10596000038007000E700C7008700000000000003B
:10597000000000000F001980198019800F000F0827
:105980000F9819F818F018E019F00F9800000000AF
:10599000000000000700070007000E0000000000E4
:1059A00000000000000000000000000000000000F7
:1059B0000000000000F001C0038007000E000E0090
:1059C0000E000E000700038001C000F00000000080
:1059D000000000000F00038001C000E000700070B4
:1059E0000070007000E001C003800F0000000000A4
:1059F0000000000001801188099007E007E03FFCEB
:105A00003FFC07E007E009901188018000000000DA
:105A100000000000000000000180018001800FF004
:105A20000FF00180018001800000000000000000F4
:105A30000000000000000000000000000000000066
:105A40000000000000000700070007000E00000033
:105A500000000000000000000000000000001FF82F
:105A60001FF800000000000000000000000000001F
:105A70000000000000000000000000000000000026
:105A80000000000000000700070007000000000001
:105A90000000000000020006000E001C003800702C
:105AA00000E001C0038007000E001C0000000000A1
:105AB000000000000FF01C381C781CF81CF81DB802
:105AC0001DB81F381F381E381C380FF000000000AA
:105AD000000000000180018003801F801F80038080
