:100000000C949D330C94CE330C94CE330C94CE339D
:100010000C94CE330C94CE330C94CE330C94CE335C
:100020000C94CE330C94CE330C94CE330C94CE334C
:100030000C94CE330C94CE330C94CE330C94CE333C
:100040000C94CE330C94CE330C94CE330C94CE332C
:100050000C94CE330C94CE330C94CE330C94317F6D
:100060000C94CE330C944D800C9423800C94CE339E
:100070000C94CE330C94CE330C94CE330C94CE33FC
:100080000C94CE330C94CE330C94CE330C94CE33EC
:100090000C94F97F0C94CF7F0C94CE330C94778022
:1000A0000C94CE330C94CE330C94CE330C94CE33CC
:1000B0000C94CE330C94CE330C94CE330C94CE33BC
:1000C0000C94CE330C94CE330C94CE330C94A57F89
:1000D0000C947B7F0C94CE330C94CE330C94CE33A3
:1000E0000C94CE3305A84CCDB2D44EB93836A90203
:1000F0000C50B9918688083CA6AAAA2ABE00000026
:10010000803F0C94AD700C94866A0C941F8A0C94FA
:10011000EC360C94EC710C941F700C9491630C945D
:10012000B3630C94377D0C94E88A0C940A630C94A6
:10013000647D0C94EF8A0C94FC8A0C9462400C94BD
:100140009C410C949B810C94117C0C946C630C94DA
:100150001D6C0C9405730C94CD410C94D36B0C94D2
:1001600031400C94AB410C947A790C9442400C943D
:100170000F620C94BF410C9432720C94207A0C9450
:10018000018B0C947F710C94C0620C9437430C94D7
:1001900059430C94D18A0C94D0630C94BF430C94B3
:1001A000F2710C94E66B0C94A4700C94BC430C9408
:1001B00053720C9464710C940C6C0C948D430C94DD
:1001C000557D0C94536C0C944C400C94C7360C9495
:1001D0005E400C9473620C949A700C9419420C94C7
:1001E000BF6B0C9454400C9496360C9450400C9475
:1001F0002E630C942E6C0C94A0630C943C400C94D5
:1002000035430C94917D0C94D4480C94FC720C945E
:1002100046400C9485420C94E3710C94EF710C945D
:10022000A7700C94C6890C94F3720C94DC620C9445
:10023000FD360C94F3400C9439400C94CA710C9424
:10024000A7360C946C400C9473730C942D400C9452
:10025000EC630C947F630C949A780C9446430C9452
:1002600068400C94737D0C945A400C94C6630C94B3
:10027000E6720C94F96B0C94638F0C946A730C9473
:10028000827D0C94CB630C94287D0C94B28A0C94E0
:1002900036430C9456410C94F66A0C945D700C94A1
:1002A00030760C944A410C9435400C94AB8A0C94F3
:1002B00067400C94FC620C94A86B0C9434430C942F
:1002C000B0700C94B17A0C943F6C0C94467D0C94F5
:1002D000AA700C94F4890C949F620C94A1700C94F5
:1002E00050640C9427400C94E6710C942B370C94BA
:1002F00011370C9452630C94D8720C9415770C94AB
:1003000060430C94E9710C94F86F0C947C7B004072
:100310007A10F35A00A0724E18090010A5D4E80014
:1003200000E87648170000E40B54020000CA9A3B2C
:10033000000000E1F50500008096980000004042B2
:100340000F000000A0860100000010270000000040
:10035000E803000000006400000000000A00000044
:1003600000000100000000002C76D888DC674F08F0
:1003700023DFC1DFAE59E1B1B796E5E3E453C63AF6
:10038000E651997696E8E6C28426EB898C9B62ED6D
:10039000407C6FFCEFBC9C9F40F2BAA56FA5F49027
:1003A000055A2AF75C936B6CF9676DC11BFCE0E49E
:1003B0000D47FEF520E6B500D0ED902E03009435F4
:1003C00077050080841E080000204E0A000000C847
:1003D0000C333333330F986E12831141EF8D211498
:1003E000893BE65516CFFEE6DB18D1844B381BF768
:1003F0007C1D901DA4BBE424203284725E22810007
:10040000C9F124ECA1E53D27776972652069326363
:1004100020666F722066616E20626567696E0053A8
:10042000657474696E672046616E536574506F69B8
:100430006E744570726F6D00230031386D696E0007
:1004400031356D696E0031326D696E00396D696EDE
:1004500000366D696E00336D696E006D006D00438E
:100460006F6F6C64776E54203A00546F6F486F74EE
:1004700054656D3A00536B697074656D70733A0022
:100480006C6F6F70732F7365633A00496E74202030
:10049000202020203A004761696E20202020203A49
:1004A00000494572203A00457272203A0044757442
:1004B000793A00536574203A0054696D653A000832
:1004C0000C205F00000000000000000000000000A1
:1004D0000020202020202000200000002850500074
:1004E0000000000000000000002828FC2850FC50FC
:1004F000500000002078A8A0603028A8F02000005C
:100500000048A8B050283454480000000020505043
:1005100078A8A8906C000000404080000000000017
:100520000000000004081010101010100804000053
:10053000402010101010101020400000000020A8D3
:100540007070A8200000000000202020F82020204B
:10055000000000000000000000000000404080009B
:1005600000000000F8000000000000000000000093
:100570000000000040000000081010102020404043
:10058000408000000070888888888888700000009B
:10059000002060202020202070000000007088884B
:1005A00010204080F800000000708808300808889B
:1005B00070000000001030505090781018000000BB
:1005C00000F88080F00808887000000000709080BB
:1005D000F08888887000000000F89010202020200B
:1005E00020000000007088887088888870000000F3
:1005F000007088888878084870000000000000209B
:1006000000000000200000000000000020000000AA
:1006100020200000040810204020100804000000E2
:10062000000000F80000F800000000004020100862
:10063000040810204000000000708888102020006E
:100640002000000000708898A8A8B88078000000FA
:100650000020203050507848CC00000000F048487E
:1006600070484848F00000000078888080808088CA
:100670007000000000F0484848484848F00000007A
:1006800000F8485070504048F800000000F848500A
:1006900070504040E000000000384880809C88484E
:1006A0003000000000CC484878484848CC000000A2
:1006B00000F8202020202020F8000000007C1010EE
:1006C0001010101090E0000000EC485060505048AE
:1006D000EC00000000E0404040404044FC000000CE
:1006E00000D8D8D8D8A8A8A8A800000000DC48687E
:1006F00068585848E8000000007088888888888812
:100700007000000000F0484870404040E0000000E9
:10071000007088888888E8987018000000F04848C1
:1007200070504848EC00000000788880601008880D
:10073000F000000000F8A820202020207000000019
:1007400000CC4848484848483000000000CC4848A1
:10075000505030202000000000A8A8A87050505031
:100760005000000000D8505020205050D800000009
:1007700000D85050202020207000000000F8901079
:1007800020204048F8000000382020202020202091
:1007900020380000404040202010101008000000C9
:1007A0007010101010101010107000002050000079
:1007B0000000000000000000000000000000000039
:1007C0000000FC002000000000000000000000000D
:1007D00000000000304838483C00000000C04040A5
:1007E0007048484870000000000000003848404051
:1007F0003800000000180808384848483C0000004D
:10080000000000003048784038000000001C202024
:100810007820202078000000000000003C48304094
:100820007844380000C0404070484848EC00000060
:100830000020000060202020700000000010000058
:10084000301010101010E00000C040405C507048A4
:10085000EC00000000E0202020202020F800000014
:1008600000000000F0A8A8A8A800000000000000F8
:10087000F0484848EC0000000000000030484848BC
:100880003000000000000000F04848487040E000E0
:10089000000000003848484838081C0000000000EC
:1008A000D8604040E00000000000000078403008C0
:1008B0007800000000002020702020201800000098
:1008C00000000000D84848483C000000000000003C
:1008D000EC4850302000000000000000A8A8705034
:1008E0005000000000000000D8502050D800000048
:1008F00000000000EC4850302020C0000000000044
:10090000781020207800000018101010201010100F
:1009100010180010101010101010101010101000EF
:10092000602020201020202020600040A41800001B
:10093000000000000000001830205F0000000000F0
:1009400000000000000000000000000000000000A7
:100950000000000000000000000000000000000097
:100960000000000000000000000000000000000087
:100970000000000000000000000000000000000077
:100980000000000000000000000000000000000067
:100990000000000000000000000000000000000057
:1009A0000000000000000000000000000000000047
:1009B0000000000000000000000000000000000037
:1009C0000000000000000000000000000000000027
:1009D00000000000000000001E00001E00001E00BD
:1009E000001E00001E00001E00001E00001E000071
:1009F0001E00001E00001E00001E00001E00001E43
:100A000000001E00001E00001E00001E00001E0050
:100A1000001E00001E00001E00001C00001C000044
:100A20001C000000000000000000000000000000AA
:100A300000000000000000003E00003E00003E00FC
:100A4000003E00003E00003E0000000000000000EC
:100A50000000000000000000000000000000000096
:100A60000000000000E07001E0F001E0F001C0E0F3
:100A700003C1E003C1E007C3E007C3E007C3E00F21
:100A800087C00F87C00F87C00F87C00F87C00F8731
:100A9000C000000000000000000000000000000096
:100AA0000000000000000000000000000000000046
:100AB0000000000000000000000000000000000036
:100AC0000000000000000000000000000000000026
:100AD0000000000000000000000000000000000016
:100AE0000000000000000000000000000000000006
:100AF0000000000000000000000000383800383816
:100B000000383800787800787800707000707000D5
:100B1000707000F0F01FFFFF1FFFFF1FFFFF1FFFA0
:100B2000FF00E0E001E1E001E1C001C1C001C1C09E
:100B300001C1C003C3C003C3800383807FFFF8FFEC
:100B4000FFFCFFFFFCFFFFFCFFFFF80707000707A4
:100B5000000F0F000F0F000E0E000E0E000E0E0005
:100B60001E1E001E1E001C1C0000000000000000D5
:100B70000000000000000000000000000C00000C5D
:100B800000000C00000C00000C00000C00003F00F6
:100B900001FFF003FFF007FFF007CC700F8C100F80
:100BA0000C000F0C000E0C000E0C000F0C000F0CB4
:100BB000000F8C000FCC0007FC0003FF8001FFC07A
:100BC00000FFF0001FF0000DF8000C78000C3C0056
:100BD0000C3C000C3C000C3C000C3C000C3C080C99
:100BE0003C0C0C780F8CF80FFFF00FFFE003FFC0F8
:100BF00000FF00000C00000C00000C00000C0000C6
:100C00000C00000C00000C00000C000000000000B4
:100C1000000000000000000000000000000FC00005
:100C20001FE0003FF0003CF0007878007038007062
:100C30003800E03800E0380070380070380078780C
:100C4000063FF01E3FF07E1FE1FC0F87F0001FC043
:100C5000007F0001FC0007F0000FC1F07F07F87E65
:100C60000FFC780F3C601E0E001C0E001C06001CC2
:100C700007001C07001C07001C0E001E0E000F3E84
:100C8000000FFC0007F80003F00000000000000067
:100C90000000000000000000000000000000000054
:100CA00000000000003C0000FF8001FF8003FF8087
:100CB00007FF8007C08007800007800007800007CB
:100CC000800007800007800007800003C00003C089
:100CD0000001E00003E00007F0000FF0000F7800D3
:100CE0001E7C0F3E3C0F3C1E0F3C1E0F780F0E78F3
:100CF0000F0E78078E78078E7803CE7803FC7C0180
:100D0000FC7C01FC3C00F83E00F81F01F81FC7FC0A
:100D10000FFFFE07FF9E03FF1F00FC000000000006
:100D200000000000000000000000000000000000C3
:100D300000000000000F00000F00000E00001E0069
:100D4000001E00003E00003E00003C00007C000051
:100D50007C00007C00007C00007C00007C00007CAB
:100D60000000000000000000000000000000000083
:100D70000000000000000000000000000000000073
:100D80000000000000000000000000000000000063
:100D90000000000000000000000000000000000053
:100DA0000000000000000000000000000000000043
:100DB00000000000000000000000000003800007A9
:100DC00080000700000F00000E00001E00001E0043
:100DD000001C00003C00003C0000380000780000CF
:100DE000780000780000780000700000F00000F04B
:100DF0000000F00000F00000F00000F00000F00043
:100E000000F00000F00000F00000F00000F0000032
:100E1000F00000F00000F0000070000078000078A2
:100E200000007800007800003800003C00003C0022
:100E3000001C00001E00001E00000E00000F00003D
:100E4000070000078000030000000001C00001E06F
:100E50000000E00000F00000700000780000780062
:100E6000003800003C00003C00003C00001E000078
:100E70001E00001E00001E00000E00000F00000FEC
:100E800000000F00000F00000F00000F00000F0017
:100E9000000F00000F00000F00000F00000F000007
:100EA0000F00000F00000F00000E00001E00001ECB
:100EB00000001E00001E00003C00003C00003C0042
:100EC00000380000780000780000700000F000009A
:100ED000E00001E00001C000000000000000000090
:100EE0000000000000000000000000000000000002
:100EF000000000000000001C00001C00001C00009E
:100F00001C00001C00001C04381C0E3C1C1E7E1C17
:100F10007E1F1CFC0FDDF003FFE001FFC0007F001F
:100F2000003E0000FF0001FFC007FFE00F9DF81F1B
:100F30001CFC7E1C3E3C1C1E301C0E001C00001CB9
:100F400000001C00001C00001C00001C0000000031
:100F50000000000000000000000000000000000091
:100F60000000000000000000000000000000000081
:100F70000000000000000000000000000000000071
:100F8000000000000000000C00001C00001C00001D
:100F90001C00001C00001C00001C00001C00001CA9
:100FA00000001C00001C00001E003FFFFE3FFFFE73
:100FB0003FFFFE3FFFFE001E00001C00001C000063
:100FC0001C00001C00001C00001C00001C00001C79
:100FD00000001C00001C00000000000000000000D9
:100FE0000000000000000000000000000000000001
:100FF00000000000000000000000000000000000F1
:1010000000000000000000000000000000000000E0
:1010100000000000000000000000000000000000D0
:1010200000000000000000000000000000000000C0
:1010300000000000000000000000000000000000B0
:1010400000000000000000000000000000000000A0
:101050000000000000007E00007E00007E00007E98
:1010600000007E00007E00007E00007E0000FC008C
:1010700000FC0000FC0000F80000F80001F0000196
:10108000F00001F00001E00001E0000000000000BD
:101090000000000000000000000000000000000050
:1010A0000000000000000000000000000000000040
:1010B0000000000000000000000000000000000030
:1010C000000000000000000000003FFFFE3FFFFEA8
:1010D0003FFFFE3FFFFE1FFFFC000000000000007E
:1010E0000000000000000000000000000000000000
:1010F00000000000000000000000000000000000F0
:1011000000000000000000000000000000000000DF
:1011100000000000000000000000000000000000CF
:1011200000000000000000000000000000000000BF
:1011300000000000000000000000000000000000AF
:10114000000000000000000000000000000000009F
:10115000000000000000000000000000000000008F
:10116000000000000000000000000000000000007F
:10117000000000000000000000000000FE0000FE73
:101180000000FE0000FE0000FE0000FE0000FE0069
:1011900000FE0000FE0000FE000000000000000055
:1011A000000000000000000000000000000000003F
:1011B0000000000000000000000000000000003CF3
:1011C0000000780000780000F00000F00001F0005E
:1011D00001E00003E00003C00003C0000780000737
:1011E00080000F00000F00001F00001E00001E0006
:1011F000003C00003C00007C00007800007800000B
:10120000F00000F00001E00001E00003E00003C096
:101210000003C0000780000780000F00000F0000DF
:101220001F00001E00003E00000000000000000043
:1012300000000000000000000000000000000000AE
:1012400000000000001800007F0001FF8003FFC0C5
:1012500003FFE007C3E00781F00F80F00F00F00FFD
:1012600001F80F01F81F01F81E03F81E03F81E070E
:101270003C1E077C1E0E3C1E0E3C1E1C3C1E1C3CD5
:101280001E3C3C1E383C1E783C1E703C1EF07C1EF2
:10129000E07C1FE0781FC0781FC0781F80780F8027
:1012A000780F00F80F00F00781F007C1F007F7E0B2
:1012B00003FFC001FFC000FF80003E0000000000EF
:1012C000000000000000000000000000000000001E
:1012D00000000000000000001F00003F0000FF00B1
:1012E00003FF0007FF000FFF000FCF000F0F000EDE
:1012F0000F00080F00000F00000F00000F00000F8C
:1013000000000F00000F00000F00000F00000F0092
:10131000000F00000F00000F00000F00000F000082
:101320000F00000F00000F00000F00000F00000F63
:1013300000000F00000F00000F00001F0007FFFC5F
:1013400007FFFC07FFFC07FFFC0000000000000097
:10135000000000000000000000000000000000008D
:1013600000000000007C0003FF800FFFE01FFFF083
:101370001FFFF01F81F81C00F818007C00003C00E3
:10138000003C00003C00003C00003C00003C000031
:101390003C00007C0000780000F80000F00001F044
:1013A0000003E00003C00007C0000F80001F000022
:1013B0001E00003E00007C0000F80001F00001E08B
:1013C0000003E00007C0000F80001F80001FFFFE29
:1013D0001FFFFE1FFFFE1FFFFC00000000000000BB
:1013E00000000000000000000000000000000000FD
:1013F00000000000007C0007FF000FFFC00FFFE0AF
:101400000FFFF00E03F00800F80000F8000078006D
:101410000078000078000078000078000078000074
:10142000F80001F0000FE000FFC000FF8000FF8027
:1014300000FFE00003F00001F00000F80000780079
:10144000007C00003C00003C00003C00003C000030
:101450003C00007C0000781000F81C01F81FFFF031
:101460001FFFE01FFFC00FFF8001FE000000000013
:10147000000000000000000000000000000000006C
:10148000000000000000000003C00007E00007E0CB
:10149000000FE0000FE0001FE0001FE00039E00057
:1014A0003BE00073E00073E000F3E000E3E001E301
:1014B000E001C3E003C3E00383E00783E00703E048
:1014C0000F03E00F03E00E03E01E03E01C03E03C0B
:1014D00003E03FFFFC3FFFFE3FFFFE3FFFFC00033A
:1014E000E00003E00003E00003E00003E00003E0AD
:1014F0000003E00003E00003E00000000000000043
:1015000000000000000000000000000000000000DB
:10151000000000000000000FFFF00FFFF00FFFF0D1
:101520000FFFF00FFFF00F00000F00000F00000F83
:1015300000000F00000F00000F00000F00000FFF61
:10154000000FFF800FFFE00FFFE00F8FF00C01F89E
:101550000000F800007800007C00003C00003C0027
:10156000003C00003C00003C00003C00003C00004F
:101570003C00007C0000781000F81C01F01FFFF018
:101580001FFFE01FFFC00FFF8003FC0000000000F2
:10159000000000000000000000000000000000004B
:1015A00000000000000F00007FE000FFF001FFF0EE
:1015B00003FFF003E07007C0000780000F00000F7A
:1015C00000000F00001E00001E00001E00001E3F55
:1015D000001E7FC01CFFE01DFFF01FE1F01F80F820
:1015E0001F80781F00781F007C1F003C1E003C1EDF
:1015F000003C1E003C1E003C1E003C1E003C0F0038
:101600003C0F007C0F00780F80F807C0F807E3F06C
:1016100003FFE001FFE000FFC0003F00000000000A
:1016200000000000000000000000000000000000BA
:10163000000000000000001FFFFC1FFFFC1FFFFC5C
:101640001FFFFC1FFFF80000780000F80000F0000A
:1016500000F00000F00001E00001E00001E0000304
:10166000E00003C00003C00007C00007800007803F
:10167000000F80000F00000F00001F00001F00007F
:101680001E00003E00003E00003C00003C00007CCC
:101690000000780000780000F80000F00000F00082
:1016A00001F00001E00001E0000000000000000087
:1016B000000000000000000000000000000000002A
:1016C00000000000003C0000FF8003FFC003FFE0BB
:1016D00007FFF00FC1F00F80F80F00780F00781FA0
:1016E00000781F00781F00780F00780F00780F0037
:1016F000F00780F007C1E003FFC000FF8000FF801B
:1017000003FFE007E7F00F80F00F00781F00781E5E
:10171000007C1E003C1E003C1E003C1E003C1E00C7
:101720003C1E007C1F007C1F00780F80F80FE3F048
:1017300007FFF003FFE001FFC0007F000000000092
:101740000000000000000000000000000000000099
:1017500000000000003C0001FF0003FF8007FFC005
:1017600007FFE00F81E00F00F01F00F01E00781E61
:1017700000781E00781E00781E00781E00781E007B
:101780007C1E007C1E007C1E007C1E00FC1F00FCDA
:101790000F01FC0F83FC07FFFC07FFBC03FF3C00AD
:1017A000FE3C00003800007800007800007800005F
:1017B000780000F00000F00001F00603E007FFC031
:1017C00007FFC007FF8007FF0001FC0000000000CA
:1017D0000000000000000000000000000000000009
:1017E00000000000000000000000000000000000F9
:1017F000000000000000000000000000007E00006B
:101800007E00007E00007E00007E00007E00007EE4
:1018100000007E00007E00000000000000000000CC
:1018200000000000000000000000000000000000B8
:101830000000000000007E00007E00007E00007EB0
:1018400000007E00007E00007E00007E00007E0022
:10185000007E00000000000000000000000000000A
:101860000000000000000000000000000000000078
:101870000000000000000000000000000000000068
:10188000000000000000000000000000007E0000DA
:101890007E00007E00007E00007E00007E00007E54
:1018A00000007E00007E000000000000000000003C
:1018B0000000000000000000000000000000000028
:1018C0000000000000007E00007E00007E00007E20
:1018D00000007E00007E00007E00007E00007E0092
:1018E000007C0000FC0000F80000F80000F8000197
:1018F000F00001F00001E000000000000000000026
:1019000000000000000000000000000000000000D7
:1019100000000000000000000000000200000E00B7
:10192000003E0000FE0003FE0007FC001FF0007FE9
:10193000C001FF0007FC001FF0003FC0003E000098
:101940003E00003F80003FE0000FF80003FE000073
:10195000FF80003FE0000FFC0003FE0000FE0000DF
:101960003E00000E00000200000000000000000029
:101970000000000000000000000000000000000067
:101980000000000000000000000000000000000057
:101990000000000000000000000000000000000047
:1019A0000000000000000000000000000000000037
:1019B00000000000000000003FFFFE3FFFFE3FFF71
:1019C000FE3FFFFE000000000000000000000000DD
:1019D0000000000000000000000000003FFFFE3F8C
:1019E000FFFE3FFFFE3FFFFE000000000000000082
:1019F00000000000000000000000000000000000E7
:101A000000000000000000000000000000000000D6
:101A100000000000000000000000000000000000C6
:101A200000000000000000000000000000000000B6
:101A30000000000000000000002000003800003C12
:101A400000003F00003FC0001FF00007FC0001FF46
:101A500000007FC0001FF00007FC0001FE00007EB8
:101A600000003E0000FE0003FC000FF8007FE001D4
:101A7000FF8007FE001FF8003FE0003F80003E00AF
:101A800000380000200000000000000000000000FE
:101A90000000000000000000000000000000000046
:101AA0000000000000000000000000000000000036
:101AB00000000000001E0000FF8003FFC007FFE0E1
:101AC00007FFF00781F00600F80400F80000780036
:101AD00000780000780000780000F80000F00001B5
:101AE000F00003E00007C00007C0000F80001F00E7
:101AF000001E00003E00003C00003C00003C0000D6
:101B00003C00003C00003C00003C000000000000E5
:101B100000000000000000003C00003C00003C0011
:101B2000003C00003C00003C000000000000000001
:101B300000000000000000000000000000000000A5
:101B400000000000000000001F8000FFC001FFF047
:101B500003FFF007C0F80F80380F003C1E001C1C6C
:101B6000001E3C000E38000E780FCE781FEE703F3E
:101B7000FE707FFE70783EF0F03EF0F01EF0E01E4A
:101B8000E0E00EE0E00EE0E00EE0E00EE0E00EF05F
:101B9000E00EF0E01EF0F01EF0703E707C7E703FB4
:101BA000FE703FEE781FEE3807803C00003C0000DE
:101BB0001E00000F00000F800007C00003F80001A6
:101BC000FFFC00FFFC003FFC0007FC0000000000E1
:101BD00000000000000000007C00007E00007E008D
:101BE000007E0000FE0000FF0000EF0001EF00019A
:101BF000E70001E78001E78001C78003C78003C7D2
:101C00008003C3C003C3C00783C00783C00781E04C
:101C10000781E00F01E00F01E00F00F00F00F00F6F
:101C2000FFF01FFFF01FFFF01FFFF81E00783C00C1
:101C3000783C007C3C003C3C003C7C003C78003C18
:101C400078003E78001EF8001E0000000000000032
:101C50000000000000000000000000000000000084
:101C6000000000000000001FFE001FFF801FFFC0DB
:101C70001FFFE01E07F01E01F01E00F81E00781E78
:101C800000781E00781E00781E00781E00F81E01E5
:101C9000F01E07F01FFFE01FFF801FFFC01FFFE0C7
:101CA0001E03F01E00F81E00781E00781E007C1E29
:101CB000003C1E003C1E003C1E003C1E003C1E0062
:101CC0003C1E007C1E007C1E00F81E03F81FFFF067
:101CD0001FFFE01FFFC01FFF00000000000000000A
:101CE00000000000000000000000000000000000F4
:101CF00000000000000F00007FE000FFF001FFF88F
:101D000003FFF807E07807C0180F80000F00000FEE
:101D100000001F00001E00001E00001E00001E002C
:101D2000003E00003E00003E00003E00003E00007D
:101D30003E00003E00003E00003E00003E00001E4F
:101D400000001E00001E00001E00001F00000F000B
:101D5000000F00000F800007C01807E03803F9F8F3
:101D600001FFF800FFF8007FF0001F800000000076
:101D70000000000000000000000000000000000063
:101D8000000000000000001FF0003FFE003FFF00C9
:101D90003FFF803E3FC03E07E03E03E03E01F03E95
:101DA00000F03E00F03E00F83E00783E00783E0035
:101DB000783E00783E00783E007C3E007C3E007C11
:101DC0003E007C3E007C3E007C3E00783E00783E3B
:101DD00000783E00783E00783E00F83E00F83E0075
:101DE000F03E01F03E01E03E07E03E1FC03FFFC075
:101DF0003FFF803FFE003FF80000000000000000B1
:101E000000000000000000000000000000000000D2
:101E1000000000000000000FFFF81FFFF81FFFF890
:101E20001FFFF81FFFF81F00001F00001F00001F0A
:101E300000001F00001F00001F00001F00001F0007
:101E4000001FFFF01FFFF01FFFF01FFFF01FFFF04C
:101E50001F00001F00001F00001F00001F00001FC8
:101E600000001F00001F00001F00001F00001F00D7
:101E7000001F00001F00001F00001F00001FFFF8D0
:101E80001FFFF81FFFF80FFFF80000000000000020
:101E90000000000000000000000000000000000042
:101EA000000000000000000FFFF80FFFFC0FFFFC18
:101EB0000FFFFC0FFFF80F00000F00000F00000FD6
:101EC00000000F00000F00000F00000F00000F00C7
:101ED000000FFFF00FFFF00FFFF00FFFF00FFFF00C
:101EE0000F00000F00000F00000F00000F00000F98
:101EF00000000F00000F00000F00000F00000F0097
:101F0000000F00000F00000F00000F00000F000086
:101F10000F00000F00000F00000000000000000094
:101F200000000000000000000000000000000000B1
:101F300000000000000F00007FC000FFF003FFF86A
:101F400003FFF807E0780780180F80180F00001FC4
:101F500000001E00001E00001E00003E00003E00AB
:101F6000003C00003C00003C00003C00003C000045
:101F70003C07FC3C07FC3C07FC3C07FC3C007C3C71
:101F8000007C3E007C3E007C1E007C1E007C1E000F
:101F90007C1F007C0F007C0F807C07C07C07F9FC55
:101FA00003FFF801FFF000FFE0001F8000000000C9
:101FB0000000000000000000000000000000000021
:101FC000000000000000001C00783E00783E007811
:101FD0003E00783E00783E00783E00783E00783E35
:101FE00000783E00783E00783E00783E00783E0063
:101FF000783FFFF83FFFF83FFFF83FFFF83FFFF85B
:102000003E00783E00783E00783E00783E00783E04
:1020100000783E00783E00783E00783E00783E0032
:10202000783E00783E00783E00783E00783E0078AA
:102030003E00783E00783E0078000000000000007E
:102040000000000000000000000000000000000090
:10205000000000000000000FFFF01FFFF01FFFF066
:102060001FFFF00FFFF0003C00003C00003C0000B0
:102070003C00003C00003C00003C00003C00003CF8
:1020800000003C00003C00003C00003C00003C0024
:10209000003C00003C00003C00003C00003C000014
:1020A0003C00003C00003C00003C00003C00003CC8
:1020B00000003C00003C00003C00007C001FFFF0E2
:1020C0001FFFF01FFFF00FFFF000000000000000F6
:1020D0000000000000000000000000000000000000
:1020E0000000000000000001FFC001FFE001FFE070
:1020F00001FFE001FFE00003E00003E00003E00077
:1021000003E00003E00003E00003E00003E000035D
:10211000E00003E00003E00003E00003E00003E070
:102120000003E00003E00003E00003E00003E00040
:1021300003E00003E00003E00003E00003E000032D
:10214000C00003C02003C03007C03C07C03F1F8051
:102150003FFF803FFF000FFE0003F800000000007B
:10216000000000000000000000000000000000006F
:10217000000000000000001C003E3E003E3E007CCF
:102180003E00F83E01F03E01F03E03E03E07C03E57
:1021900007803E0F803E1F003E3E003E3C003E7CDE
:1021A000003EF8003CF0003FF0003FF8003FFC002C
:1021B0003FFC003F3E003F1E003E1F003E0F003E22
:1021C0000F803E07803E07C03E03C03E03E03E0155
:1021D000E03E01F03E00F03E00F83E00783E007C1C
:1021E0003E003C3E003E3E001F000000000000009C
:1021F00000000000000000000000000000000000DF
:10220000000000000000000F00000F00000F0000A1
:102210000F00000F00000F00000F00000F00000F64
:1022200000000F00000F00000F00000F00000F0063
:10223000000F00000F00000F00000F00000F000053
:102240000F00000F00000F00000F00000F00000F34
:1022500000000F00000F00000F00000F00000F0033
:10226000000F00000F00000F00000F00000FFFFC28
:102270000FFFFC0FFFFC0FFFFC0000000000000040
:10228000000000000000000000000000000000004E
:10229000000000000000007C00F8FC00F8FE01F8DF
:1022A000FE01F8FE01F8FE01F8FF03F8F703B8F7A6
:1022B00003B8F70738F38738F38738F38738F38F95
:1022C00038F1CE38F1CE38F1CE38F1CC38F0FC38D8
:1022D000F0FC38F0FC38F07838F07838F07838F0E6
:1022E0003038F00038F00038F00038F00038F000F6
:1022F00038F00038F00038F00038F00038F00038DE
:10230000F00038F0003870003800000000000000D5
:1023100000000000000000000000000000000000BD
:1023200000000000000000FC0078FC0078FE00784F
:10233000FE0078FE0078FF0078FF0078FF0078FF4D
:102340008078F78078F3C078F3C078FBC078F9E044
:1023500078F9E078F9E078F8F078F8F078F87878BB
:10236000F87878F87878F83C78F83C78F83C78F8A1
:102370001E78F81E78F81E78F80F78F80F78F807AE
:1023800078F807F8F807F8F803F8F803F8F803F80E
:10239000F801F8F801F8F000F80000000000000073
:1023A000000000000000000000000000000000002D
:1023B00000000000003C0000FF0003FF8003FFC09E
:1023C00007FFE00F83E00F81F00F00F01F00F01E09
:1023D00000F81E00781E00783E00783E00783E002F
:1023E0007C3E007C3C007C3C007C3C007C3C007CD7
:1023F0003C007C3C007C3C007C3C007C3E007C3E05
:10240000007C3E00783E00781E00781E00781E009A
:10241000F81E00F81F00F00F01F00F81F007E7E051
:1024200007FFC003FFC001FF80007E000000000026
:10243000000000000000000000000000000000009C
:10244000000000000000000FFF000FFFC00FFFE0C2
:102450000FFFF00F07F80F00F80F007C0F007C0F44
:10246000003C0F003C0F003C0F003C0F003C0F00F5
:102470003C0F003C0F007C0F007C0F00F80F07F8AA
:102480000FFFF00FFFE00FFFC00FFF000F00000F66
:1024900000000F00000F00000F00000F00000F00F1
:1024A000000F00000F00000F00000F00000F0000E1
:1024B0000F00000F00000F000000000000000000EF
:1024C000000000000000000000000000000000000C
:1024D00000000000007C0001FF0003FFC007FFC0F8
:1024E00007FFE00F81F00F01F01F00F01E00F81E43
:1024F00000F81E00781E00783E00783E007C3E000A
:102500007C3E007C3C007C3C007C3C007C3C007CB5
:102510003C007C3C007C3C007C3C007C3E007C3EE3
:10252000007C3E00781E00781E00781E00781E0099
:10253000F81F00F00F01F00F81F007E7E007FFC080
:1025400003FFC001FF80007F800007C00003E000A0
:1025500001F00001F00000E0000040000000000079
:10256000000000000000001FFC001FFF801FFFC0D4
:102570001FFFE01E0FE01E03F01E01F01E00F01E04
:1025800000F81E00F81E00F81E00F81E00F81E00DD
:10259000F81E00F01E00F01E01F01E07E01FFFC035
:1025A0001FFF801FFF001FFF801E0FC01E03C01EE5
:1025B00003E01E01E01E01F01E00F01E00F01E00F0
:1025C000F81E00781E007C1E003C1E003C1E003ED3
:1025D0001E001E1E001E1E001F0000000000000046
:1025E00000000000000000000000000000000000EB
:1025F00000000000003C0001FFC003FFE007FFF007
:102600000FFFF00F80F01F00301E00001E00001EA4
:1026100000003C00003C00003E00001E00001E00C8
:10262000001F00001FC0000FF8000FFF0007FFC0D1
:1026300001FFE0007FE0000FF00001F80000F8006B
:102640000078000078000078000078000078000032
:10265000780000781000781800F81E01F01FCFF005
:102660001FFFE01FFFC007FF8001FE000000000009
:10267000000000000000000000000000000000005A
:10268000000000000000007FFFFE7FFFFE7FFFFED6
:102690007FFFFE7FFFFE003C00003C00003C00008E
:1026A0003C00003C00003C00003C00003C00003CC2
:1026B00000003C00003C00003C00003C00003C00EE
:1026C000003C00003C00003C00003C00003C0000DE
:1026D0003C00003C00003C00003C00003C00003C92
:1026E00000003C00003C00003C00003C00003C00BE
:1026F000003C00003C00003C000000000000000026
:1027000000000000000000000000000000000000C9
:10271000000000000000001E00781E00781E0078F7
:102720001E00781E00781E00781E00781E00781E9D
:1027300000781E00781E00781E00781E00781E00AB
:10274000781E00781E00781E00781E00781E007823
:102750001E00781E00781E00781E00781E00781E6D
:1027600000781E00781E00781E00781E00781E007B
:10277000781E00781E00780F00F80F81F00FE7F048
:1027800007FFE003FFC001FF80007E0000000000A3
:102790000000000000000000000000000000000039
:1027A0000000000000000078001E7C003E3C003E5F
:1027B0003C003C3C003C3C003C1E003C1E00781EA3
:1027C00000781E00781F00780F00F80F00F00F004F
:1027D000F00F00F00F00F00781E00781E00781E0D3
:1027E0000781E003C1E003C3C003C3C003C3C00348
:1027F000C3C001E38001E78001E78001E78000E7D3
:102800000000E70000F70000FF00007F00007E00EE
:10281000007E00007E00003E00000000000000007E
:1028200000000000000000000000000000000000A8
:1028300000000000000000F0000FF0000FF0000F9B
:10284000F0000FF0000F78000F78001E78001E785F
:10285000001E78001E783C1E783C1E783E1E787E56
:102860001E387E1E387E1C387E1C3C7E3C3C773CED
:102870003CE73C3CE73C3CE73C1CE73C1CE73C1CA1
:10288000E7381CC3B81DC3B81DC3B81FC3B81FC3E6
:10289000F81FC1F80F81F80F81F00F81F00F81F060
:1028A0000F81F00F00F00F00F000000000000000AA
:1028B0000000000000000000000000000000000018
:1028C000000000000000003C001E3E003E1E003CD8
:1028D0001F007C0F00780F00F80780F00781F003DD
:1028E000C1E003C1E001E3C001E3C001F78000F7EC
:1028F0008000FF00007F00007E00003E00003E00E0
:10290000007E00007F0000FF0000F78001F78001DB
:10291000E7C003E3C003C3C007C1E00781E007804D
:10292000F00F00F00F00781E00781E007C3C003C89
:102930003C003E7C001E78001F00000000000000EC
:102940000000000000000000000000000000000087
:102950000000000000000078001E7C003E3C003CAF
:102960003C003C3E00781E00781F00F80F00F00F7E
:1029700081F00781E00781E003C3C003C3C003E720
:102980008001E78001E78000FF0000FF00007E007B
:10299000007E00003C00003C00003C00003C0000C9
:1029A0003C00003C00003C00003C00003C00003CBF
:1029B00000003C00003C00003C00003C00003C00EB
:1029C000003C00003C00003C000000000000000053
:1029D00000000000000000000000000000000000F7
:1029E000000000000000000FFFFC1FFFFE1FFFFEA5
:1029F0001FFFFE0FFFFC00007C0000780000F800C5
:102A000000F00001F00001E00003E00003C0000757
:102A1000C0000780000F80000F00001F00001E0094
:102A2000003E00003C00007C0000780000F8000040
:102A3000F00001F00001E00003C00003C0000780C7
:102A4000000780000F00000F00001F00001FFFFEA6
:102A50001FFFFE1FFFFE1FFFFE0000000000000022
:102A60000000000000000000000000001FE0001F48
:102A7000F0001FF0001FE0001E00001E00001E00FE
:102A8000001E00001E00001E00001E00001E0000B0
:102A90001E00001E00001E00001E00001E00001E82
:102AA00000001E00001E00001E00001E00001E0090
:102AB000001E00001E00001E00001E00001E000080
:102AC0001E00001E00001E00001E00001E00001E52
:102AD00000001E00001E00001E00001E00001E0060
:102AE000001FF0001FF0001FE000000000000000C9
:102AF00000000000000000000000000000000000D6
:102B0000000000000000000000000000003C000089
:102B10003E00001E00001F00000F00000F00000715
:102B2000800007800003C00003C00003E00001E054
:102B30000001E00000F00000F000007800007800E4
:102B4000007C00003C00003C00001E00001E000055
:102B50000F00000F00000F800007800007800003B7
:102B6000C00003C00001E00001E00001F00000F03F
:102B70000000F00000780000780000000000000075
:102B8000000000000000000000000003FC0003FC47
:102B90000003FC0003FC00003C00003C00003C0083
:102BA000003C00003C00003C00003C00003C0000F9
:102BB0003C00003C00003C00003C00003C00003CAD
:102BC00000003C00003C00003C00003C00003C00D9
:102BD000003C00003C00003C00003C00003C0000C9
:102BE0003C00003C00003C00003C00003C00003C7D
:102BF00000003C00003C00003C00003C00003C00A9
:102C000003FC0003FC0003FC0000000000000000C7
:102C100000000000000000000000000000000000B4
:102C200000000000000000000000000000000000A4
:102C30000000000000000000000000000000000094
:102C40003C00007E00007E0000FF0001FF8001FFCD
:102C50008003E7C007C3E007C3E00F81F00F00F86F
:102C60001F00783E007C3C003E78001E0000000003
:102C70000000000000000000000000000000000054
:102C80000000000000000000000000000000000044
:102C90000000000000000000000000000000000034
:102CA0000000000000000000000000000000000024
:102CB0000000000000000000000000000000000014
:102CC0000000000000000000000000000000000004
:102CD00000000000000000000000000000000000F4
:102CE00000000000000000000000000000000000E4
:102CF00000000000000000000000000000000000D4
:102D000000000000000000000000000000000000C3
:102D100000000000000000000000000000FFFFFFB6
:102D2000FFFFFFFFFFFFFFFFFF00000000000000AC
:102D30000000000000000000000000000000000093
:102D400000000000000F00000E00001E00001E002A
:102D5000003E00003C00003C00007C00007C0000C5
:102D60007C00007C00007C00007C00007C0000787F
:102D70000000000000000000000000000000000053
:102D80000000000000000000000000000000000043
:102D90000000000000000000000000000000000033
:102DA0000000000000000000000000000000000023
:102DB0000000000000000000000000000000000013
:102DC0000000000000000000000000000000000003
:102DD00000000000000000000000000000000000F3
:102DE00000000000000000000000000000000000E3
:102DF000000001FE0007FF800FFFC00FFFE00F0380
:102E0000E00C01F00000F00000F00000F0000070A5
:102E100000007000FFF003FFF007FFF00FFFF01F4E
:102E200080701E00701E00703C00F03C00F03C0002
:102E3000F03C00F03C01F03E01F01E03F01F8FF06B
:102E40000FFF700FFE7007FC7001F0000000000023
:102E50000000000000000000000000000000000072
:102E6000000000001E00001E00001E00001E0000EA
:102E70001E00001E00001E00001E00001E00001E9E
:102E800000001E3F001E7F801EFFC01FFFE01FE3EB
:102E9000F01F81F01F80F01F00781F00781F00785E
:102EA0001E00781E00781E003C1E003C1E003C1ECA
:102EB000003C1E003C1E003C1E00781E00781F00D7
:102EC000781F00781F00F81F80F01F81F01FE3E0DB
:102ED0001FFFE01EFFC01E7F80001E0000000000DC
:102EE00000000000000000000000000000000000E2
:102EF00000000000000000000000000000000000D2
:102F000000000000000000000000000000000000C1
:102F10000000003FC0007FE001FFF001FFF003F080
:102F20007007C0380780000F80000F00000F0000FE
:102F30000F00000F00001E00001E00001E00001EFB
:102F400000001E00001E00001F00000F00000F0008
:102F5000000F00000F800007800007C03003F0F072
:102F600001FFF000FFF0007FE0001F800000000084
:102F70000000000000000000000000000000000051
:102F80000000000000007000007000007000007081
:102F90000000700000700000700000700000700001
:102FA000007000FC7003FE7007FF7007FFF00F87D2
:102FB000F00F03F01F01F01E00F01E00F01E00F0E5
:102FC0003C00F03C00F03C00703C00703C00703C69
:102FD00000703C00703C00703C00F01E00F01E00D1
:102FE000F01E00F01E01F01F01F00F83F00FC7F07C
:102FF00007FFF003FE7001FE7000F8000000000003
:1030000000000000000000000000000000000000C0
:1030100000000000000000000000000000000000B0
:1030200000000000000000000000000000000000A0
:103030000000007F0001FF8003FFC007FFE007C121
:10304000F00F80F00F00781F00781E00381E003C43
:103050001E003C3FFFFC3FFFFC3FFFFC3FFFFC3CF2
:1030600000003C00003C00003E00001E00001E006E
:10307000001E00001F00000F00080F803807E1F855
:1030800003FFF801FFF800FFE0003F8000000000B0
:103090000000000000000000000000000000000030
:1030A00000000000000FF8001FF8001FF8003FF0BC
:1030B000003C000038000078000078000078000034
:1030C00078000078001FFFF81FFFF81FFFF8007856
:1030D0000000780000780000780000780000780098
:1030E0000078000078000078000078000078000088
:1030F0007800007800007800007800007800007800
:103100000000780000780000780000780000780067
:103110000078000078000078000000000000000047
:10312000000000000000000000000000000000009F
:10313000000000000000000000000000000000008F
:10314000000000000000000000000000000000007F
:10315000000000FC0003FE7007FF7007FFF00F8304
:10316000F01F01F01E00F01E00F01E00F03C00F009
:103170003C00703C00703C00703C00703C00703CB7
:1031800000F03E00F01E00F01E00F01E01F00F01E6
:10319000F00F83F007FFF003FF7001FE70007870FE
:1031A0000000700000F00000F00000F00601E007F1
:1031B000CFE007FFC007FF8001FE00000000000015
:1031C000000000001E00001E00001E00001E000087
:1031D0001E00001E00001E00001E00001E00001E3B
:1031E00000001E1F001E7FC01E7FE01EFFE01FE3C9
:1031F000F01F81F01F80F01F00F01F00F01F007013
:103200001E00701E00701E00701E00701E00701EDA
:1032100000701E00701E00701E00701E00701E00E8
:10322000701E00701E00701E00701E00701E007068
:103230001E00701E00700E007000000000000000F4
:10324000000000000000000000000000000000007E
:1032500000000000000E00000E00000E00000E0036
:10326000000E00000E000000000000000000000042
:10327000000000000003FE0003FE0003FE00001E2D
:1032800000000E00000E00000E00000E00000E00F8
:10329000000E00000E00000E00000E00000E0000E8
:1032A0000E00000E00000E00000E00000E00000ECA
:1032B00000000E00000E00000E00000E0007FFFCD4
:1032C0000FFFFE0FFFFE0FFFFC00000000000000DC
:1032D00000000000000000000000000000000000EE
:1032E00000000000000000001E00001E00001E0084
:1032F000001E00001E000000000000000000000092
:10330000000000000007FE0007FE0007FE00001E90
:1033100000001E00001E00001E00001E00001E0017
:10332000001E00001E00001E00001E00001E000007
:103330001E00001E00001E00001E00001E00001ED9
:1033400000001E00001E00001E00001E00001E00E7
:10335000001E00001E00001E00001E00003C000FAA
:10336000FC001FF8001FF8001FE000000000000034
:10337000000000000F00000F00000F00000F000011
:103380000F00000F00000F00000F00000F00000FE3
:1033900000000F00000F007C0F00F80F01F00F037A
:1033A000E00F03C00F07800F0F800F1F000F3E00BC
:1033B0000F3C000F7C000FFC000FFE000FFE000F03
:1033C000DF000F8F000F0F800F07800F03C00F0368
:1033D000E00F01E00F01F00F00F00F00F80F007890
:1033E0000F007C0F003E0F003E00000000000000B8
:1033F00000000000000000000000000000000000CD
:103400000007FC000FFC000FFC000FFC00003C005C
:10341000003C00003C00003C00003C00003C000080
:103420003C00003C00003C00003C00003C00003C34
:1034300000003C00003C00003C00003C00003C0060
:10344000003C00003C00003C00003C00003C000050
:103450003C00003C00003C00003C00003C00003C04
:1034600000003C00001C00001E00001F00000FFCBC
:10347000000FFC0007FC0003FC000000000000003F
:10348000000000000000000000000000000000003C
:10349000000000000000000000000000000000002C
:1034A000000000000000000000000000000000001C
:1034B000000001E1E03BF3F03FFBF83FFFF83E7E08
:1034C0003C3C3C3C3C3C3C383C3C383C1C383C1C88
:1034D000383C1C383C1C383C1C383C1C383C1C38E4
:1034E0003C1C383C1C383C1C383C1C383C1C383CD0
:1034F0001C383C1C383C1C383C1C383C1C383C1CE0
:10350000383C1C383C1C383C1C000000000000000B
:1035100000000000000000000000000000000000AB
:10352000000000000000000000000000000000009B
:10353000000000000000000000000000000000008B
:103540000000001F001E7FC01E7FE01EFFE01FE383
:10355000F01F81F01F80F01F00F01F00F01F0070AF
:103560001E00701E00701E00701E00701E00701E77
:1035700000701E00701E00701E00701E00701E0085
:10358000701E00701E00701E00701E00701E007005
:103590001E00701E00700E00700000000000000091
:1035A000000000000000000000000000000000001B
:1035B000000000000000000000000000000000000B
:1035C00000000000000000000000000000000000FB
:1035D0000000007E0001FF8003FFC007FFE00FC373
:1035E000E00F81F00F00F01E00F01E00781E007842
:1035F0001E00781E00783C00783C00783C00783C47
:1036000000783C00783E00781E00781E00781E008E
:10361000781E00781F00F00F00F00F81F007C7E060
:1036200007FFE003FFC001FF80007E0000000000F4
:10363000000000000000000000000000000000008A
:10364000000000000000000000000000000000007A
:10365000000000000000000000000000000000006A
:103660000000003F001E7FC01FFFE01FFFE01FC1E2
:10367000F01F80F01F00781F00781F00781F00786F
:103680001E00781E003C1E003C1E003C1E003C1E1E
:10369000007C1F00781F00781F00781F00781F80B3
:1036A000F01FC1F01FF7E01FFFE01E7FC01E3F00AC
:1036B0001E00001E00001E00001E00001E00001E56
:1036C00000001E00001E00000E00000000000000B0
:1036D00000000000000000000000000000000000EA
:1036E00000000000000000000000000000000000DA
:1036F000000000FC0003FE7007FF7007FFF00F835F
:10370000F00F01F01E00F01E00F01E00F01E00F091
:103710001E00F03C00703C00703C00703C00703EAD
:1037200000F01E00F01E00F01E00F01E00F00F0161
:10373000F00F83F007EFF007FF7003FE7000FC70DE
:103740000000700000700000700000700000700049
:1037500000700000700000700000700000000000A9
:103760000000000000000000000000000000000059
:103770000000000000000000000000000000000049
:1037800000000001F801E7FC01EFFE01CFFE01FFA0
:103790001E01FC0601F80001F00001F00001E0004C
:1037A00001E00001E00001E00001E00001E00001B3
:1037B000E00001E00001E00001E00001E00001E0C4
:1037C0000001E00001E00001E00001E00001E00094
:1037D00001E00001E00001E0000000000000000046
:1037E00000000000000000000000000000000000D9
:1037F00000000000000000000000000000000000C9
:1038000000000000000000000000000000000000B8
:103810000000007F8001FFE003FFE007FFE007C03A
:10382000E00F80200F00000F00000F00000F0000CD
:103830000F80000FC00007F80007FF0003FFC00063
:10384000FFE0001FE00003F00001F00000F00000C6
:10385000F00000F00000F00800F00E01F00F87E02B
:103860000FFFE00FFFC007FF8000FE000000000018
:103870000000000000000000000000000000000048
:103880000000000000000000000000000000F00048
:1038900000F00000F00000F00000F00000F0000078
:1038A000F00000F0003FFFF03FFFF03FFFF000F0BE
:1038B0000000F00000F00000F00000F00000F00058
:1038C00000F00000F00000F00000F00000F0000048
:1038D000F00000F00000F00000F00000F00000F048
:1038E0000000F00000F00000F800007800007FF019
:1038F000003FF0003FF0000FF0000000000000006B
:1039000000000000000000000000000000000000B7
:1039100000000000000000000000000000000000A7
:103920000000000000000000000000000000000097
:1039300000000000000F00780F00780F00780F00E3
:10394000780F00780F00780F00780F00780F00785C
:103950000F00780F00780F00780F00780F00780FB5
:1039600000780F00780F00780F00780E00780F00B5
:10397000F80F00F80F00F80F01F80F83F807E7F8C9
:1039800007FF7803FE7801FE7800F80000000000D1
:103990000000000000000000000000000000000027
:1039A0000000000000000000000000000000000017
:1039B0000000000000000000000000000000000007
:1039C00000000000003C003C3C003C1E00781E0053
:1039D000781E00781E00700F00F00F00F00F00F04E
:1039E0000F00E00781E00781E00781E00381C00369
:1039F000C3C003C3C003C3C001C78001E78001E7A0
:103A00008001E70000E70000FF0000FF00007E00EB
:103A1000007E00007E00007C00000000000000002E
:103A20000000000000000000000000000000000096
:103A30000000000000000000000000000000000086
:103A40000000000000000000000000000000000076
:103A50000000000000F0000FF0000FF0000F7000F9
:103A60000E78000E78001E78001E78001E783C1E2E
:103A7000383C1C383C1C3C3C3C3C7E3C3C7E3C1C6A
:103A8000763C1C66381E67381EE7781EE7781EE70E
:103A9000780EC3700FC3F00FC3F00FC3F00FC1F067
:103AA0000781F00781E00781E000000000000000CE
:103AB0000000000000000000000000000000000006
:103AC00000000000000000000000000000000000F6
:103AD00000000000000000000000000000000000E6
:103AE00000000000001E007C1E00780F00F00F0098
:103AF000F00781E003C3E003C3C001E78001E78072
:103B000000FF0000FF00007E00003E00003C0000BF
:103B10007E00007E0000FF0000F78001E78003E3E5
:103B2000C003C3C00781E00781E00F00F00F00F879
:103B30001E00783E007C3C003C00000000000000BD
:103B40000000000000000000000000000000000075
:103B50000000000000000000000000000000000065
:103B60000000000000000000000000000000000055
:103B700000000000003C003E1E003C1E003C1E00F9
:103B8000780F00780F00780F00F00780F00780F0C2
:103B90000781E003C1E003C1E003C3C001E3C0014A
:103BA000E3C001E78000F78000F78000FF00007F9E
:103BB00000007F00003E00003E00003E00003C0090
:103BC000003C00003C0000780000780000F0000F8E
:103BD000F0001FE0001FE0000F8000000000000068
:103BE00000000000000000000000000000000000D5
:103BF00000000000000000000000000000000000C5
:103C0000000007FFF00FFFF00FFFF00FFFF00000C4
:103C1000F00000F00001E00003E00003C00007C076
:103C2000000780000F00001F00001E00003E000083
:103C30003C0000780000F80000F00001F00001E016
:103C40000003C00007C0000780000F00000FFFF056
:103C50000FFFF00FFFF00FFFF0000000000000006A
:103C600000000000000000000000000001F000075C
:103C7000F0000FF0001FF0001E00001E00001E00EC
:103C8000001E00001E00001E00001E00001E00009E
:103C90001E00001E00001E00001E00003C00003C34
:103CA00000003C0000F8001FF0001FC0001FE000F3
:103CB00001F800007C00003C00003C00003C0000DB
:103CC0001E00001E00001E00001E00001E00001E40
:103CD00000001E00001E00001E00001E00001F004D
:103CE000000FF0000FF00003F000000000000000E3
:103CF0000000000000000000000000001C00001E8A
:103D000000001E00001E00001E00001E00001E001D
:103D1000001E00001E00001E00001E00001E00000D
:103D20001E00001E00001E00001E00001E00001EDF
:103D300000001E00001E00001E00001E00001E00ED
:103D4000001E00001E00001E00001E00001E0000DD
:103D50001E00001E00001E00001E00001E00001EAF
:103D600000001E00001E00001E00001E00001E00BD
:103D7000001E00001E00001E0000000000000000E9
:103D800000000000000000000000000F80000FF0A5
:103D9000000FF80007F800007C00003C00003C0029
:103DA000003C00003C00003C00003C00003C0000E7
:103DB0003C00003C00003C00003C00003C00003C9B
:103DC00000001E00001F00000FF80001F80007F8B7
:103DD000000FC0001F00003E00003C00003C00003F
:103DE0003C00003C00003C00003C00003C00003C6B
:103DF00000003C00003C00003C00007C0000F8009B
:103E00000FF8000FF0000FC00000000000000000DD
:103E100000000000000000000000000000000000A2
:103E20000000000000000000000000000000000092
:103E30000000000000000000000000000000000082
:103E400000000000000780000FC0001FE0003FF0EE
:103E5000003FF004787806787C0F703C0EF01E1E50
:103E6000701F1E200FFC000FFC0007F80003F0007D
:103E700000E0000000000000000000000000000062
:103E80000000000000000000000000000000000032
:103E90000000000000000000000000000000000022
:103EA0000000000000000000000000204600434128
:103EB00076672000204600436F696C200020460092
:103EC00054656D70320020460054656D70310020DD
:103ED0004600544176672020004552524F523A4CDA
:103EE00061737454656D70206172726179207369B9
:103EF0007A6520657863656564656420666F722005
:103F00004C696E6549443A00447261772066726F6D
:103F10006D2020686973746F727920206E6F742031
:103F2000617661696C61626C6520666F72206C6994
:103F30006E6549440053746F702043616C6C656416
:103F40002100433A4F4E4F4646000810205F0000C4
:103F50000000000000000000000000000000101041
:103F60001010101010101010000010100000242469
:103F70002424242400000000000000000000242469
:103F800024247E7E24247E7E2424242400001010F9
:103F90003C3C505038381414787810100000000061
:103FA000626264640808101026264646000030301D
:103FB0004848484830304A4A44443A3A00001010D1
:103FC0001010101000000000000000000000101091
:103FD00020204040404040402020101000001010A1
:103FE0000808040404040404080810100000101059
:103FF0005454383810103838545410100000000051
:10400000101010107C7C1010101000000000000038
:104010000000000000000808080810100000000060
:10402000000000007E7E0000000000000000000094
:104030000000000000000000000010100000000060
:1040400002020404080810102020404000003C3CFC
:10405000424246465A5A626242423C3C00000808CC
:10406000181808080808080808081C1C00003C3C30
:10407000424202021C1C202040407E7E00007E7EC8
:10408000020204041C1C020242423C3C00000404E4
:104090000C0C141424247E7E0404040400007E7E90
:1040A00040407C7C0202020242423C3C00001E1E58
:1040B000202040407C7C424242423C3C00007E7ECC
:1040C00002020404080810101010101000003C3CFC
:1040D000424242423C3C424242423C3C00003C3C68
:1040E000424242423E3E0202040478780000000050
:1040F0000000101000001010000000000000000080
:104100000000080800000808080810000000040467
:1041100008081010202010100808040400000000F7
:1041200000007E7E00007E7E000000000000202057
:104130001010080804040808101020200000202097
:1041400040400000000000000000000000003C3C77
:1041500042424A4A56564C4C40403E3E00001818D7
:104160002424424242427E7E4242424200007C7C03
:10417000424242427C7C424242427C7C00003C3CC7
:10418000424240404040404042423C3C00007C7C37
:10419000424242424242424242427C7C00007E7E97
:1041A000404040407C7C404040407E7E00007E7E1F
:1041B000404040407C7C40404040404000003E3E0B
:1041C00040404040404E4E4242423E3E000042424D
:1041D000424242427E7E42424242424200003838DF
:1041E00010101010101010101010383800000202BB
:1041F000020202020202020242423C3C000042422F
:10420000444448487070484844444242000040409A
:10421000404040404040404040407E7E000042429E
:1042200066665A5A5A5A424242424242000042424A
:10423000626252525A5A4A4A4646424200003C3C46
:10424000424242424242424242423C3C00007C7C6A
:10425000424242427C7C40404040404000003C3C66
:104260004242424242424A4A44443A3A00007C7C3A
:10427000424242427C7C48484444424200003C3C2A
:10428000424240403C3C020242423C3C00007C7CBA
:1042900010101010101010101010101000004242DA
:1042A000424242424242424242423C3C000042427E
:1042B00042424242424242422424181800004242F2
:1042C000424242425A5A5A5A6666424200004242AA
:1042D000424224241818242442424242000044440A
:1042E00044442828101010101010101000007E7E7A
:1042F000020204041818202040407E7E00007E7ECA
:10430000606060606060606060607E7E00000000F1
:1043100040402020101008080404020200007E7EA5
:10432000060606060606060606067E7E0000000055
:104330000000101028284444000000000000000085
:10434000000000000000000000007E7E0000202031
:10435000101008080000000000000000000000002D
:1043600000003C3C02023E3E42423E3E00004040D5
:1043700040407C7C4242424242427C7C0000000041
:1043800000003E3E4040404040403E3E00000202B1
:1043900002023E3E4242424242423E3E0000000095
:1043A00000003C3C42427E7E40403E3E00001C1CE1
:1043B000222220207C7C20202020202000000000C1
:1043C00000003C3C424242423E3E02023C3C4040F5
:1043D00040407C7C42424242424242420000101035
:1043E0000000303010101010101038380000040495
:1043F00000003C3C040404040404444438384040B5
:1044000040404242444478784444424200003030C4
:10441000101010101010101010103838000000008C
:10442000000066665A5A5A5A5A5A42420000000020
:1044300000007C7C42424242424242420000000074
:1044400000003C3C4242424242423C3C00000000F0
:1044500000007C7C424242427C7C40404040000064
:1044600000003E3E424242423E3E02020202000044
:1044700000005E5E60604040404040400000000040
:1044800000003E3E40403C3C02027C7C000010109C
:1044900010107C7C1010101012120C0C0000000088
:1044A000000042424242424246463A3A0000000080
:1044B00000004242424242422424181800000000F8
:1044C0000000424242425A5A5A5A666600000000B0
:1044D0000000424224241818242442420000000014
:1044E00000004242424242423E3E02023C3C000048
:1044F00000007E7E0404181820207E7E00000E0E30
:10450000181818187070181818180E0E00001010CF
:1045100010101010101010101010101000007070FB
:10452000181818180E0E18181818707000000000CF
:104530000000242454544848000000000000003EBD
:104540003E0000000000666F727761726400000038
:104550000000746F000000000000000000006E65A5
:10456000787400000000000000000004013C3C00E2
:10457000000000006261636B0000000000000000AA
:10458000746F000000000000000000007072696F8E
:1045900072000000000000000004024761696E2004
:1045A0005400416A64757374000000000000546593
:1045B0006D70204761696E00000056616C75650082
:1045C00000000000000081C703496E742054000001
:1045D000416A64757374000000000000496E7465E0
:1045E0007267616C0000000056616C756500000028
:1045F0000000000081C704535073000000005365A1
:104600006C656374000000000000536574706F698E
:104610006E7473000000746F2061646A75737400B7
:10462000000081C70546616E0000000041646A75A4
:10463000737400000000000066616E206175746F85
:10464000000000006465637265617365000000002E
:1046500081C70641647600000000416476616E63A4
:10466000650000000000726F6173740000000000BC
:10467000000062792031206D696E0000000081C762
:104680000752746400000000526574617264200077
:1046900000000000726F61737400000000000000F1
:1046A00062792031206D696E0000000081C70863C7
:1046B00043757400000041646A7573740000000063
:1046C00000004869676874656D70000000004375FC
:1046D00074206F7574000000000081C70A3C3C0024
:1046E000000000006261636B000000000000000039
:1046F000746F207072696F72000000006D656E75D6
:10470000000000000000000000040B737031000086
:10471000000041646A757374000000000000736556
:1047200074706F696E740000000023310000000097
:1047300000000000000081C70C7370320000000010
:1047400041646A7573740000000000007365747042
:104750006F696E740000000023320000000000004A
:104760000000000081C70D73703300000000416439
:104770006A757374000000000000736574706F69DF
:104780006E740000000023330000000000000000F1
:10479000000081C70E7370340000000041646A7528
:1047A0007374000000000000736574706F696E74AC
:1047B00000000000233400000000000000000000A2
:1047C00081C70F7370350000000041646A7573740F
:1047D000000000000000736574706F696E74000063
:1047E000000023350000000000000000000081C729
:1047F000106C73330000000041646A75737400002C
:10480000000000006C6173742033000000000000A1
:10481000736574706F696E740000000081C7115475
:104820002B3100000000496E637265617365000002
:104830000000726F617374206C656E000000627915
:104840002031206D696E0000000081C712542D31A7
:10485000000000004465637265617365000000003C
:10486000726F617374206C656E0000006279203194
:10487000206D696E0000000081C7143C3C00000000
:104880000000676F206261636B0000000000746FBE
:10489000000000000000000000007072696F7200EC
:1048A00000000000000000041500000000000000EF
:1048B000676F206261636B0000000000746F00008E
:1048C00000000000000000007072696F72000000BC
:1048D0000000000081C7162B310000000000676F48
:1048E000206261636B0000000000746F0000000034
:1048F0000000000000007072696F7200000000008C
:10490000000041F2172B330000000000676F2062A7
:1049100061636B0000000000746F00000000000085
:10492000000000007072696F72000000000000005B
:1049300041F2182B350000000000676F20626163B0
:104940006B0000000000746F000000000000000019
:1049500000007072696F720000000000000041F2F8
:10496000192D310000000000676F206261636B0049
:1049700000000000746F0000000000000000000054
:104980007072696F720000000000000041F21A2D81
:10499000330000000000676F206261636B0000005D
:1049A0000000746F00000000000000000000707242
:1049B000696F720000000000000041F21B2D3500FD
:1049C00000000000676F206261636B000000000060
:1049D000746F000000000000000000007072696F3A
:1049E000720000000000000041F21C5341564500D7
:1049F0000000676F206261636B0000000000746F4D
:104A0000000000000000000000007072696F72007A
:104A100000000000000081C71E3E3E0000000000B4
:104A2000666F77617264000000000000746F000020
:104A300000000000000000006E65787400000000B7
:104A40000000000000041F3C3C0000000000626108
:104A5000636B0000000000000000746F00000000A5
:104A60000000000000007072696F7200000000001A
:104A70000000000420444247000000007375626A91
:104A800065637400000000006F6600000000000015
:104A9000000000006D656E75000000000000000061
:104AA00081C72143310000000000746F67676C65A7
:104AB000000000000000636F696C203120535352E6
:104AC00000006F6E20616E64206F6666000081C713
:104AD0002243320000000000746F67676C650000BD
:104AE00000000000636F696C2032205353520000B5
:104AF0006F6E20616E64206F6666000081C72300C0
:104B0000000000000000676F206261636B0000001E
:104B10000000746F000000000000000000007072D0
:104B2000696F720000000000000081C72446616EBA
:104B300000000000746F67676C65000000000000F3
:104B400066616E2072656C61790000006F6E206195
:104B50006E64206F6666000081C725447574790015
:104B600000004D616E75616C6C790000000073652A
:104B700074000000000000000000647574790000FB
:104B800000000000000081C72654656D7000000021
:104B9000676F206261636B0000000000746F0000AB
:104BA00000000000000000007072696F72000000D9
:104BB0000000000081C7283C3C0000000000676F37
:104BC00020746F000000000000007072696F7200B6
:104BD0000000000000006D656E7500000000000020
:104BE00000000004290000000000000073656C65EF
:104BF00063746564000000006465766963650000A5
:104C000000000000746F206465627567000000009A
:104C100000042A4F4E00000000007475726E000000
:104C20000000000000006465766963650000000014
:104C300000006F6E0000000000000000000041F264
:104C40002B4F4646000000007475726E0000000095
:104C500000000000646576696365000000000000E4
:104C60006F666600000000000000000041F22C00AA
:104C7000000000000000676F206261636B000000AD
:104C80000000746F0000000000000000000070725F
:104C9000696F720000000000000000002D0000009D
:104CA00000000000676F206261636B00000000007D
:104CB000746F000000000000000000007072696F57
:104CC000720000000000000000002E000000000044
:104CD0000000676F206261636B0000000000746F6A
:104CE000000000000000000000007072696F720098
:104CF00000000000000000002F0000000000000085
:104D0000676F206261636B0000000000746F000039
:104D100000000000000000007072696F7200000067
:104D20000000000000003000000000000000676F7D
:104D3000206261636B0000000000746F00000000DF
:104D40000000000000007072696F72000000000037
:104D500000000000323C3C0000000000676F206251
:104D600061636B0000000000746F00000000000031
:104D7000000000007072696F720000000000000007
:104D800000043300000000000000676F20626163D0
:104D90006B0000000000746F0000000000000000C5
:104DA00000007072696F72000000000000000004D3
:104DB000342B2E3031000000676F206261636B007E
:104DC00000000000746F0000000000000000000000
:104DD0007072696F720000000000000041F2352B14
:104DE0002E3035000000676F206261636B000000A9
:104DF0000000746F000000000000000000007072EE
:104E0000696F720000000000000041F2362B2E3165
:104E100030000000676F206261636B0000000000DB
:104E2000746F000000000000000000007072696FE5
:104E3000720000000000000041F2372D2E303100DA
:104E40000000676F206261636B0000000000746FF8
:104E5000000000000000000000007072696F720026
:104E600000000000000041F2382D2E303500000017
:104E7000676F206261636B0000000000746F0000C8
:104E800000000000000000007072696F72000000F6
:104E90000000000041F2392D2E3130000000676F14
:104EA000206261636B0000000000746F000000006E
:104EB0000000000000007072696F720000000000C6
:104EC000000041F23A536176650000005361766557
:104ED0000000000000000000616E6400000000009F
:104EE00000000000636C6F736500000000000000AC
:104EF00000043C3C3C0000000000676F20746F0021
:104F00000000000000007072696F72000000000075
:104F100000006D656E7500000000000000000004D8
:104F20003D00000000000000676F206261636B00BD
:104F300000000000746F000000000000000000008E
:104F40007072696F720000000000000000043E2BC8
:104F5000310000000000676F206261636B00000099
:104F60000000746F0000000000000000000070727C
:104F7000696F720000000000000041F23F2B350015
:104F800000000000676F206261636B00000000009A
:104F9000746F000000000000000000007072696F74
:104FA000720000000000000041F2402B3130000090
:104FB0000000676F206261636B0000000000746F87
:104FC000000000000000000000007072696F7200B5
:104FD00000000000000041F2412D310000000000FF
:104FE000676F206261636B0000000000746F000057
:104FF00000000000000000007072696F7200000085
:105000000000000041F2422D350000000000676FF3
:10501000206261636B0000000000746F00000000FC
:105020000000000000007072696F72000000000054
:10503000000041F2432D313000000000676F206214
:1050400061636B0000000000746F0000000000004E
:10505000000000007072696F720000000000000024
:1050600041F24453617665000000536176650000AB
:10507000000000000000616E6400000000000000FD
:105080000000636C6F736500000000000000000406
:10509000463C3C0000000000676F20746F00000079
:1050A000000000007072696F7200000000000000D4
:1050B0006D656E75000000000000000000044747A9
:1050C00061696E2046004761696E000000000000C3
:1050D00000006F6600000000000000000000466154
:1050E0006E0000000000000000005C1D48496E7466
:1050F00020460000496E740000000000000000001F
:105100006F660000000000000000000046616E00B5
:1051100000000000000000005C1D49412050574D78
:10512000000041646A7573740000000000004100D3
:105130000000000000000000000050574D0000007B
:105140000000000000005C1D4A422050574D000046
:1051500041646A75737400000000000042000000A2
:10516000000000000000000050574D00000000004B
:10517000000000005C1D4B432050574D000041646F
:105180006A75737400000000000043000000000016
:1051900000000000000050574D000000000000001B
:1051A00000005C1D4C442050574D000041646A755E
:1051B00073740000000000004400000000000000C4
:1051C0000000000050574D000000000000000000EB
:1051D0005C1D4D432B3100000000416464203120F0
:1051E0006D696E000000746F204300000000000035
:1051F0000000706572696F640000000000005C1DB3
:105200004E432D3100000000526D762031206D6933
:105210006E000000746F20430000000000000000DA
:10522000706572696F640000000000005C1D503EF4
:105230003E0000000000676F20746F000000000057
:1052400000006E65787400000000000000006D65CD
:105250006E75000000000000000000045100000016
:1052600000000000676F206261636B0000000000B7
:10527000746F000000000000000000007072696F91
:1052800072000000000000005C1D520000000000E1
:105290000000676F00000000000000000000746F55
:1052A000000000000000000000007072696F7200D2
:1052B0000000000000005C1D530000000000000022
:1052C000676F206261636B0000000000746F000074
:1052D00000000000000000007072696F72000000A2
:1052E000000000005C1D5400000000000000676F1B
:1052F000206261636B0000000000746F000000001A
:105300000000000000007072696F72000000000071
:1053100000005C1D5500000000000000676F206267
:1053200061636B0000000000746F0000000000006B
:10533000000000007072696F720000000000000041
:1053400000045600000000000000676F20626163E7
:105350006B0000000000746F0000000000000000FF
:1053600000007072696F720000000000000000040D
:105370005700000000000000676F206261636B004F
:1053800000000000746F000000000000000000003A
:105390007072696F72000000000000000004580085
:1053A000000000000000676F206261636B00000076
:1053B0000000746F00000000000000000000707228
:1053C000696F720000000000000000045A5374610D
:1053D00072740000537461727400000000000000D9
:1053E000526F6173740000000000000000000000B4
:1053F000000000000000000000045B53746F7000A8
:105400000000456E6420526F6173740000006F727B
:105410002046616E00000000000000000000000057
:1054200000000000000000F85C46616E0000000013
:1054300053746172740000000000000046616E0049
:10544000000000000000000000000000000000005C
:10545000000000005C1D5D72667300000000526574
:105460006472617700000000000073637265656E0E
:10547000000000000000000000000000000000002C
:10548000000041F25E00000000000000676F206233
:1054900061636B0000000000746F000000000000FA
:1054A000000000007072696F7200000000000000D0
:1054B00000045F00000000000000676F206261636D
:1054C0006B0000000000746F00000000000000008E
:1054D00000007072696F720000000000000000049C
:1054E0006000000000000000676F206261636B00D5
:1054F00000000000746F00000000000000000000C9
:105500007072696F7200000000000000000461000A
:10551000000000000000676F206261636B00000004
:105520000000746F000000000000000000007072B6
:10553000696F7200000000000000000462000000BB
:1055400000000000676F206261636B0000000000D4
:10555000746F000000000000000000007072696FAE
:1055600072000000000000000004642D31300000D3
:105570000000446563726561736500000000666148
:105580006E2031300000000000007072696F720000
:105590000000000000005C1D652D330000000000CD
:1055A00044656372656173650000000066616E208A
:1055B00033000000000000007072696F720000008C
:1055C000000000005C1D662B330000000000496EE7
:1055D0006372656173650000000066616E203300D0
:1055E0000000000000007072696F7200000000008F
:1055F00000005C1D672B313000000000496E6372B3
:10560000656173650000000066616E203130000046
:10561000000000007072696F72000000000000005E
:105620005C1D680000000000000073617665206169
:1056300073000000000073746172740000000000C9
:1056400000007072696F72000000000000005C1DB5
:105650006900000000000000676F206261636B005A
:1056600000000000746F0000000000000000000057
:105670007072696F720000000000000000046A0090
:10568000000000000000676F206261636B00000093
:105690000000746F00000000000000000000707245
:1056A000696F720000000000000000046B00000041
:1056B00000000000676F206261636B000000000063
:1056C000746F000000000000000000007072696F3D
:1056D000720000000000000000046C0000000000E8
:1056E0000000676F206261636B0000000000746F50
:1056F000000000000000000000007072696F72007E
:1057000000000000000000042F3235340020466104
:105710006E50574D3A0020436F696C2054656D7090
:105720003A0020447574793A002044656C74613AFB
:105730002D002F00204265616E2054656D703A0087
:105740002F0054696D653A002C436F696C41766790
:10575000002C436F696C3A002C4265616E4176679C
:105760003A002C4265616E323A004265616E313A10
:10577000002D002B00443A004E3A00000020002388
:1057800000260029002C002F003200000100000339
:105790000106010901446576001010205F00000039
:1057A00000000000000000000000000000000000F9
:1057B00000000000000000000000000000000000E9
:1057C0000007000F800F800F800F800F80070007F9
:1057D0000000000000070007000700000000000EA6
:1057E000380E380E380E3806300000000000000079
:1057F0000000000000000000000000000000000C9D
:10580000300C300C307FFE7FFE0C300C300C300C36
:10581000307FFE7FFE0C300C300C300000000002A8
:105820004002400FF81FF81A401A401FF00FF8020C
:105830005802581FF81FF00240024000000000000C
:105840000000000E100E300E7000E001C003800753
:10585000000E700C700870000000000000000000D6
:10586000000F001980198019800F000F080F981978
:10587000F818F018E019F00F980000000000000080
:10588000000700070007000E0000000000000000F5
:105890000000000000000000000000000000000008
:1058A0000000F001C0038007000E000E000E000E85
:1058B000000700038001C000F000000000000000AD
:1058C000000F00038001C000E00070007000700055
:1058D0007000E001C003800F000000000000000025
:1058E0000001801188099007E007E03FFC3FFC07BA
:1058F000E007E0099011880180000000000000002E
:1059000000000000000180018001800FF00FF00115
:105910008001800180000000000000000000000005
:105920000000000000000000000000000000000077
:105930000000000700070007000E00000000000044
:1059400000000000000000000000001FF81FF80029
:105950000000000000000000000000000000000047
:105960000000000000000000000000000000000037
:105970000000000700070007000000000000000012
:105980000000020006000E001C0038007000E0015C
:10599000C0038007000E001C000000000000000093
:1059A000000FF01C381C781CF81CF81DB81DB81F1F
:1059B000381F381E381C380FF000000000000000AF
:1059C000000180018003801F801F8003800380030B
:1059D000800380038003801FF000000000000000AF
:1059E000000FE01C701C380038007000E001C0039C
:1059F0008007000E381C381FF8000000000000006F
:105A0000000FE01C701C380038007003C003C00099
:105A10007000381C381C700FE0000000000000000F
:105A20000000E001E003E006E00CE018E01FF81FD2
:105A3000F800E000E000E003F800000000000000D3
:105A4000001FF81C001C001C001C001FE01FF000C1
:105A50007800381C381C700FE000000000000000C7
:105A60000003E007000E001C001C001FF01FF81CC4
:105A7000381C381C381C380FF000000000000000F3
:105A8000001FFC1C1C1C1C1C1C001C00380070008F
:105A9000E001C003800380038000000000000000DC
:105AA000000FF01C381C381C381F3807E007E01CBA
:105AB000F81C381C381C380FF000000000000000F3
:105AC000000FF01C381C381C381C381FF80FF80069
:105AD000380038007000E007C0000000000000003F
